{"contracts/TurmericSupplyChain.sol":{"TurmericSupplyChain":{"abi":[{"inputs":[{"internalType":"address","name":"admin","type":"address"}],"stateMutability":"nonpayable","type":"constructor"},{"inputs":[],"name":"AccessControlBadConfirmation","type":"error"},{"inputs":[{"internalType":"address","name":"account","type":"address"},{"internalType":"bytes32","name":"neededRole","type":"bytes32"}],"name":"AccessControlUnauthorizedAccount","type":"error"},{"anonymous":false,"inputs":[{"indexed":false,"internalType":"string","name":"farmer_id","type":"string"},{"indexed":false,"internalType":"string","name":"batch_id","type":"string"}],"name":"HarvestRecorded","type":"event"},{"anonymous":false,"inputs":[{"indexed":true,"internalType":"string","name":"farmer_id","type":"string"},{"indexed":true,"internalType":"string","name":"batch_id","type":"string"}],"name":"HarvestRegistered","type":"event"},{"anonymous":false,"inputs":[{"indexed":true,"internalType":"string","name":"batch_id","type":"string"},{"indexed":false,"internalType":"uint256","name":"count","type":"uint256"}],"name":"PacketCountUpdated","type":"event"},{"anonymous":false,"inputs":[{"indexed":true,"internalType":"string","name":"unique_packet_id","type":"string"},{"indexed":false,"internalType":"string","name":"batch_id","type":"string"},{"indexed":false,"internalType":"string","name":"current_stage","type":"string"}],"name":"PacketRegistered","type":"event"},{"anonymous":false,"inputs":[{"indexed":false,"internalType":"string","name":"unique_packet_id","type":"string"},{"indexed":false,"internalType":"string","name":"batch_id","type":"string"},{"indexed":false,"internalType":"string","name":"current_stage","type":"string"}],"name":"PacketRegisteredPlain","type":"event"},{"anonymous":false,"inputs":[{"indexed":true,"internalType":"string","name":"packet_id","type":"string"},{"indexed":true,"internalType":"string","name":"batch_id","type":"string"},{"indexed":false,"internalType":"string","name":"shopkeeper_id","type":"string"}],"name":"PacketSold","type":"event"},{"anonymous":false,"inputs":[{"indexed":true,"internalType":"string","name":"unique_packet_id","type":"string"},{"indexed":false,"internalType":"string","name":"previous_stage","type":"string"},{"indexed":false,"internalType":"string","name":"new_stage","type":"string"}],"name":"PacketStageUpdated","type":"event"},{"anonymous":false,"inputs":[{"indexed":false,"internalType":"string","name":"unique_packet_id","type":"string"},{"indexed":false,"internalType":"string","name":"previous_stage","type":"string"},{"indexed":false,"internalType":"string","name":"new_stage","type":"string"}],"name":"PacketStageUpdatedPlain","type":"event"},{"anonymous":false,"inputs":[{"indexed":true,"internalType":"bytes32","name":"role","type":"bytes32"},{"indexed":true,"internalType":"bytes32","name":"previousAdminRole","type":"bytes32"},{"indexed":true,"internalType":"bytes32","name":"newAdminRole","type":"bytes32"}],"name":"RoleAdminChanged","type":"event"},{"anonymous":false,"inputs":[{"indexed":true,"internalType":"bytes32","name":"role","type":"bytes32"},{"indexed":true,"internalType":"address","name":"account","type":"address"},{"indexed":true,"internalType":"address","name":"sender","type":"address"}],"name":"RoleGranted","type":"event"},{"anonymous":false,"inputs":[{"indexed":true,"internalType":"bytes32","name":"role","type":"bytes32"},{"indexed":true,"internalType":"address","name":"account","type":"address"},{"indexed":true,"internalType":"address","name":"sender","type":"address"}],"name":"RoleRevoked","type":"event"},{"inputs":[],"name":"DEFAULT_ADMIN_ROLE","outputs":[{"internalType":"bytes32","name":"","type":"bytes32"}],"stateMutability":"view","type":"function"},{"inputs":[],"name":"DISTRIBUTOR_ROLE","outputs":[{"internalType":"bytes32","name":"","type":"bytes32"}],"stateMutability":"view","type":"function"},{"inputs":[],"name":"FARMER_ROLE","outputs":[{"internalType":"bytes32","name":"","type":"bytes32"}],"stateMutability":"view","type":"function"},{"inputs":[],"name":"PROCESSOR_ROLE","outputs":[{"internalType":"bytes32","name":"","type":"bytes32"}],"stateMutability":"view","type":"function"},{"inputs":[],"name":"SHOPKEEPER_ROLE","outputs":[{"internalType":"bytes32","name":"","type":"bytes32"}],"stateMutability":"view","type":"function"},{"inputs":[],"name":"SUPPLIER_ROLE","outputs":[{"internalType":"bytes32","name":"","type":"bytes32"}],"stateMutability":"view","type":"function"},{"inputs":[{"internalType":"string","name":"packet_id","type":"string"},{"components":[{"internalType":"string","name":"distributor_id","type":"string"},{"internalType":"string","name":"gps_coordinates","type":"string"},{"internalType":"string","name":"received_box_code","type":"string"},{"internalType":"string","name":"dispatch_date","type":"string"},{"internalType":"string","name":"sending_box_code","type":"string"},{"internalType":"string","name":"supplier_id","type":"string"}],"internalType":"struct TurmericSupplyChain.Distributor","name":"d","type":"tuple"}],"name":"addDistributor","outputs":[],"stateMutability":"nonpayable","type":"function"},{"inputs":[{"internalType":"string","name":"batch_id","type":"string"},{"components":[{"internalType":"string","name":"farmer_id","type":"string"},{"internalType":"string","name":"product_name","type":"string"},{"internalType":"string","name":"batch_id","type":"string"},{"internalType":"string","name":"harvest_date","type":"string"},{"internalType":"string","name":"gps_coordinates","type":"string"},{"internalType":"string","name":"fertilizer","type":"string"},{"internalType":"string","name":"organic_status","type":"string"},{"internalType":"uint256","name":"quantity_gm","type":"uint256"}],"internalType":"struct TurmericSupplyChain.Harvest","name":"h","type":"tuple"}],"name":"addHarvest","outputs":[],"stateMutability":"nonpayable","type":"function"},{"inputs":[{"internalType":"string","name":"packet_id","type":"string"},{"components":[{"internalType":"string","name":"unique_packet_id","type":"string"},{"internalType":"string","name":"batch_id","type":"string"},{"internalType":"string","name":"current_stage","type":"string"},{"internalType":"bool","name":"exists","type":"bool"}],"internalType":"struct TurmericSupplyChain.Packet","name":"p","type":"tuple"}],"name":"addPacket","outputs":[],"stateMutability":"nonpayable","type":"function"},{"inputs":[{"internalType":"string","name":"batch_id","type":"string"},{"internalType":"string[]","name":"packet_ids","type":"string[]"}],"name":"addPacketsInBatch","outputs":[],"stateMutability":"nonpayable","type":"function"},{"inputs":[{"internalType":"string","name":"batch_id","type":"string"},{"components":[{"internalType":"string","name":"batch_id","type":"string"},{"internalType":"string","name":"processing_gps","type":"string"},{"internalType":"string","name":"grinding_facility_name","type":"string"},{"internalType":"uint256","name":"moisture_content","type":"uint256"},{"internalType":"uint256","name":"curcumin_content","type":"uint256"},{"internalType":"string","name":"heavy_metals","type":"string"},{"internalType":"string","name":"physical_properties","type":"string"},{"internalType":"string","name":"packaging_date","type":"string"},{"internalType":"string","name":"packaging_unit","type":"string"},{"internalType":"string","name":"packet_id","type":"string"},{"internalType":"string","name":"expiry_date","type":"string"},{"internalType":"string","name":"sending_box_code","type":"string"},{"internalType":"string","name":"distributor_id","type":"string"}],"internalType":"struct TurmericSupplyChain.Processing","name":"p","type":"tuple"}],"name":"addProcessing","outputs":[],"stateMutability":"nonpayable","type":"function"},{"inputs":[{"internalType":"string","name":"packet_id","type":"string"},{"components":[{"internalType":"string","name":"shopkeeper_id","type":"string"},{"internalType":"string","name":"packet_id","type":"string"},{"internalType":"string","name":"gps_coordinates","type":"string"},{"internalType":"string","name":"date_received","type":"string"}],"internalType":"struct TurmericSupplyChain.Shopkeeper","name":"sh","type":"tuple"}],"name":"addShopkeeper","outputs":[],"stateMutability":"nonpayable","type":"function"},{"inputs":[{"internalType":"string","name":"packet_id","type":"string"},{"components":[{"internalType":"string","name":"supplier_id","type":"string"},{"internalType":"string","name":"received_box_code","type":"string"},{"internalType":"string","name":"gps_coordinates","type":"string"},{"internalType":"string","name":"receipt_date","type":"string"},{"internalType":"string","name":"shopkeeper_id","type":"string"},{"internalType":"string","name":"packet_id","type":"string"}],"internalType":"struct TurmericSupplyChain.Supplier","name":"s","type":"tuple"}],"name":"addSupplier","outputs":[],"stateMutability":"nonpayable","type":"function"},{"inputs":[{"internalType":"string","name":"batch_id","type":"string"}],"name":"batchExists","outputs":[{"internalType":"bool","name":"","type":"bool"}],"stateMutability":"view","type":"function"},{"inputs":[{"internalType":"string","name":"","type":"string"}],"name":"batchPacketCount","outputs":[{"internalType":"uint256","name":"","type":"uint256"}],"stateMutability":"view","type":"function"},{"inputs":[{"internalType":"string","name":"farmer_id","type":"string"},{"internalType":"string","name":"batch_id","type":"string"}],"name":"checkFarmerBatchExists","outputs":[{"internalType":"bool","name":"","type":"bool"}],"stateMutability":"view","type":"function"},{"inputs":[{"internalType":"string","name":"batch_id","type":"string"},{"internalType":"string","name":"farmer_id","type":"string"},{"internalType":"uint256","name":"count","type":"uint256"},{"internalType":"uint256","name":"weightPerPacketGm","type":"uint256"}],"name":"createPackets","outputs":[],"stateMutability":"nonpayable","type":"function"},{"inputs":[{"internalType":"string","name":"batch_id","type":"string"}],"name":"getBatchPacketCount","outputs":[{"internalType":"uint256","name":"","type":"uint256"}],"stateMutability":"view","type":"function"},{"inputs":[{"internalType":"string","name":"batch_id","type":"string"}],"name":"getBatchProcessing","outputs":[{"components":[{"internalType":"string","name":"batch_id","type":"string"},{"internalType":"string","name":"processing_gps","type":"string"},{"internalType":"string","name":"grinding_facility_name","type":"string"},{"internalType":"uint256","name":"moisture_content","type":"uint256"},{"internalType":"uint256","name":"curcumin_content","type":"uint256"},{"internalType":"string","name":"heavy_metals","type":"string"},{"internalType":"string","name":"physical_properties","type":"string"},{"internalType":"string","name":"packaging_date","type":"string"},{"internalType":"string","name":"packaging_unit","type":"string"},{"internalType":"string","name":"expiry_date","type":"string"},{"internalType":"string","name":"sending_box_code","type":"string"},{"internalType":"string","name":"distributor_id","type":"string"}],"internalType":"struct TurmericSupplyChain.BatchProcessing","name":"","type":"tuple"}],"stateMutability":"view","type":"function"},{"inputs":[{"internalType":"string","name":"packet_id","type":"string"}],"name":"getDistributor","outputs":[{"components":[{"internalType":"string","name":"distributor_id","type":"string"},{"internalType":"string","name":"gps_coordinates","type":"string"},{"internalType":"string","name":"received_box_code","type":"string"},{"internalType":"string","name":"dispatch_date","type":"string"},{"internalType":"string","name":"sending_box_code","type":"string"},{"internalType":"string","name":"supplier_id","type":"string"}],"internalType":"struct TurmericSupplyChain.Distributor","name":"","type":"tuple"}],"stateMutability":"view","type":"function"},{"inputs":[{"internalType":"string","name":"batch_id","type":"string"}],"name":"getHarvest","outputs":[{"components":[{"internalType":"string","name":"farmer_id","type":"string"},{"internalType":"string","name":"product_name","type":"string"},{"internalType":"string","name":"batch_id","type":"string"},{"internalType":"string","name":"harvest_date","type":"string"},{"internalType":"string","name":"gps_coordinates","type":"string"},{"internalType":"string","name":"fertilizer","type":"string"},{"internalType":"string","name":"organic_status","type":"string"},{"internalType":"uint256","name":"quantity_gm","type":"uint256"}],"internalType":"struct TurmericSupplyChain.Harvest","name":"","type":"tuple"}],"stateMutability":"view","type":"function"},{"inputs":[{"internalType":"string","name":"batch_id","type":"string"}],"name":"getHarvestForBatch","outputs":[{"components":[{"internalType":"string","name":"farmer_id","type":"string"},{"internalType":"string","name":"product_name","type":"string"},{"internalType":"string","name":"batch_id","type":"string"},{"internalType":"string","name":"harvest_date","type":"string"},{"internalType":"string","name":"gps_coordinates","type":"string"},{"internalType":"string","name":"fertilizer","type":"string"},{"internalType":"string","name":"organic_status","type":"string"},{"internalType":"uint256","name":"quantity_gm","type":"uint256"}],"internalType":"struct TurmericSupplyChain.Harvest","name":"","type":"tuple"}],"stateMutability":"view","type":"function"},{"inputs":[{"internalType":"string","name":"packet_id","type":"string"}],"name":"getPacket","outputs":[{"components":[{"internalType":"string","name":"unique_packet_id","type":"string"},{"internalType":"string","name":"batch_id","type":"string"},{"internalType":"string","name":"current_stage","type":"string"},{"internalType":"bool","name":"exists","type":"bool"}],"internalType":"struct TurmericSupplyChain.Packet","name":"","type":"tuple"}],"stateMutability":"view","type":"function"},{"inputs":[{"internalType":"string","name":"batch_id","type":"string"}],"name":"getProcessing","outputs":[{"components":[{"internalType":"string","name":"batch_id","type":"string"},{"internalType":"string","name":"processing_gps","type":"string"},{"internalType":"string","name":"grinding_facility_name","type":"string"},{"internalType":"uint256","name":"moisture_content","type":"uint256"},{"internalType":"uint256","name":"curcumin_content","type":"uint256"},{"internalType":"string","name":"heavy_metals","type":"string"},{"internalType":"string","name":"physical_properties","type":"string"},{"internalType":"string","name":"packaging_date","type":"string"},{"internalType":"string","name":"packaging_unit","type":"string"},{"internalType":"string","name":"packet_id","type":"string"},{"internalType":"string","name":"expiry_date","type":"string"},{"internalType":"string","name":"sending_box_code","type":"string"},{"internalType":"string","name":"distributor_id","type":"string"}],"internalType":"struct TurmericSupplyChain.Processing","name":"","type":"tuple"}],"stateMutability":"view","type":"function"},{"inputs":[{"internalType":"bytes32","name":"role","type":"bytes32"}],"name":"getRoleAdmin","outputs":[{"internalType":"bytes32","name":"","type":"bytes32"}],"stateMutability":"view","type":"function"},{"inputs":[{"internalType":"string","name":"packet_id","type":"string"}],"name":"getShopkeeper","outputs":[{"components":[{"internalType":"string","name":"shopkeeper_id","type":"string"},{"internalType":"string","name":"packet_id","type":"string"},{"internalType":"string","name":"gps_coordinates","type":"string"},{"internalType":"string","name":"date_received","type":"string"}],"internalType":"struct TurmericSupplyChain.Shopkeeper","name":"","type":"tuple"}],"stateMutability":"view","type":"function"},{"inputs":[{"internalType":"string","name":"packet_id","type":"string"}],"name":"getSupplier","outputs":[{"components":[{"internalType":"string","name":"supplier_id","type":"string"},{"internalType":"string","name":"received_box_code","type":"string"},{"internalType":"string","name":"gps_coordinates","type":"string"},{"internalType":"string","name":"receipt_date","type":"string"},{"internalType":"string","name":"shopkeeper_id","type":"string"},{"internalType":"string","name":"packet_id","type":"string"}],"internalType":"struct TurmericSupplyChain.Supplier","name":"","type":"tuple"}],"stateMutability":"view","type":"function"},{"inputs":[{"internalType":"bytes32","name":"role","type":"bytes32"},{"internalType":"address","name":"account","type":"address"}],"name":"grantRole","outputs":[],"stateMutability":"nonpayable","type":"function"},{"inputs":[{"internalType":"bytes32","name":"role","type":"bytes32"},{"internalType":"address","name":"account","type":"address"}],"name":"hasRole","outputs":[{"internalType":"bool","name":"","type":"bool"}],"stateMutability":"view","type":"function"},{"inputs":[{"internalType":"string","name":"packet_id","type":"string"}],"name":"isPacketSold","outputs":[{"internalType":"bool","name":"","type":"bool"}],"stateMutability":"view","type":"function"},{"inputs":[{"internalType":"string","name":"packet_id","type":"string"},{"internalType":"string","name":"shopkeeper_id","type":"string"}],"name":"markPacketSold","outputs":[],"stateMutability":"nonpayable","type":"function"},{"inputs":[{"internalType":"string","name":"packet_id","type":"string"}],"name":"packetIdExists","outputs":[{"internalType":"bool","name":"","type":"bool"}],"stateMutability":"view","type":"function"},{"inputs":[{"internalType":"bytes32","name":"role","type":"bytes32"},{"internalType":"address","name":"callerConfirmation","type":"address"}],"name":"renounceRole","outputs":[],"stateMutability":"nonpayable","type":"function"},{"inputs":[{"internalType":"bytes32","name":"role","type":"bytes32"},{"internalType":"address","name":"account","type":"address"}],"name":"revokeRole","outputs":[],"stateMutability":"nonpayable","type":"function"},{"inputs":[{"internalType":"string","name":"batch_id","type":"string"},{"components":[{"internalType":"string","name":"batch_id","type":"string"},{"internalType":"string","name":"processing_gps","type":"string"},{"internalType":"string","name":"grinding_facility_name","type":"string"},{"internalType":"uint256","name":"moisture_content","type":"uint256"},{"internalType":"uint256","name":"curcumin_content","type":"uint256"},{"internalType":"string","name":"heavy_metals","type":"string"},{"internalType":"string","name":"physical_properties","type":"string"},{"internalType":"string","name":"packaging_date","type":"string"},{"internalType":"string","name":"packaging_unit","type":"string"},{"internalType":"string","name":"expiry_date","type":"string"},{"internalType":"string","name":"sending_box_code","type":"string"},{"internalType":"string","name":"distributor_id","type":"string"}],"internalType":"struct TurmericSupplyChain.BatchProcessing","name":"bp","type":"tuple"}],"name":"setBatchProcessing","outputs":[],"stateMutability":"nonpayable","type":"function"},{"inputs":[{"internalType":"bytes4","name":"interfaceId","type":"bytes4"}],"name":"supportsInterface","outputs":[{"internalType":"bool","name":"","type":"bool"}],"stateMutability":"view","type":"function"}],"evm":{"bytecode":{"linkReferences":{},"object":"608060405234801561001057600080fd5b50604051615c53380380615c5383398101604081905261002f916101c4565b61003a600082610118565b506100657f7c6181838a71a779e445600d4c6ecbe16bacf2b3c5bda69c29fada66d1b645d182610118565b506100907fe61decff6e4a5c6b5a3d3cbd28f882e595173563b49353ce5f31dba2de7f05ee82610118565b506100bb7ffbd454f36a7e1a388bd6fc3ab10d434aa4578f811acbbcf33afb1c697486313c82610118565b506100e67fd1ae8bbdabd60d63e418b84f5ad6f9cba90092c9816d7724d85f0d4e4bea2c6082610118565b506101117fb717b2b458e4f190ac4e55e3aa1d4d28e207cea5e79511d5cfe0f23587abf2ff82610118565b50506101f4565b6000828152602081815260408083206001600160a01b038516845290915281205460ff166101ba576000838152602081815260408083206001600160a01b03861684529091529020805460ff191660011790556101723390565b6001600160a01b0316826001600160a01b0316847f2f8788117e7eff1d82e926ec794901d17c78024a50270940304540a733656f0d60405160405180910390a45060016101be565b5060005b92915050565b6000602082840312156101d657600080fd5b81516001600160a01b03811681146101ed57600080fd5b9392505050565b615a50806102036000396000f3fe608060405234801561001057600080fd5b506004361061021b5760003560e01c80638222bdb211610125578063b57eddf8116100ad578063ea701ea01161007c578063ea701ea014610500578063f01eb29a14610513578063f0bd87cc14610526578063f39439701461054d578063f99d54da1461057457600080fd5b8063b57eddf8146104b4578063d1104e69146104c7578063d547741f146104da578063e7903988146104ed57600080fd5b806398a9abad116100f457806398a9abad1461045f57806398ad064214610472578063a217fddf14610485578063a29508fc1461048d578063b54c2a28146103e457600080fd5b80638222bdb2146104045780638482d9621461041957806391d148541461042c578063931c8a901461043f57600080fd5b8063248a9ca3116101a8578063573c9bfa11610177578063573c9bfa1461038b5780635888cc9a146103ab5780635c4798e2146103be5780636caa0470146103d157806372c9379b146103e457600080fd5b8063248a9ca3146103225780632f2ff15d1461034557806336568abe146103585780634743c2cb1461036b57600080fd5b80630a64f5a6116101ef5780630a64f5a6146102905780630ec4a56b146102a35780630efe0de7146102c357806310370baa146102d65780632074177a146102e957600080fd5b8062bc3e0d1461022057806301ffc9a7146102355780630565dec11461025d578063097fc7a31461027d575b600080fd5b61023361022e3660046140c7565b61059b565b005b610248610243366004614330565b6109ed565b60405190151581526020015b60405180910390f35b61027061026b366004614361565b610a24565b60405161025491906143ed565b61023361028b36600461446b565b610cc7565b61024861029e3660046144e2565b611068565b6102b66102b1366004614361565b6110bb565b6040516102549190614549565b6102336102d13660046146b1565b611728565b6102336102e4366004614a0b565b6118e6565b6103146102f7366004614361565b805160208183018101805160088252928201919093012091525481565b604051908152602001610254565b610314610330366004614a68565b60009081526020819052604090206001015490565b610233610353366004614a81565b611b63565b610233610366366004614a81565b611b8e565b61037e610379366004614361565b611bc1565b6040516102549190614b53565b61039e610399366004614361565b611f0d565b6040516102549190614b66565b6102336103b9366004614cae565b6124e1565b6103146103cc366004614361565b612724565b6102486103df366004614361565b61274c565b6103f76103f2366004614361565b612777565b6040516102549190614dcb565b6103146000805160206159bb83398151915281565b6102336104273660046144e2565b612bf8565b61024861043a366004614a81565b612e70565b61045261044d366004614361565b612e99565b6040516102549190614eb4565b61023361046d366004614a0b565b6130bc565b61037e610480366004614361565b613327565b610314600081565b6103147fd1ae8bbdabd60d63e418b84f5ad6f9cba90092c9816d7724d85f0d4e4bea2c6081565b6102336104c2366004614f24565b613370565b6102336104d5366004615031565b6135e5565b6102336104e8366004614a81565b61390d565b6102486104fb366004614361565b613932565b61024861050e366004614361565b613944565b6102336105213660046150d1565b613956565b6103147ffbd454f36a7e1a388bd6fc3ab10d434aa4578f811acbbcf33afb1c697486313c81565b6103147f7c6181838a71a779e445600d4c6ecbe16bacf2b3c5bda69c29fada66d1b645d181565b6103147fb717b2b458e4f190ac4e55e3aa1d4d28e207cea5e79511d5cfe0f23587abf2ff81565b6000805160206159bb8339815191526105b381613c81565b8280519060200120826000015180519060200120146105ed5760405162461bcd60e51b81526004016105e49061527c565b60405180910390fd5b600c82610120015160405161060291906152a7565b9081526040519081900360200190205460ff16156106325760405162461bcd60e51b81526004016105e4906152c3565b600b8360405161064291906152a7565b9081526040519081900360200190205460ff166106c75760405162461bcd60e51b815260206004820152603a60248201527f426174636820494420646f6573206e6f742065786973742e204861727665737460448201527f206d75737420626520726567697374657265642066697273742e00000000000060648201526084016105e4565b6008836040516106d791906152a7565b90815260200160405180910390205460016106f29190615310565b60088460405161070291906152a7565b9081526020016040518091039020819055506001600c83610120015160405161072b91906152a7565b908152604051908190036020018120805492151560ff1990931692909217909155829060039061075c9086906152a7565b9081526040519081900360200190208151819061077990826153ab565b506020820151600182019061078e90826153ab565b50604082015160028201906107a390826153ab565b50606082015160038201556080820151600482015560a082015160058201906107cc90826153ab565b5060c082015160068201906107e190826153ab565b5060e082015160078201906107f690826153ab565b50610100820151600882019061080c90826153ab565b50610120820151600982019061082290826153ab565b50610140820151600a82019061083890826153ab565b50610160820151600b82019061084e90826153ab565b50610180820151600c82019061086490826153ab565b50905050604051806080016040528083610120015181526020018481526020016040518060400160405280600a81526020016970726f63657373696e6760b01b81525081526020016001151581525060018361012001516040516108c891906152a7565b908152604051908190036020019020815181906108e590826153ab565b50602082015160018201906108fa90826153ab565b506040820151600282019061090f90826153ab565b50606091909101516003909101805460ff191691151591909117905561012082015160405161093e91906152a7565b60405180910390206000805160206159db833981519152846040516109639190615469565b60405180910390a260008051602061599b8339815191528261012001518460405161098f9291906154a5565b60405180910390a1826040516109a591906152a7565b60405180910390206000805160206159fb8339815191526008856040516109cc91906152a7565b908152604051602091819003820181205481520160405180910390a2505050565b60006001600160e01b03198216637965db0b60e01b1480610a1e57506301ffc9a760e01b6001600160e01b03198316145b92915050565b610a4f6040518060800160405280606081526020016060815260200160608152602001606081525090565b600782604051610a5f91906152a7565b9081526020016040518091039020604051806080016040529081600082018054610a8890615323565b80601f0160208091040260200160405190810160405280929190818152602001828054610ab490615323565b8015610b015780601f10610ad657610100808354040283529160200191610b01565b820191906000526020600020905b815481529060010190602001808311610ae457829003601f168201915b50505050508152602001600182018054610b1a90615323565b80601f0160208091040260200160405190810160405280929190818152602001828054610b4690615323565b8015610b935780601f10610b6857610100808354040283529160200191610b93565b820191906000526020600020905b815481529060010190602001808311610b7657829003601f168201915b50505050508152602001600282018054610bac90615323565b80601f0160208091040260200160405190810160405280929190818152602001828054610bd890615323565b8015610c255780601f10610bfa57610100808354040283529160200191610c25565b820191906000526020600020905b815481529060010190602001808311610c0857829003601f168201915b50505050508152602001600382018054610c3e90615323565b80601f0160208091040260200160405190810160405280929190818152602001828054610c6a90615323565b8015610cb75780601f10610c8c57610100808354040283529160200191610cb7565b820191906000526020600020905b815481529060010190602001808311610c9a57829003601f168201915b5050505050815250509050919050565b6000805160206159bb833981519152610cdf81613c81565b600b85604051610cef91906152a7565b9081526040519081900360200190205460ff16610d465760405162461bcd60e51b81526020600482015260156024820152742130ba31b4103237b2b9903737ba1032bc34b9ba1760591b60448201526064016105e4565b600083118015610d5857506101f48311155b610d9a5760405162461bcd60e51b81526020600482015260136024820152720436f756e74206d75737420626520312d35303606c1b60448201526064016105e4565b6000600886604051610dac91906152a7565b90815260200160405180910390205490506000610dc842613c8e565b905060005b8581101561100d576000610de18285615310565b610dec906001615310565b90506000888a610dfb89613c8e565b610e0485613db0565b87604051602001610e199594939291906154f5565b6040516020818303038152906040529050600c81604051610e3a91906152a7565b9081526040519081900360200190205460ff1615610e6a5760405162461bcd60e51b81526004016105e4906152c3565b6001600c82604051610e7c91906152a7565b908152604051908190036020018120805492151560ff1990931692909217909155600890610eab908c906152a7565b9081526020016040518091039020546001610ec69190615310565b60088b604051610ed691906152a7565b90815260200160405180910390208190555060405180608001604052808281526020018b81526020016040518060400160405280600a81526020016970726f63657373696e6760b01b815250815260200160011515815250600182604051610f3e91906152a7565b90815260405190819003602001902081518190610f5b90826153ab565b5060208201516001820190610f7090826153ab565b5060408201516002820190610f8590826153ab565b50606091909101516003909101805460ff1916911515919091179055604051610faf9082906152a7565b60405180910390206000805160206159db8339815191528b604051610fd49190615469565b60405180910390a260008051602061599b833981519152818b604051610ffb9291906154a5565b60405180910390a15050600101610dcd565b508660405161101c91906152a7565b60405180910390206000805160206159fb83398151915260088960405161104391906152a7565b908152604051602091819003820181205481520160405180910390a250505050505050565b600080838360405160200161107e9291906155a3565b6040516020818303038152906040529050600d8160405161109f91906152a7565b9081526040519081900360200190205460ff1691505092915050565b611126604051806101a00160405280606081526020016060815260200160608152602001600081526020016000815260200160608152602001606081526020016060815260200160608152602001606081526020016060815260200160608152602001606081525090565b60038260405161113691906152a7565b9081526020016040518091039020604051806101a001604052908160008201805461116090615323565b80601f016020809104026020016040519081016040528092919081815260200182805461118c90615323565b80156111d95780601f106111ae576101008083540402835291602001916111d9565b820191906000526020600020905b8154815290600101906020018083116111bc57829003601f168201915b505050505081526020016001820180546111f290615323565b80601f016020809104026020016040519081016040528092919081815260200182805461121e90615323565b801561126b5780601f106112405761010080835404028352916020019161126b565b820191906000526020600020905b81548152906001019060200180831161124e57829003601f168201915b5050505050815260200160028201805461128490615323565b80601f01602080910402602001604051908101604052809291908181526020018280546112b090615323565b80156112fd5780601f106112d2576101008083540402835291602001916112fd565b820191906000526020600020905b8154815290600101906020018083116112e057829003601f168201915b50505050508152602001600382015481526020016004820154815260200160058201805461132a90615323565b80601f016020809104026020016040519081016040528092919081815260200182805461135690615323565b80156113a35780601f10611378576101008083540402835291602001916113a3565b820191906000526020600020905b81548152906001019060200180831161138657829003601f168201915b505050505081526020016006820180546113bc90615323565b80601f01602080910402602001604051908101604052809291908181526020018280546113e890615323565b80156114355780601f1061140a57610100808354040283529160200191611435565b820191906000526020600020905b81548152906001019060200180831161141857829003601f168201915b5050505050815260200160078201805461144e90615323565b80601f016020809104026020016040519081016040528092919081815260200182805461147a90615323565b80156114c75780601f1061149c576101008083540402835291602001916114c7565b820191906000526020600020905b8154815290600101906020018083116114aa57829003601f168201915b505050505081526020016008820180546114e090615323565b80601f016020809104026020016040519081016040528092919081815260200182805461150c90615323565b80156115595780601f1061152e57610100808354040283529160200191611559565b820191906000526020600020905b81548152906001019060200180831161153c57829003601f168201915b5050505050815260200160098201805461157290615323565b80601f016020809104026020016040519081016040528092919081815260200182805461159e90615323565b80156115eb5780601f106115c0576101008083540402835291602001916115eb565b820191906000526020600020905b8154815290600101906020018083116115ce57829003601f168201915b50505050508152602001600a8201805461160490615323565b80601f016020809104026020016040519081016040528092919081815260200182805461163090615323565b801561167d5780601f106116525761010080835404028352916020019161167d565b820191906000526020600020905b81548152906001019060200180831161166057829003601f168201915b50505050508152602001600b8201805461169690615323565b80601f01602080910402602001604051908101604052809291908181526020018280546116c290615323565b801561170f5780601f106116e45761010080835404028352916020019161170f565b820191906000526020600020905b8154815290600101906020018083116116f257829003601f168201915b50505050508152602001600c82018054610c3e90615323565b6000805160206159bb83398151915261174081613c81565b8280519060200120826000015180519060200120146117715760405162461bcd60e51b81526004016105e49061527c565b600b8360405161178191906152a7565b9081526040519081900360200190205460ff166117db5760405162461bcd60e51b81526020600482015260186024820152772130ba31b41024a2103237b2b9903737ba1032bc34b9ba1760411b60448201526064016105e4565b816004846040516117ec91906152a7565b9081526040519081900360200190208151819061180990826153ab565b506020820151600182019061181e90826153ab565b506040820151600282019061183390826153ab565b50606082015160038201556080820151600482015560a0820151600582019061185c90826153ab565b5060c0820151600682019061187190826153ab565b5060e0820151600782019061188690826153ab565b50610100820151600882019061189c90826153ab565b5061012082015160098201906118b290826153ab565b50610140820151600a8201906118c890826153ab565b50610160820151600b8201906118de90826153ab565b505050505050565b7ffbd454f36a7e1a388bd6fc3ab10d434aa4578f811acbbcf33afb1c697486313c61191081613c81565b8160058460405161192191906152a7565b9081526040519081900360200190208151819061193e90826153ab565b506020820151600182019061195390826153ab565b506040820151600282019061196890826153ab565b506060820151600382019061197d90826153ab565b506080820151600482019061199290826153ab565b5060a082015160058201906119a790826153ab565b509050506001836040516119bb91906152a7565b9081526040519081900360200190206003015460ff1615611b5e5760006001846040516119e891906152a7565b90815260200160405180910390206002018054611a0490615323565b80601f0160208091040260200160405190810160405280929190818152602001828054611a3090615323565b8015611a7d5780601f10611a5257610100808354040283529160200191611a7d565b820191906000526020600020905b815481529060010190602001808311611a6057829003601f168201915b505050505090506040518060400160405280600b81526020016a3234b9ba3934b13aba37b960a91b815250600185604051611ab891906152a7565b90815260200160405180910390206002019081611ad591906153ab565b5083604051611ae491906152a7565b60405180910390207fe16ad7ae21fa154ae9292dc4f86747ad006df43be1178bedaf3a896b66a59d3982604051611b1b91906155df565b60405180910390a27fe536b4209389c3023920e52cda66827a779e4352dd51552646cd17f76df41d408482604051611b5492919061561c565b60405180910390a1505b505050565b600082815260208190526040902060010154611b7e81613c81565b611b888383613e37565b50505050565b6001600160a01b0381163314611bb75760405163334bd91960e11b815260040160405180910390fd5b611b5e8282613ec9565b611bfa6040518060c001604052806060815260200160608152602001606081526020016060815260200160608152602001606081525090565b600582604051611c0a91906152a7565b90815260200160405180910390206040518060c0016040529081600082018054611c3390615323565b80601f0160208091040260200160405190810160405280929190818152602001828054611c5f90615323565b8015611cac5780601f10611c8157610100808354040283529160200191611cac565b820191906000526020600020905b815481529060010190602001808311611c8f57829003601f168201915b50505050508152602001600182018054611cc590615323565b80601f0160208091040260200160405190810160405280929190818152602001828054611cf190615323565b8015611d3e5780601f10611d1357610100808354040283529160200191611d3e565b820191906000526020600020905b815481529060010190602001808311611d2157829003601f168201915b50505050508152602001600282018054611d5790615323565b80601f0160208091040260200160405190810160405280929190818152602001828054611d8390615323565b8015611dd05780601f10611da557610100808354040283529160200191611dd0565b820191906000526020600020905b815481529060010190602001808311611db357829003601f168201915b50505050508152602001600382018054611de990615323565b80601f0160208091040260200160405190810160405280929190818152602001828054611e1590615323565b8015611e625780601f10611e3757610100808354040283529160200191611e62565b820191906000526020600020905b815481529060010190602001808311611e4557829003601f168201915b50505050508152602001600482018054611e7b90615323565b80601f0160208091040260200160405190810160405280929190818152602001828054611ea790615323565b8015611ef45780601f10611ec957610100808354040283529160200191611ef4565b820191906000526020600020905b815481529060010190602001808311611ed757829003601f168201915b50505050508152602001600582018054610c3e90615323565b611f716040518061018001604052806060815260200160608152602001606081526020016000815260200160008152602001606081526020016060815260200160608152602001606081526020016060815260200160608152602001606081525090565b600482604051611f8191906152a7565b908152602001604051809103902060405180610180016040529081600082018054611fab90615323565b80601f0160208091040260200160405190810160405280929190818152602001828054611fd790615323565b80156120245780601f10611ff957610100808354040283529160200191612024565b820191906000526020600020905b81548152906001019060200180831161200757829003601f168201915b5050505050815260200160018201805461203d90615323565b80601f016020809104026020016040519081016040528092919081815260200182805461206990615323565b80156120b65780601f1061208b576101008083540402835291602001916120b6565b820191906000526020600020905b81548152906001019060200180831161209957829003601f168201915b505050505081526020016002820180546120cf90615323565b80601f01602080910402602001604051908101604052809291908181526020018280546120fb90615323565b80156121485780601f1061211d57610100808354040283529160200191612148565b820191906000526020600020905b81548152906001019060200180831161212b57829003601f168201915b50505050508152602001600382015481526020016004820154815260200160058201805461217590615323565b80601f01602080910402602001604051908101604052809291908181526020018280546121a190615323565b80156121ee5780601f106121c3576101008083540402835291602001916121ee565b820191906000526020600020905b8154815290600101906020018083116121d157829003601f168201915b5050505050815260200160068201805461220790615323565b80601f016020809104026020016040519081016040528092919081815260200182805461223390615323565b80156122805780601f1061225557610100808354040283529160200191612280565b820191906000526020600020905b81548152906001019060200180831161226357829003601f168201915b5050505050815260200160078201805461229990615323565b80601f01602080910402602001604051908101604052809291908181526020018280546122c590615323565b80156123125780601f106122e757610100808354040283529160200191612312565b820191906000526020600020905b8154815290600101906020018083116122f557829003601f168201915b5050505050815260200160088201805461232b90615323565b80601f016020809104026020016040519081016040528092919081815260200182805461235790615323565b80156123a45780601f10612379576101008083540402835291602001916123a4565b820191906000526020600020905b81548152906001019060200180831161238757829003601f168201915b505050505081526020016009820180546123bd90615323565b80601f01602080910402602001604051908101604052809291908181526020018280546123e990615323565b80156124365780601f1061240b57610100808354040283529160200191612436565b820191906000526020600020905b81548152906001019060200180831161241957829003601f168201915b50505050508152602001600a8201805461244f90615323565b80601f016020809104026020016040519081016040528092919081815260200182805461247b90615323565b80156124c85780601f1061249d576101008083540402835291602001916124c8565b820191906000526020600020905b8154815290600101906020018083116124ab57829003601f168201915b50505050508152602001600b82018054610c3e90615323565b7fb717b2b458e4f190ac4e55e3aa1d4d28e207cea5e79511d5cfe0f23587abf2ff61250b81613c81565b8160078460405161251c91906152a7565b9081526040519081900360200190208151819061253990826153ab565b506020820151600182019061254e90826153ab565b506040820151600282019061256390826153ab565b506060820151600382019061257890826153ab565b5090505060018360405161258c91906152a7565b9081526040519081900360200190206003015460ff1615611b5e5760006001846040516125b991906152a7565b908152602001604051809103902060020180546125d590615323565b80601f016020809104026020016040519081016040528092919081815260200182805461260190615323565b801561264e5780601f106126235761010080835404028352916020019161264e565b820191906000526020600020905b81548152906001019060200180831161263157829003601f168201915b505050505090506040518060400160405280600a81526020016939b437b835b2b2b832b960b11b81525060018560405161268891906152a7565b908152602001604051809103902060020190816126a591906153ab565b50836040516126b491906152a7565b60405180910390207fe16ad7ae21fa154ae9292dc4f86747ad006df43be1178bedaf3a896b66a59d39826040516126eb919061566d565b60405180910390a27fe536b4209389c3023920e52cda66827a779e4352dd51552646cd17f76df41d408482604051611b549291906156a9565b600060088260405161273691906152a7565b9081526020016040518091039020549050919050565b6000600e8260405161275e91906152a7565b9081526040519081900360200190205460ff1692915050565b6127bf60405180610100016040528060608152602001606081526020016060815260200160608152602001606081526020016060815260200160608152602001600081525090565b6002826040516127cf91906152a7565b9081526020016040518091039020604051806101000160405290816000820180546127f990615323565b80601f016020809104026020016040519081016040528092919081815260200182805461282590615323565b80156128725780601f1061284757610100808354040283529160200191612872565b820191906000526020600020905b81548152906001019060200180831161285557829003601f168201915b5050505050815260200160018201805461288b90615323565b80601f01602080910402602001604051908101604052809291908181526020018280546128b790615323565b80156129045780601f106128d957610100808354040283529160200191612904565b820191906000526020600020905b8154815290600101906020018083116128e757829003601f168201915b5050505050815260200160028201805461291d90615323565b80601f016020809104026020016040519081016040528092919081815260200182805461294990615323565b80156129965780601f1061296b57610100808354040283529160200191612996565b820191906000526020600020905b81548152906001019060200180831161297957829003601f168201915b505050505081526020016003820180546129af90615323565b80601f01602080910402602001604051908101604052809291908181526020018280546129db90615323565b8015612a285780601f106129fd57610100808354040283529160200191612a28565b820191906000526020600020905b815481529060010190602001808311612a0b57829003601f168201915b50505050508152602001600482018054612a4190615323565b80601f0160208091040260200160405190810160405280929190818152602001828054612a6d90615323565b8015612aba5780601f10612a8f57610100808354040283529160200191612aba565b820191906000526020600020905b815481529060010190602001808311612a9d57829003601f168201915b50505050508152602001600582018054612ad390615323565b80601f0160208091040260200160405190810160405280929190818152602001828054612aff90615323565b8015612b4c5780601f10612b2157610100808354040283529160200191612b4c565b820191906000526020600020905b815481529060010190602001808311612b2f57829003601f168201915b50505050508152602001600682018054612b6590615323565b80601f0160208091040260200160405190810160405280929190818152602001828054612b9190615323565b8015612bde5780601f10612bb357610100808354040283529160200191612bde565b820191906000526020600020905b815481529060010190602001808311612bc157829003601f168201915b505050505081526020016007820154815250509050919050565b7fb717b2b458e4f190ac4e55e3aa1d4d28e207cea5e79511d5cfe0f23587abf2ff612c2281613c81565b600183604051612c3291906152a7565b9081526040519081900360200190206003015460ff16612c8c5760405162461bcd60e51b8152602060048201526015602482015274141858dad95d08191bd95cc81b9bdd08195e1a5cdd605a1b60448201526064016105e4565b604080518082018252600a81526939b437b835b2b2b832b960b11b602090910152517f8959c13dbd6a46647d1482a54b4be23463dbdc514352d0ec0181d3d928132d9d90600190612cde9086906152a7565b9081526020016040518091039020600201604051612cfc919061576b565b604051809103902014612d515760405162461bcd60e51b815260206004820152601e60248201527f5061636b6574206e6f742061742073686f706b6565706572207374616765000060448201526064016105e4565b600e83604051612d6191906152a7565b9081526040519081900360200190205460ff1615612db75760405162461bcd60e51b8152602060048201526013602482015272141858dad95d08185b1c9958591e481cdbdb19606a1b60448201526064016105e4565b6001600e84604051612dc991906152a7565b908152604051908190036020018120805492151560ff1990931692909217909155600190612df89085906152a7565b9081526020016040518091039020600101604051612e16919061576b565b604051809103902083604051612e2c91906152a7565b60405180910390207f8cc80f545be67e6356a88ce2005463aab40a69e44fc5ef5cf847d2d0606f761884604051612e639190615777565b60405180910390a3505050565b6000918252602082815260408084206001600160a01b0393909316845291905290205460ff1690565b612ec660405180608001604052806060815260200160608152602001606081526020016000151581525090565b600182604051612ed691906152a7565b9081526020016040518091039020604051806080016040529081600082018054612eff90615323565b80601f0160208091040260200160405190810160405280929190818152602001828054612f2b90615323565b8015612f785780601f10612f4d57610100808354040283529160200191612f78565b820191906000526020600020905b815481529060010190602001808311612f5b57829003601f168201915b50505050508152602001600182018054612f9190615323565b80601f0160208091040260200160405190810160405280929190818152602001828054612fbd90615323565b801561300a5780601f10612fdf5761010080835404028352916020019161300a565b820191906000526020600020905b815481529060010190602001808311612fed57829003601f168201915b5050505050815260200160028201805461302390615323565b80601f016020809104026020016040519081016040528092919081815260200182805461304f90615323565b801561309c5780601f106130715761010080835404028352916020019161309c565b820191906000526020600020905b81548152906001019060200180831161307f57829003601f168201915b50505091835250506003919091015460ff16151560209091015292915050565b7fd1ae8bbdabd60d63e418b84f5ad6f9cba90092c9816d7724d85f0d4e4bea2c606130e681613c81565b816006846040516130f791906152a7565b9081526040519081900360200190208151819061311490826153ab565b506020820151600182019061312990826153ab565b506040820151600282019061313e90826153ab565b506060820151600382019061315390826153ab565b506080820151600482019061316890826153ab565b5060a0820151600582019061317d90826153ab565b5090505060018360405161319191906152a7565b9081526040519081900360200190206003015460ff1615611b5e5760006001846040516131be91906152a7565b908152602001604051809103902060020180546131da90615323565b80601f016020809104026020016040519081016040528092919081815260200182805461320690615323565b80156132535780601f1061322857610100808354040283529160200191613253565b820191906000526020600020905b81548152906001019060200180831161323657829003601f168201915b505050505090506040518060400160405280600881526020016739bab8383634b2b960c11b81525060018560405161328b91906152a7565b908152602001604051809103902060020190816132a891906153ab565b50836040516132b791906152a7565b60405180910390207fe16ad7ae21fa154ae9292dc4f86747ad006df43be1178bedaf3a896b66a59d39826040516132ee919061578a565b60405180910390a27fe536b4209389c3023920e52cda66827a779e4352dd51552646cd17f76df41d408482604051611b549291906157c4565b6133606040518060c001604052806060815260200160608152602001606081526020016060815260200160608152602001606081525090565b600682604051611c0a91906152a7565b6000805160206159bb83398151915261338881613c81565b600c8360405161339891906152a7565b9081526040519081900360200190205460ff16156133c85760405162461bcd60e51b81526004016105e4906152c3565b600b82602001516040516133dc91906152a7565b9081526040519081900360200190205460ff166134365760405162461bcd60e51b81526020600482015260186024820152772130ba31b41024a2103237b2b9903737ba1032bc34b9ba1760411b60448201526064016105e4565b6001600c8460405161344891906152a7565b90815260405160209181900382018120805460ff19169315159390931790925583015160089161347891906152a7565b90815260200160405180910390205460016134939190615310565b600883602001516040516134a791906152a7565b908152602001604051809103902081905550816001846040516134ca91906152a7565b908152604051908190036020019020815181906134e790826153ab565b50602082015160018201906134fc90826153ab565b506040820151600282019061351190826153ab565b50606091909101516003909101805460ff1916911515919091179055815160405161353c91906152a7565b60405180910390206000805160206159db8339815191528360200151846040015160405161356b929190615812565b60405180910390a260008051602061599b8339815191528260000151836020015184604001516040516135a093929190615837565b60405180910390a181602001516040516135ba91906152a7565b60405180910390206000805160206159fb833981519152600884602001516040516109cc91906152a7565b6000805160206159bb8339815191526135fd81613c81565b600b8460405161360d91906152a7565b9081526040519081900360200190205460ff166136645760405162461bcd60e51b81526020600482015260156024820152742130ba31b4103237b2b9903737ba1032bc34b9ba1760591b60448201526064016105e4565b60005b828110156138af5760008484838181106136835761368361587a565b90506020028101906136959190615890565b8080601f01602080910402602001604051908101604052809392919081815260200183838082843760009201919091525050604051929350600c926136dd92508491506152a7565b9081526040519081900360200190205460ff161561370d5760405162461bcd60e51b81526004016105e4906152c3565b6001600c8260405161371f91906152a7565b908152604051908190036020018120805492151560ff199093169290921790915560089061374e9088906152a7565b90815260200160405180910390205460016137699190615310565b60088760405161377991906152a7565b90815260200160405180910390208190555060405180608001604052808281526020018781526020016040518060400160405280600a81526020016970726f63657373696e6760b01b8152508152602001600115158152506001826040516137e191906152a7565b908152604051908190036020019020815181906137fe90826153ab565b506020820151600182019061381390826153ab565b506040820151600282019061382890826153ab565b50606091909101516003909101805460ff19169115159190911790556040516138529082906152a7565b60405180910390206000805160206159db833981519152876040516138779190615469565b60405180910390a260008051602061599b833981519152818760405161389e9291906154a5565b60405180910390a150600101613667565b508115611b8857836040516138c491906152a7565b60405180910390206000805160206159fb8339815191526008866040516138eb91906152a7565b908152604051602091819003820181205481520160405180910390a250505050565b60008281526020819052604090206001015461392881613c81565b611b888383613ec9565b6000600b8260405161275e91906152a7565b6000600c8260405161275e91906152a7565b7f7c6181838a71a779e445600d4c6ecbe16bacf2b3c5bda69c29fada66d1b645d161398081613c81565b8280519060200120826040015180519060200120146139b15760405162461bcd60e51b81526004016105e49061527c565b81516040516000916139c79186906020016155a3565b6040516020818303038152906040529050600d816040516139e891906152a7565b9081526040519081900360200190205460ff1615613a585760405162461bcd60e51b815260206004820152602760248201527f426174636820494420616c72656164792065786973747320666f722074686973604482015266103330b936b2b960c91b60648201526084016105e4565b6001600a8460000151604051613a6e91906152a7565b908152604051908190036020018120805492151560ff1990931692909217909155600190600b90613aa09087906152a7565b908152604051908190036020018120805492151560ff19909316929092179091558351600191600991613ad2916152a7565b908152602001604051809103902085604051613aee91906152a7565b908152604051908190036020018120805492151560ff1990931692909217909155600190600d90613b209084906152a7565b908152604051908190036020018120805492151560ff19909316929092179091558390600290613b519087906152a7565b90815260405190819003602001902081518190613b6e90826153ab565b5060208201516001820190613b8390826153ab565b5060408201516002820190613b9890826153ab565b5060608201516003820190613bad90826153ab565b5060808201516004820190613bc290826153ab565b5060a08201516005820190613bd790826153ab565b5060c08201516006820190613bec90826153ab565b5060e0820151816007015590505083604051613c0891906152a7565b60405190819003812084519091613c1f91906152a7565b604051908190038120907ff43ae1e78f288625eef7def48266f3a4aed85e77fc10d2da3291bfb7e3ca2be690600090a382516040517f7f19b779b9e7f5829782df699000776f02575d943aa746bda0d7a3f27237fffc91611b54918790615812565b613c8b8133613f34565b50565b606081600003613cb55750506040805180820190915260018152600360fc1b602082015290565b8160005b8115613cdf5780613cc9816158dd565b9150613cd89050600a8361590c565b9150613cb9565b6000816001600160401b03811115613cf957613cf9613f71565b6040519080825280601f01601f191660200182016040528015613d23576020820181803683370190505b508593509050815b8315613da75760008111613d40576000613d4b565b613d4b600182615920565b90506000613d5a600a86615933565b613d65906030615310565b90508060f81b838381518110613d7d57613d7d61587a565b60200101906001600160f81b031916908160001a905350613d9f600a8661590c565b945050613d2b565b50949350505050565b606081600003613dd957505060408051808201909152600381526203030360ec1b602082015290565b6000613de483613c8e565b90506003815110613df55792915050565b8051600103613e265780604051602001613e0f9190615947565b604051602081830303815290604052915050919050565b80604051602001613e0f9190615971565b6000613e438383612e70565b613ec1576000838152602081815260408083206001600160a01b03861684529091529020805460ff19166001179055613e793390565b6001600160a01b0316826001600160a01b0316847f2f8788117e7eff1d82e926ec794901d17c78024a50270940304540a733656f0d60405160405180910390a4506001610a1e565b506000610a1e565b6000613ed58383612e70565b15613ec1576000838152602081815260408083206001600160a01b0386168085529252808320805460ff1916905551339286917ff6391f5c32d9c69d2a47ea670b442974b53935d1edc7fd64eb21e047a839171b9190a4506001610a1e565b613f3e8282612e70565b613f6d5760405163e2517d3f60e01b81526001600160a01b0382166004820152602481018390526044016105e4565b5050565b634e487b7160e01b600052604160045260246000fd5b6040516101a081016001600160401b0381118282101715613faa57613faa613f71565b60405290565b60405161018081016001600160401b0381118282101715613faa57613faa613f71565b60405160c081016001600160401b0381118282101715613faa57613faa613f71565b604051608081016001600160401b0381118282101715613faa57613faa613f71565b60405161010081016001600160401b0381118282101715613faa57613faa613f71565b600082601f83011261404b57600080fd5b81356001600160401b0381111561406457614064613f71565b604051601f8201601f19908116603f011681016001600160401b038111828210171561409257614092613f71565b6040528181528382016020018510156140aa57600080fd5b816020850160208301376000918101602001919091529392505050565b600080604083850312156140da57600080fd5b82356001600160401b038111156140f057600080fd5b6140fc8582860161403a565b92505060208301356001600160401b0381111561411857600080fd5b83016101a0818603121561412b57600080fd5b614133613f87565b81356001600160401b0381111561414957600080fd5b6141558782850161403a565b82525060208201356001600160401b0381111561417157600080fd5b61417d8782850161403a565b60208301525060408201356001600160401b0381111561419c57600080fd5b6141a88782850161403a565b604083015250606082810135908201526080808301359082015260a08201356001600160401b038111156141db57600080fd5b6141e78782850161403a565b60a08301525060c08201356001600160401b0381111561420657600080fd5b6142128782850161403a565b60c08301525060e08201356001600160401b0381111561423157600080fd5b61423d8782850161403a565b60e0830152506101008201356001600160401b0381111561425d57600080fd5b6142698782850161403a565b610100830152506101208201356001600160401b0381111561428a57600080fd5b6142968782850161403a565b610120830152506101408201356001600160401b038111156142b757600080fd5b6142c38782850161403a565b610140830152506101608201356001600160401b038111156142e457600080fd5b6142f08782850161403a565b610160830152506101808201356001600160401b0381111561431157600080fd5b61431d8782850161403a565b6101808301525080925050509250929050565b60006020828403121561434257600080fd5b81356001600160e01b03198116811461435a57600080fd5b9392505050565b60006020828403121561437357600080fd5b81356001600160401b0381111561438957600080fd5b6143958482850161403a565b949350505050565b60005b838110156143b85781810151838201526020016143a0565b50506000910152565b600081518084526143d981602086016020860161439d565b601f01601f19169290920160200192915050565b60208152600082516080602084015261440960a08401826143c1565b90506020840151601f1984830301604085015261442682826143c1565b9150506040840151601f1984830301606085015261444482826143c1565b9150506060840151601f1984830301608085015261446282826143c1565b95945050505050565b6000806000806080858703121561448157600080fd5b84356001600160401b0381111561449757600080fd5b6144a38782880161403a565b94505060208501356001600160401b038111156144bf57600080fd5b6144cb8782880161403a565b949794965050505060408301359260600135919050565b600080604083850312156144f557600080fd5b82356001600160401b0381111561450b57600080fd5b6145178582860161403a565b92505060208301356001600160401b0381111561453357600080fd5b61453f8582860161403a565b9150509250929050565b60208152600082516101a060208401526145676101c08401826143c1565b90506020840151601f1984830301604085015261458482826143c1565b9150506040840151601f198483030160608501526145a282826143c1565b91505060608401516080840152608084015160a084015260a0840151601f198483030160c08501526145d482826143c1565b91505060c0840151601f198483030160e08501526145f282826143c1565b91505060e0840151601f198483030161010085015261461182826143c1565b915050610100840151601f198483030161012085015261463182826143c1565b915050610120840151601f198483030161014085015261465182826143c1565b915050610140840151601f198483030161016085015261467182826143c1565b915050610160840151601f198483030161018085015261469182826143c1565b915050610180840151601f19848303016101a085015261446282826143c1565b600080604083850312156146c457600080fd5b82356001600160401b038111156146da57600080fd5b6146e68582860161403a565b92505060208301356001600160401b0381111561470257600080fd5b8301610180818603121561471557600080fd5b61471d613fb0565b81356001600160401b0381111561473357600080fd5b61473f8782850161403a565b82525060208201356001600160401b0381111561475b57600080fd5b6147678782850161403a565b60208301525060408201356001600160401b0381111561478657600080fd5b6147928782850161403a565b604083015250606082810135908201526080808301359082015260a08201356001600160401b038111156147c557600080fd5b6147d18782850161403a565b60a08301525060c08201356001600160401b038111156147f057600080fd5b6147fc8782850161403a565b60c08301525060e08201356001600160401b0381111561481b57600080fd5b6148278782850161403a565b60e0830152506101008201356001600160401b0381111561484757600080fd5b6148538782850161403a565b610100830152506101208201356001600160401b0381111561487457600080fd5b6148808782850161403a565b610120830152506101408201356001600160401b038111156148a157600080fd5b6148ad8782850161403a565b610140830152506101608201356001600160401b038111156148ce57600080fd5b6148da8782850161403a565b6101608301525080925050509250929050565b600060c082840312156148ff57600080fd5b614907613fd3565b905081356001600160401b0381111561491f57600080fd5b61492b8482850161403a565b82525060208201356001600160401b0381111561494757600080fd5b6149538482850161403a565b60208301525060408201356001600160401b0381111561497257600080fd5b61497e8482850161403a565b60408301525060608201356001600160401b0381111561499d57600080fd5b6149a98482850161403a565b60608301525060808201356001600160401b038111156149c857600080fd5b6149d48482850161403a565b60808301525060a08201356001600160401b038111156149f357600080fd5b6149ff8482850161403a565b60a08301525092915050565b60008060408385031215614a1e57600080fd5b82356001600160401b03811115614a3457600080fd5b614a408582860161403a565b92505060208301356001600160401b03811115614a5c57600080fd5b61453f858286016148ed565b600060208284031215614a7a57600080fd5b5035919050565b60008060408385031215614a9457600080fd5b8235915060208301356001600160a01b0381168114614ab257600080fd5b809150509250929050565b6000815160c08452614ad260c08501826143c1565b905060208301518482036020860152614aeb82826143c1565b91505060408301518482036040860152614b0582826143c1565b91505060608301518482036060860152614b1f82826143c1565b91505060808301518482036080860152614b3982826143c1565b91505060a083015184820360a086015261446282826143c1565b60208152600061435a6020830184614abd565b60208152600082516101806020840152614b846101a08401826143c1565b90506020840151601f19848303016040850152614ba182826143c1565b9150506040840151601f19848303016060850152614bbf82826143c1565b91505060608401516080840152608084015160a084015260a0840151601f198483030160c0850152614bf182826143c1565b91505060c0840151601f198483030160e0850152614c0f82826143c1565b91505060e0840151601f1984830301610100850152614c2e82826143c1565b915050610100840151601f1984830301610120850152614c4e82826143c1565b915050610120840151601f1984830301610140850152614c6e82826143c1565b915050610140840151601f1984830301610160850152614c8e82826143c1565b915050610160840151601f198483030161018085015261446282826143c1565b60008060408385031215614cc157600080fd5b82356001600160401b03811115614cd757600080fd5b614ce38582860161403a565b92505060208301356001600160401b03811115614cff57600080fd5b830160808186031215614d1157600080fd5b614d19613ff5565b81356001600160401b03811115614d2f57600080fd5b614d3b8782850161403a565b82525060208201356001600160401b03811115614d5757600080fd5b614d638782850161403a565b60208301525060408201356001600160401b03811115614d8257600080fd5b614d8e8782850161403a565b60408301525060608201356001600160401b03811115614dad57600080fd5b614db98782850161403a565b60608301525080925050509250929050565b60208152600082516101006020840152614de96101208401826143c1565b90506020840151601f19848303016040850152614e0682826143c1565b9150506040840151601f19848303016060850152614e2482826143c1565b9150506060840151601f19848303016080850152614e4282826143c1565b9150506080840151601f198483030160a0850152614e6082826143c1565b91505060a0840151601f198483030160c0850152614e7e82826143c1565b91505060c0840151601f198483030160e0850152614e9c82826143c1565b91505060e08401516101008401528091505092915050565b602081526000825160806020840152614ed060a08401826143c1565b90506020840151601f19848303016040850152614eed82826143c1565b9150506040840151601f19848303016060850152614f0b82826143c1565b9150506060840151151560808401528091505092915050565b60008060408385031215614f3757600080fd5b82356001600160401b03811115614f4d57600080fd5b614f598582860161403a565b92505060208301356001600160401b03811115614f7557600080fd5b830160808186031215614f8757600080fd5b614f8f613ff5565b81356001600160401b03811115614fa557600080fd5b614fb18782850161403a565b82525060208201356001600160401b03811115614fcd57600080fd5b614fd98782850161403a565b60208301525060408201356001600160401b03811115614ff857600080fd5b6150048782850161403a565b60408301525060608201359150811515821461501f57600080fd5b81606082015280925050509250929050565b60008060006040848603121561504657600080fd5b83356001600160401b0381111561505c57600080fd5b6150688682870161403a565b93505060208401356001600160401b0381111561508457600080fd5b8401601f8101861361509557600080fd5b80356001600160401b038111156150ab57600080fd5b8660208260051b84010111156150c057600080fd5b939660209190910195509293505050565b600080604083850312156150e457600080fd5b82356001600160401b038111156150fa57600080fd5b6151068582860161403a565b92505060208301356001600160401b0381111561512257600080fd5b8301610100818603121561513557600080fd5b61513d614017565b81356001600160401b0381111561515357600080fd5b61515f8782850161403a565b82525060208201356001600160401b0381111561517b57600080fd5b6151878782850161403a565b60208301525060408201356001600160401b038111156151a657600080fd5b6151b28782850161403a565b60408301525060608201356001600160401b038111156151d157600080fd5b6151dd8782850161403a565b60608301525060808201356001600160401b038111156151fc57600080fd5b6152088782850161403a565b60808301525060a08201356001600160401b0381111561522757600080fd5b6152338782850161403a565b60a08301525060c08201356001600160401b0381111561525257600080fd5b61525e8782850161403a565b60c08301525060e09182013591810191909152919491935090915050565b602080825260119082015270084c2e8c6d040928840dad2e6dac2e8c6d607b1b604082015260600190565b600082516152b981846020870161439d565b9190910192915050565b60208082526018908201527f5061636b657420494420616c7265616479206578697374730000000000000000604082015260600190565b634e487b7160e01b600052601160045260246000fd5b80820180821115610a1e57610a1e6152fa565b600181811c9082168061533757607f821691505b60208210810361535757634e487b7160e01b600052602260045260246000fd5b50919050565b601f821115611b5e57806000526020600020601f840160051c810160208510156153845750805b601f840160051c820191505b818110156153a45760008155600101615390565b5050505050565b81516001600160401b038111156153c4576153c4613f71565b6153d8816153d28454615323565b8461535d565b6020601f82116001811461540c57600083156153f45750848201515b600019600385901b1c1916600184901b1784556153a4565b600084815260208120601f198516915b8281101561543c578785015182556020948501946001909201910161541c565b508482101561545a5786840151600019600387901b60f8161c191681555b50505050600190811b01905550565b60408152600061547c60408301846143c1565b828103602084015261439581600a81526970726f63657373696e6760b01b602082015260400190565b6060815260006154b860608301856143c1565b82810360208401526154ca81856143c1565b9050828103604084015261446281600a81526970726f63657373696e6760b01b602082015260400190565b60008651615507818460208b0161439d565b602d60f81b9083019081528651615525816001840160208b0161439d565b602d60f81b600192909101918201528551615547816002840160208a0161439d565b60018183010191505061672d60f01b6001820152845161556e81600384016020890161439d565b600181830101915050602d60f81b6002820152835161559481600384016020880161439d565b01600301979650505050505050565b600083516155b581846020880161439d565b605f60f81b90830190815283516155d381600184016020880161439d565b01600101949350505050565b6040815260006155f260408301846143c1565b828103602084015261439581600b81526a3234b9ba3934b13aba37b960a91b602082015260400190565b60608152600061562f60608301856143c1565b828103602084015261564181856143c1565b9050828103604084015261446281600b81526a3234b9ba3934b13aba37b960a91b602082015260400190565b60408152600061568060408301846143c1565b828103602084015261439581600a81526939b437b835b2b2b832b960b11b602082015260400190565b6060815260006156bc60608301856143c1565b82810360208401526156ce81856143c1565b9050828103604084015261446281600a81526939b437b835b2b2b832b960b11b602082015260400190565b6000815461570681615323565b60018216801561571d576001811461573257615762565b60ff1983168652811515820286019350615762565b84600052602060002060005b8381101561575a5781548882015260019091019060200161573e565b505081860193505b50505092915050565b600061435a82846156f9565b60208152600061435a60208301846143c1565b60408152600061579d60408301846143c1565b828103602084015261439581600881526739bab8383634b2b960c11b602082015260400190565b6060815260006157d760608301856143c1565b82810360208401526157e981856143c1565b9050828103604084015261446281600881526739bab8383634b2b960c11b602082015260400190565b60408152600061582560408301856143c1565b828103602084015261446281856143c1565b60608152600061584a60608301866143c1565b828103602084015261585c81866143c1565b9050828103604084015261587081856143c1565b9695505050505050565b634e487b7160e01b600052603260045260246000fd5b6000808335601e198436030181126158a757600080fd5b8301803591506001600160401b038211156158c157600080fd5b6020019150368190038213156158d657600080fd5b9250929050565b6000600182016158ef576158ef6152fa565b5060010190565b634e487b7160e01b600052601260045260246000fd5b60008261591b5761591b6158f6565b500490565b81810381811115610a1e57610a1e6152fa565b600082615942576159426158f6565b500690565b61030360f41b81526000825161596481600285016020870161439d565b9190910160020192915050565b600360fc1b81526000825161598d81600185016020870161439d565b919091016001019291505056fe2b547ac2fb942a73231da07c77d1d1078ce0d1d89e58351e859c4190b6e75971e61decff6e4a5c6b5a3d3cbd28f882e595173563b49353ce5f31dba2de7f05ee21519163c0a8e059c8e23e0ab06f425fdc81bc5628279bfbac9f2440aec70bcc6512af60840c5f9ffc8b00f850b1b58fe0f13a3e76e33ce842efe6264a16e82da2646970667358221220aec3e1a91edaa93fabb7bb504736fa1f5509f7a9b682d2b9307623e70479b87364736f6c634300081c0033","opcodes":"PUSH1 0x80 PUSH1 0x40 MSTORE CALLVALUE DUP1 ISZERO PUSH2 0x10 JUMPI PUSH1 0x0 DUP1 REVERT JUMPDEST POP PUSH1 0x40 MLOAD PUSH2 0x5C53 CODESIZE SUB DUP1 PUSH2 0x5C53 DUP4 CODECOPY DUP2 ADD PUSH1 0x40 DUP2 SWAP1 MSTORE PUSH2 0x2F SWAP2 PUSH2 0x1C4 JUMP JUMPDEST PUSH2 0x3A PUSH1 0x0 DUP3 PUSH2 0x118 JUMP JUMPDEST POP PUSH2 0x65 PUSH32 0x7C6181838A71A779E445600D4C6ECBE16BACF2B3C5BDA69C29FADA66D1B645D1 DUP3 PUSH2 0x118 JUMP JUMPDEST POP PUSH2 0x90 PUSH32 0xE61DECFF6E4A5C6B5A3D3CBD28F882E595173563B49353CE5F31DBA2DE7F05EE DUP3 PUSH2 0x118 JUMP JUMPDEST POP PUSH2 0xBB PUSH32 0xFBD454F36A7E1A388BD6FC3AB10D434AA4578F811ACBBCF33AFB1C697486313C DUP3 PUSH2 0x118 JUMP JUMPDEST POP PUSH2 0xE6 PUSH32 0xD1AE8BBDABD60D63E418B84F5AD6F9CBA90092C9816D7724D85F0D4E4BEA2C60 DUP3 PUSH2 0x118 JUMP JUMPDEST POP PUSH2 0x111 PUSH32 0xB717B2B458E4F190AC4E55E3AA1D4D28E207CEA5E79511D5CFE0F23587ABF2FF DUP3 PUSH2 0x118 JUMP JUMPDEST POP POP PUSH2 0x1F4 JUMP JUMPDEST PUSH1 0x0 DUP3 DUP2 MSTORE PUSH1 0x20 DUP2 DUP2 MSTORE PUSH1 0x40 DUP1 DUP4 KECCAK256 PUSH1 0x1 PUSH1 0x1 PUSH1 0xA0 SHL SUB DUP6 AND DUP5 MSTORE SWAP1 SWAP2 MSTORE DUP2 KECCAK256 SLOAD PUSH1 0xFF AND PUSH2 0x1BA JUMPI PUSH1 0x0 DUP4 DUP2 MSTORE PUSH1 0x20 DUP2 DUP2 MSTORE PUSH1 0x40 DUP1 DUP4 KECCAK256 PUSH1 0x1 PUSH1 0x1 PUSH1 0xA0 SHL SUB DUP7 AND DUP5 MSTORE SWAP1 SWAP2 MSTORE SWAP1 KECCAK256 DUP1 SLOAD PUSH1 0xFF NOT AND PUSH1 0x1 OR SWAP1 SSTORE PUSH2 0x172 CALLER SWAP1 JUMP JUMPDEST PUSH1 0x1 PUSH1 0x1 PUSH1 0xA0 SHL SUB AND DUP3 PUSH1 0x1 PUSH1 0x1 PUSH1 0xA0 SHL SUB AND DUP5 PUSH32 0x2F8788117E7EFF1D82E926EC794901D17C78024A50270940304540A733656F0D PUSH1 0x40 MLOAD PUSH1 0x40 MLOAD DUP1 SWAP2 SUB SWAP1 LOG4 POP PUSH1 0x1 PUSH2 0x1BE JUMP JUMPDEST POP PUSH1 0x0 JUMPDEST SWAP3 SWAP2 POP POP JUMP JUMPDEST PUSH1 0x0 PUSH1 0x20 DUP3 DUP5 SUB SLT ISZERO PUSH2 0x1D6 JUMPI PUSH1 0x0 DUP1 REVERT JUMPDEST DUP2 MLOAD PUSH1 0x1 PUSH1 0x1 PUSH1 0xA0 SHL SUB DUP2 AND DUP2 EQ PUSH2 0x1ED JUMPI PUSH1 0x0 DUP1 REVERT JUMPDEST SWAP4 SWAP3 POP POP POP JUMP JUMPDEST PUSH2 0x5A50 DUP1 PUSH2 0x203 PUSH1 0x0 CODECOPY PUSH1 0x0 RETURN INVALID PUSH1 0x80 PUSH1 0x40 MSTORE CALLVALUE DUP1 ISZERO PUSH2 0x10 JUMPI PUSH1 0x0 DUP1 REVERT JUMPDEST POP PUSH1 0x4 CALLDATASIZE LT PUSH2 0x21B JUMPI PUSH1 0x0 CALLDATALOAD PUSH1 0xE0 SHR DUP1 PUSH4 0x8222BDB2 GT PUSH2 0x125 JUMPI DUP1 PUSH4 0xB57EDDF8 GT PUSH2 0xAD JUMPI DUP1 PUSH4 0xEA701EA0 GT PUSH2 0x7C JUMPI DUP1 PUSH4 0xEA701EA0 EQ PUSH2 0x500 JUMPI DUP1 PUSH4 0xF01EB29A EQ PUSH2 0x513 JUMPI DUP1 PUSH4 0xF0BD87CC EQ PUSH2 0x526 JUMPI DUP1 PUSH4 0xF3943970 EQ PUSH2 0x54D JUMPI DUP1 PUSH4 0xF99D54DA EQ PUSH2 0x574 JUMPI PUSH1 0x0 DUP1 REVERT JUMPDEST DUP1 PUSH4 0xB57EDDF8 EQ PUSH2 0x4B4 JUMPI DUP1 PUSH4 0xD1104E69 EQ PUSH2 0x4C7 JUMPI DUP1 PUSH4 0xD547741F EQ PUSH2 0x4DA JUMPI DUP1 PUSH4 0xE7903988 EQ PUSH2 0x4ED JUMPI PUSH1 0x0 DUP1 REVERT JUMPDEST DUP1 PUSH4 0x98A9ABAD GT PUSH2 0xF4 JUMPI DUP1 PUSH4 0x98A9ABAD EQ PUSH2 0x45F JUMPI DUP1 PUSH4 0x98AD0642 EQ PUSH2 0x472 JUMPI DUP1 PUSH4 0xA217FDDF EQ PUSH2 0x485 JUMPI DUP1 PUSH4 0xA29508FC EQ PUSH2 0x48D JUMPI DUP1 PUSH4 0xB54C2A28 EQ PUSH2 0x3E4 JUMPI PUSH1 0x0 DUP1 REVERT JUMPDEST DUP1 PUSH4 0x8222BDB2 EQ PUSH2 0x404 JUMPI DUP1 PUSH4 0x8482D962 EQ PUSH2 0x419 JUMPI DUP1 PUSH4 0x91D14854 EQ PUSH2 0x42C JUMPI DUP1 PUSH4 0x931C8A90 EQ PUSH2 0x43F JUMPI PUSH1 0x0 DUP1 REVERT JUMPDEST DUP1 PUSH4 0x248A9CA3 GT PUSH2 0x1A8 JUMPI DUP1 PUSH4 0x573C9BFA GT PUSH2 0x177 JUMPI DUP1 PUSH4 0x573C9BFA EQ PUSH2 0x38B JUMPI DUP1 PUSH4 0x5888CC9A EQ PUSH2 0x3AB JUMPI DUP1 PUSH4 0x5C4798E2 EQ PUSH2 0x3BE JUMPI DUP1 PUSH4 0x6CAA0470 EQ PUSH2 0x3D1 JUMPI DUP1 PUSH4 0x72C9379B EQ PUSH2 0x3E4 JUMPI PUSH1 0x0 DUP1 REVERT JUMPDEST DUP1 PUSH4 0x248A9CA3 EQ PUSH2 0x322 JUMPI DUP1 PUSH4 0x2F2FF15D EQ PUSH2 0x345 JUMPI DUP1 PUSH4 0x36568ABE EQ PUSH2 0x358 JUMPI DUP1 PUSH4 0x4743C2CB EQ PUSH2 0x36B JUMPI PUSH1 0x0 DUP1 REVERT JUMPDEST DUP1 PUSH4 0xA64F5A6 GT PUSH2 0x1EF JUMPI DUP1 PUSH4 0xA64F5A6 EQ PUSH2 0x290 JUMPI DUP1 PUSH4 0xEC4A56B EQ PUSH2 0x2A3 JUMPI DUP1 PUSH4 0xEFE0DE7 EQ PUSH2 0x2C3 JUMPI DUP1 PUSH4 0x10370BAA EQ PUSH2 0x2D6 JUMPI DUP1 PUSH4 0x2074177A EQ PUSH2 0x2E9 JUMPI PUSH1 0x0 DUP1 REVERT JUMPDEST DUP1 PUSH3 0xBC3E0D EQ PUSH2 0x220 JUMPI DUP1 PUSH4 0x1FFC9A7 EQ PUSH2 0x235 JUMPI DUP1 PUSH4 0x565DEC1 EQ PUSH2 0x25D JUMPI DUP1 PUSH4 0x97FC7A3 EQ PUSH2 0x27D JUMPI JUMPDEST PUSH1 0x0 DUP1 REVERT JUMPDEST PUSH2 0x233 PUSH2 0x22E CALLDATASIZE PUSH1 0x4 PUSH2 0x40C7 JUMP JUMPDEST PUSH2 0x59B JUMP JUMPDEST STOP JUMPDEST PUSH2 0x248 PUSH2 0x243 CALLDATASIZE PUSH1 0x4 PUSH2 0x4330 JUMP JUMPDEST PUSH2 0x9ED JUMP JUMPDEST PUSH1 0x40 MLOAD SWAP1 ISZERO ISZERO DUP2 MSTORE PUSH1 0x20 ADD JUMPDEST PUSH1 0x40 MLOAD DUP1 SWAP2 SUB SWAP1 RETURN JUMPDEST PUSH2 0x270 PUSH2 0x26B CALLDATASIZE PUSH1 0x4 PUSH2 0x4361 JUMP JUMPDEST PUSH2 0xA24 JUMP JUMPDEST PUSH1 0x40 MLOAD PUSH2 0x254 SWAP2 SWAP1 PUSH2 0x43ED JUMP JUMPDEST PUSH2 0x233 PUSH2 0x28B CALLDATASIZE PUSH1 0x4 PUSH2 0x446B JUMP JUMPDEST PUSH2 0xCC7 JUMP JUMPDEST PUSH2 0x248 PUSH2 0x29E CALLDATASIZE PUSH1 0x4 PUSH2 0x44E2 JUMP JUMPDEST PUSH2 0x1068 JUMP JUMPDEST PUSH2 0x2B6 PUSH2 0x2B1 CALLDATASIZE PUSH1 0x4 PUSH2 0x4361 JUMP JUMPDEST PUSH2 0x10BB JUMP JUMPDEST PUSH1 0x40 MLOAD PUSH2 0x254 SWAP2 SWAP1 PUSH2 0x4549 JUMP JUMPDEST PUSH2 0x233 PUSH2 0x2D1 CALLDATASIZE PUSH1 0x4 PUSH2 0x46B1 JUMP JUMPDEST PUSH2 0x1728 JUMP JUMPDEST PUSH2 0x233 PUSH2 0x2E4 CALLDATASIZE PUSH1 0x4 PUSH2 0x4A0B JUMP JUMPDEST PUSH2 0x18E6 JUMP JUMPDEST PUSH2 0x314 PUSH2 0x2F7 CALLDATASIZE PUSH1 0x4 PUSH2 0x4361 JUMP JUMPDEST DUP1 MLOAD PUSH1 0x20 DUP2 DUP4 ADD DUP2 ADD DUP1 MLOAD PUSH1 0x8 DUP3 MSTORE SWAP3 DUP3 ADD SWAP2 SWAP1 SWAP4 ADD KECCAK256 SWAP2 MSTORE SLOAD DUP2 JUMP JUMPDEST PUSH1 0x40 MLOAD SWAP1 DUP2 MSTORE PUSH1 0x20 ADD PUSH2 0x254 JUMP JUMPDEST PUSH2 0x314 PUSH2 0x330 CALLDATASIZE PUSH1 0x4 PUSH2 0x4A68 JUMP JUMPDEST PUSH1 0x0 SWAP1 DUP2 MSTORE PUSH1 0x20 DUP2 SWAP1 MSTORE PUSH1 0x40 SWAP1 KECCAK256 PUSH1 0x1 ADD SLOAD SWAP1 JUMP JUMPDEST PUSH2 0x233 PUSH2 0x353 CALLDATASIZE PUSH1 0x4 PUSH2 0x4A81 JUMP JUMPDEST PUSH2 0x1B63 JUMP JUMPDEST PUSH2 0x233 PUSH2 0x366 CALLDATASIZE PUSH1 0x4 PUSH2 0x4A81 JUMP JUMPDEST PUSH2 0x1B8E JUMP JUMPDEST PUSH2 0x37E PUSH2 0x379 CALLDATASIZE PUSH1 0x4 PUSH2 0x4361 JUMP JUMPDEST PUSH2 0x1BC1 JUMP JUMPDEST PUSH1 0x40 MLOAD PUSH2 0x254 SWAP2 SWAP1 PUSH2 0x4B53 JUMP JUMPDEST PUSH2 0x39E PUSH2 0x399 CALLDATASIZE PUSH1 0x4 PUSH2 0x4361 JUMP JUMPDEST PUSH2 0x1F0D JUMP JUMPDEST PUSH1 0x40 MLOAD PUSH2 0x254 SWAP2 SWAP1 PUSH2 0x4B66 JUMP JUMPDEST PUSH2 0x233 PUSH2 0x3B9 CALLDATASIZE PUSH1 0x4 PUSH2 0x4CAE JUMP JUMPDEST PUSH2 0x24E1 JUMP JUMPDEST PUSH2 0x314 PUSH2 0x3CC CALLDATASIZE PUSH1 0x4 PUSH2 0x4361 JUMP JUMPDEST PUSH2 0x2724 JUMP JUMPDEST PUSH2 0x248 PUSH2 0x3DF CALLDATASIZE PUSH1 0x4 PUSH2 0x4361 JUMP JUMPDEST PUSH2 0x274C JUMP JUMPDEST PUSH2 0x3F7 PUSH2 0x3F2 CALLDATASIZE PUSH1 0x4 PUSH2 0x4361 JUMP JUMPDEST PUSH2 0x2777 JUMP JUMPDEST PUSH1 0x40 MLOAD PUSH2 0x254 SWAP2 SWAP1 PUSH2 0x4DCB JUMP JUMPDEST PUSH2 0x314 PUSH1 0x0 DUP1 MLOAD PUSH1 0x20 PUSH2 0x59BB DUP4 CODECOPY DUP2 MLOAD SWAP2 MSTORE DUP2 JUMP JUMPDEST PUSH2 0x233 PUSH2 0x427 CALLDATASIZE PUSH1 0x4 PUSH2 0x44E2 JUMP JUMPDEST PUSH2 0x2BF8 JUMP JUMPDEST PUSH2 0x248 PUSH2 0x43A CALLDATASIZE PUSH1 0x4 PUSH2 0x4A81 JUMP JUMPDEST PUSH2 0x2E70 JUMP JUMPDEST PUSH2 0x452 PUSH2 0x44D CALLDATASIZE PUSH1 0x4 PUSH2 0x4361 JUMP JUMPDEST PUSH2 0x2E99 JUMP JUMPDEST PUSH1 0x40 MLOAD PUSH2 0x254 SWAP2 SWAP1 PUSH2 0x4EB4 JUMP JUMPDEST PUSH2 0x233 PUSH2 0x46D CALLDATASIZE PUSH1 0x4 PUSH2 0x4A0B JUMP JUMPDEST PUSH2 0x30BC JUMP JUMPDEST PUSH2 0x37E PUSH2 0x480 CALLDATASIZE PUSH1 0x4 PUSH2 0x4361 JUMP JUMPDEST PUSH2 0x3327 JUMP JUMPDEST PUSH2 0x314 PUSH1 0x0 DUP2 JUMP JUMPDEST PUSH2 0x314 PUSH32 0xD1AE8BBDABD60D63E418B84F5AD6F9CBA90092C9816D7724D85F0D4E4BEA2C60 DUP2 JUMP JUMPDEST PUSH2 0x233 PUSH2 0x4C2 CALLDATASIZE PUSH1 0x4 PUSH2 0x4F24 JUMP JUMPDEST PUSH2 0x3370 JUMP JUMPDEST PUSH2 0x233 PUSH2 0x4D5 CALLDATASIZE PUSH1 0x4 PUSH2 0x5031 JUMP JUMPDEST PUSH2 0x35E5 JUMP JUMPDEST PUSH2 0x233 PUSH2 0x4E8 CALLDATASIZE PUSH1 0x4 PUSH2 0x4A81 JUMP JUMPDEST PUSH2 0x390D JUMP JUMPDEST PUSH2 0x248 PUSH2 0x4FB CALLDATASIZE PUSH1 0x4 PUSH2 0x4361 JUMP JUMPDEST PUSH2 0x3932 JUMP JUMPDEST PUSH2 0x248 PUSH2 0x50E CALLDATASIZE PUSH1 0x4 PUSH2 0x4361 JUMP JUMPDEST PUSH2 0x3944 JUMP JUMPDEST PUSH2 0x233 PUSH2 0x521 CALLDATASIZE PUSH1 0x4 PUSH2 0x50D1 JUMP JUMPDEST PUSH2 0x3956 JUMP JUMPDEST PUSH2 0x314 PUSH32 0xFBD454F36A7E1A388BD6FC3AB10D434AA4578F811ACBBCF33AFB1C697486313C DUP2 JUMP JUMPDEST PUSH2 0x314 PUSH32 0x7C6181838A71A779E445600D4C6ECBE16BACF2B3C5BDA69C29FADA66D1B645D1 DUP2 JUMP JUMPDEST PUSH2 0x314 PUSH32 0xB717B2B458E4F190AC4E55E3AA1D4D28E207CEA5E79511D5CFE0F23587ABF2FF DUP2 JUMP JUMPDEST PUSH1 0x0 DUP1 MLOAD PUSH1 0x20 PUSH2 0x59BB DUP4 CODECOPY DUP2 MLOAD SWAP2 MSTORE PUSH2 0x5B3 DUP2 PUSH2 0x3C81 JUMP JUMPDEST DUP3 DUP1 MLOAD SWAP1 PUSH1 0x20 ADD KECCAK256 DUP3 PUSH1 0x0 ADD MLOAD DUP1 MLOAD SWAP1 PUSH1 0x20 ADD KECCAK256 EQ PUSH2 0x5ED JUMPI PUSH1 0x40 MLOAD PUSH3 0x461BCD PUSH1 0xE5 SHL DUP2 MSTORE PUSH1 0x4 ADD PUSH2 0x5E4 SWAP1 PUSH2 0x527C JUMP JUMPDEST PUSH1 0x40 MLOAD DUP1 SWAP2 SUB SWAP1 REVERT JUMPDEST PUSH1 0xC DUP3 PUSH2 0x120 ADD MLOAD PUSH1 0x40 MLOAD PUSH2 0x602 SWAP2 SWAP1 PUSH2 0x52A7 JUMP JUMPDEST SWAP1 DUP2 MSTORE PUSH1 0x40 MLOAD SWAP1 DUP2 SWAP1 SUB PUSH1 0x20 ADD SWAP1 KECCAK256 SLOAD PUSH1 0xFF AND ISZERO PUSH2 0x632 JUMPI PUSH1 0x40 MLOAD PUSH3 0x461BCD PUSH1 0xE5 SHL DUP2 MSTORE PUSH1 0x4 ADD PUSH2 0x5E4 SWAP1 PUSH2 0x52C3 JUMP JUMPDEST PUSH1 0xB DUP4 PUSH1 0x40 MLOAD PUSH2 0x642 SWAP2 SWAP1 PUSH2 0x52A7 JUMP JUMPDEST SWAP1 DUP2 MSTORE PUSH1 0x40 MLOAD SWAP1 DUP2 SWAP1 SUB PUSH1 0x20 ADD SWAP1 KECCAK256 SLOAD PUSH1 0xFF AND PUSH2 0x6C7 JUMPI PUSH1 0x40 MLOAD PUSH3 0x461BCD PUSH1 0xE5 SHL DUP2 MSTORE PUSH1 0x20 PUSH1 0x4 DUP3 ADD MSTORE PUSH1 0x3A PUSH1 0x24 DUP3 ADD MSTORE PUSH32 0x426174636820494420646F6573206E6F742065786973742E2048617276657374 PUSH1 0x44 DUP3 ADD MSTORE PUSH32 0x206D75737420626520726567697374657265642066697273742E000000000000 PUSH1 0x64 DUP3 ADD MSTORE PUSH1 0x84 ADD PUSH2 0x5E4 JUMP JUMPDEST PUSH1 0x8 DUP4 PUSH1 0x40 MLOAD PUSH2 0x6D7 SWAP2 SWAP1 PUSH2 0x52A7 JUMP JUMPDEST SWAP1 DUP2 MSTORE PUSH1 0x20 ADD PUSH1 0x40 MLOAD DUP1 SWAP2 SUB SWAP1 KECCAK256 SLOAD PUSH1 0x1 PUSH2 0x6F2 SWAP2 SWAP1 PUSH2 0x5310 JUMP JUMPDEST PUSH1 0x8 DUP5 PUSH1 0x40 MLOAD PUSH2 0x702 SWAP2 SWAP1 PUSH2 0x52A7 JUMP JUMPDEST SWAP1 DUP2 MSTORE PUSH1 0x20 ADD PUSH1 0x40 MLOAD DUP1 SWAP2 SUB SWAP1 KECCAK256 DUP2 SWAP1 SSTORE POP PUSH1 0x1 PUSH1 0xC DUP4 PUSH2 0x120 ADD MLOAD PUSH1 0x40 MLOAD PUSH2 0x72B SWAP2 SWAP1 PUSH2 0x52A7 JUMP JUMPDEST SWAP1 DUP2 MSTORE PUSH1 0x40 MLOAD SWAP1 DUP2 SWAP1 SUB PUSH1 0x20 ADD DUP2 KECCAK256 DUP1 SLOAD SWAP3 ISZERO ISZERO PUSH1 0xFF NOT SWAP1 SWAP4 AND SWAP3 SWAP1 SWAP3 OR SWAP1 SWAP2 SSTORE DUP3 SWAP1 PUSH1 0x3 SWAP1 PUSH2 0x75C SWAP1 DUP7 SWAP1 PUSH2 0x52A7 JUMP JUMPDEST SWAP1 DUP2 MSTORE PUSH1 0x40 MLOAD SWAP1 DUP2 SWAP1 SUB PUSH1 0x20 ADD SWAP1 KECCAK256 DUP2 MLOAD DUP2 SWAP1 PUSH2 0x779 SWAP1 DUP3 PUSH2 0x53AB JUMP JUMPDEST POP PUSH1 0x20 DUP3 ADD MLOAD PUSH1 0x1 DUP3 ADD SWAP1 PUSH2 0x78E SWAP1 DUP3 PUSH2 0x53AB JUMP JUMPDEST POP PUSH1 0x40 DUP3 ADD MLOAD PUSH1 0x2 DUP3 ADD SWAP1 PUSH2 0x7A3 SWAP1 DUP3 PUSH2 0x53AB JUMP JUMPDEST POP PUSH1 0x60 DUP3 ADD MLOAD PUSH1 0x3 DUP3 ADD SSTORE PUSH1 0x80 DUP3 ADD MLOAD PUSH1 0x4 DUP3 ADD SSTORE PUSH1 0xA0 DUP3 ADD MLOAD PUSH1 0x5 DUP3 ADD SWAP1 PUSH2 0x7CC SWAP1 DUP3 PUSH2 0x53AB JUMP JUMPDEST POP PUSH1 0xC0 DUP3 ADD MLOAD PUSH1 0x6 DUP3 ADD SWAP1 PUSH2 0x7E1 SWAP1 DUP3 PUSH2 0x53AB JUMP JUMPDEST POP PUSH1 0xE0 DUP3 ADD MLOAD PUSH1 0x7 DUP3 ADD SWAP1 PUSH2 0x7F6 SWAP1 DUP3 PUSH2 0x53AB JUMP JUMPDEST POP PUSH2 0x100 DUP3 ADD MLOAD PUSH1 0x8 DUP3 ADD SWAP1 PUSH2 0x80C SWAP1 DUP3 PUSH2 0x53AB JUMP JUMPDEST POP PUSH2 0x120 DUP3 ADD MLOAD PUSH1 0x9 DUP3 ADD SWAP1 PUSH2 0x822 SWAP1 DUP3 PUSH2 0x53AB JUMP JUMPDEST POP PUSH2 0x140 DUP3 ADD MLOAD PUSH1 0xA DUP3 ADD SWAP1 PUSH2 0x838 SWAP1 DUP3 PUSH2 0x53AB JUMP JUMPDEST POP PUSH2 0x160 DUP3 ADD MLOAD PUSH1 0xB DUP3 ADD SWAP1 PUSH2 0x84E SWAP1 DUP3 PUSH2 0x53AB JUMP JUMPDEST POP PUSH2 0x180 DUP3 ADD MLOAD PUSH1 0xC DUP3 ADD SWAP1 PUSH2 0x864 SWAP1 DUP3 PUSH2 0x53AB JUMP JUMPDEST POP SWAP1 POP POP PUSH1 0x40 MLOAD DUP1 PUSH1 0x80 ADD PUSH1 0x40 MSTORE DUP1 DUP4 PUSH2 0x120 ADD MLOAD DUP2 MSTORE PUSH1 0x20 ADD DUP5 DUP2 MSTORE PUSH1 0x20 ADD PUSH1 0x40 MLOAD DUP1 PUSH1 0x40 ADD PUSH1 0x40 MSTORE DUP1 PUSH1 0xA DUP2 MSTORE PUSH1 0x20 ADD PUSH10 0x70726F63657373696E67 PUSH1 0xB0 SHL DUP2 MSTORE POP DUP2 MSTORE PUSH1 0x20 ADD PUSH1 0x1 ISZERO ISZERO DUP2 MSTORE POP PUSH1 0x1 DUP4 PUSH2 0x120 ADD MLOAD PUSH1 0x40 MLOAD PUSH2 0x8C8 SWAP2 SWAP1 PUSH2 0x52A7 JUMP JUMPDEST SWAP1 DUP2 MSTORE PUSH1 0x40 MLOAD SWAP1 DUP2 SWAP1 SUB PUSH1 0x20 ADD SWAP1 KECCAK256 DUP2 MLOAD DUP2 SWAP1 PUSH2 0x8E5 SWAP1 DUP3 PUSH2 0x53AB JUMP JUMPDEST POP PUSH1 0x20 DUP3 ADD MLOAD PUSH1 0x1 DUP3 ADD SWAP1 PUSH2 0x8FA SWAP1 DUP3 PUSH2 0x53AB JUMP JUMPDEST POP PUSH1 0x40 DUP3 ADD MLOAD PUSH1 0x2 DUP3 ADD SWAP1 PUSH2 0x90F SWAP1 DUP3 PUSH2 0x53AB JUMP JUMPDEST POP PUSH1 0x60 SWAP2 SWAP1 SWAP2 ADD MLOAD PUSH1 0x3 SWAP1 SWAP2 ADD DUP1 SLOAD PUSH1 0xFF NOT AND SWAP2 ISZERO ISZERO SWAP2 SWAP1 SWAP2 OR SWAP1 SSTORE PUSH2 0x120 DUP3 ADD MLOAD PUSH1 0x40 MLOAD PUSH2 0x93E SWAP2 SWAP1 PUSH2 0x52A7 JUMP JUMPDEST PUSH1 0x40 MLOAD DUP1 SWAP2 SUB SWAP1 KECCAK256 PUSH1 0x0 DUP1 MLOAD PUSH1 0x20 PUSH2 0x59DB DUP4 CODECOPY DUP2 MLOAD SWAP2 MSTORE DUP5 PUSH1 0x40 MLOAD PUSH2 0x963 SWAP2 SWAP1 PUSH2 0x5469 JUMP JUMPDEST PUSH1 0x40 MLOAD DUP1 SWAP2 SUB SWAP1 LOG2 PUSH1 0x0 DUP1 MLOAD PUSH1 0x20 PUSH2 0x599B DUP4 CODECOPY DUP2 MLOAD SWAP2 MSTORE DUP3 PUSH2 0x120 ADD MLOAD DUP5 PUSH1 0x40 MLOAD PUSH2 0x98F SWAP3 SWAP2 SWAP1 PUSH2 0x54A5 JUMP JUMPDEST PUSH1 0x40 MLOAD DUP1 SWAP2 SUB SWAP1 LOG1 DUP3 PUSH1 0x40 MLOAD PUSH2 0x9A5 SWAP2 SWAP1 PUSH2 0x52A7 JUMP JUMPDEST PUSH1 0x40 MLOAD DUP1 SWAP2 SUB SWAP1 KECCAK256 PUSH1 0x0 DUP1 MLOAD PUSH1 0x20 PUSH2 0x59FB DUP4 CODECOPY DUP2 MLOAD SWAP2 MSTORE PUSH1 0x8 DUP6 PUSH1 0x40 MLOAD PUSH2 0x9CC SWAP2 SWAP1 PUSH2 0x52A7 JUMP JUMPDEST SWAP1 DUP2 MSTORE PUSH1 0x40 MLOAD PUSH1 0x20 SWAP2 DUP2 SWAP1 SUB DUP3 ADD DUP2 KECCAK256 SLOAD DUP2 MSTORE ADD PUSH1 0x40 MLOAD DUP1 SWAP2 SUB SWAP1 LOG2 POP POP POP JUMP JUMPDEST PUSH1 0x0 PUSH1 0x1 PUSH1 0x1 PUSH1 0xE0 SHL SUB NOT DUP3 AND PUSH4 0x7965DB0B PUSH1 0xE0 SHL EQ DUP1 PUSH2 0xA1E JUMPI POP PUSH4 0x1FFC9A7 PUSH1 0xE0 SHL PUSH1 0x1 PUSH1 0x1 PUSH1 0xE0 SHL SUB NOT DUP4 AND EQ JUMPDEST SWAP3 SWAP2 POP POP JUMP JUMPDEST PUSH2 0xA4F PUSH1 0x40 MLOAD DUP1 PUSH1 0x80 ADD PUSH1 0x40 MSTORE DUP1 PUSH1 0x60 DUP2 MSTORE PUSH1 0x20 ADD PUSH1 0x60 DUP2 MSTORE PUSH1 0x20 ADD PUSH1 0x60 DUP2 MSTORE PUSH1 0x20 ADD PUSH1 0x60 DUP2 MSTORE POP SWAP1 JUMP JUMPDEST PUSH1 0x7 DUP3 PUSH1 0x40 MLOAD PUSH2 0xA5F SWAP2 SWAP1 PUSH2 0x52A7 JUMP JUMPDEST SWAP1 DUP2 MSTORE PUSH1 0x20 ADD PUSH1 0x40 MLOAD DUP1 SWAP2 SUB SWAP1 KECCAK256 PUSH1 0x40 MLOAD DUP1 PUSH1 0x80 ADD PUSH1 0x40 MSTORE SWAP1 DUP2 PUSH1 0x0 DUP3 ADD DUP1 SLOAD PUSH2 0xA88 SWAP1 PUSH2 0x5323 JUMP JUMPDEST DUP1 PUSH1 0x1F ADD PUSH1 0x20 DUP1 SWAP2 DIV MUL PUSH1 0x20 ADD PUSH1 0x40 MLOAD SWAP1 DUP2 ADD PUSH1 0x40 MSTORE DUP1 SWAP3 SWAP2 SWAP1 DUP2 DUP2 MSTORE PUSH1 0x20 ADD DUP3 DUP1 SLOAD PUSH2 0xAB4 SWAP1 PUSH2 0x5323 JUMP JUMPDEST DUP1 ISZERO PUSH2 0xB01 JUMPI DUP1 PUSH1 0x1F LT PUSH2 0xAD6 JUMPI PUSH2 0x100 DUP1 DUP4 SLOAD DIV MUL DUP4 MSTORE SWAP2 PUSH1 0x20 ADD SWAP2 PUSH2 0xB01 JUMP JUMPDEST DUP3 ADD SWAP2 SWAP1 PUSH1 0x0 MSTORE PUSH1 0x20 PUSH1 0x0 KECCAK256 SWAP1 JUMPDEST DUP2 SLOAD DUP2 MSTORE SWAP1 PUSH1 0x1 ADD SWAP1 PUSH1 0x20 ADD DUP1 DUP4 GT PUSH2 0xAE4 JUMPI DUP3 SWAP1 SUB PUSH1 0x1F AND DUP3 ADD SWAP2 JUMPDEST POP POP POP POP POP DUP2 MSTORE PUSH1 0x20 ADD PUSH1 0x1 DUP3 ADD DUP1 SLOAD PUSH2 0xB1A SWAP1 PUSH2 0x5323 JUMP JUMPDEST DUP1 PUSH1 0x1F ADD PUSH1 0x20 DUP1 SWAP2 DIV MUL PUSH1 0x20 ADD PUSH1 0x40 MLOAD SWAP1 DUP2 ADD PUSH1 0x40 MSTORE DUP1 SWAP3 SWAP2 SWAP1 DUP2 DUP2 MSTORE PUSH1 0x20 ADD DUP3 DUP1 SLOAD PUSH2 0xB46 SWAP1 PUSH2 0x5323 JUMP JUMPDEST DUP1 ISZERO PUSH2 0xB93 JUMPI DUP1 PUSH1 0x1F LT PUSH2 0xB68 JUMPI PUSH2 0x100 DUP1 DUP4 SLOAD DIV MUL DUP4 MSTORE SWAP2 PUSH1 0x20 ADD SWAP2 PUSH2 0xB93 JUMP JUMPDEST DUP3 ADD SWAP2 SWAP1 PUSH1 0x0 MSTORE PUSH1 0x20 PUSH1 0x0 KECCAK256 SWAP1 JUMPDEST DUP2 SLOAD DUP2 MSTORE SWAP1 PUSH1 0x1 ADD SWAP1 PUSH1 0x20 ADD DUP1 DUP4 GT PUSH2 0xB76 JUMPI DUP3 SWAP1 SUB PUSH1 0x1F AND DUP3 ADD SWAP2 JUMPDEST POP POP POP POP POP DUP2 MSTORE PUSH1 0x20 ADD PUSH1 0x2 DUP3 ADD DUP1 SLOAD PUSH2 0xBAC SWAP1 PUSH2 0x5323 JUMP JUMPDEST DUP1 PUSH1 0x1F ADD PUSH1 0x20 DUP1 SWAP2 DIV MUL PUSH1 0x20 ADD PUSH1 0x40 MLOAD SWAP1 DUP2 ADD PUSH1 0x40 MSTORE DUP1 SWAP3 SWAP2 SWAP1 DUP2 DUP2 MSTORE PUSH1 0x20 ADD DUP3 DUP1 SLOAD PUSH2 0xBD8 SWAP1 PUSH2 0x5323 JUMP JUMPDEST DUP1 ISZERO PUSH2 0xC25 JUMPI DUP1 PUSH1 0x1F LT PUSH2 0xBFA JUMPI PUSH2 0x100 DUP1 DUP4 SLOAD DIV MUL DUP4 MSTORE SWAP2 PUSH1 0x20 ADD SWAP2 PUSH2 0xC25 JUMP JUMPDEST DUP3 ADD SWAP2 SWAP1 PUSH1 0x0 MSTORE PUSH1 0x20 PUSH1 0x0 KECCAK256 SWAP1 JUMPDEST DUP2 SLOAD DUP2 MSTORE SWAP1 PUSH1 0x1 ADD SWAP1 PUSH1 0x20 ADD DUP1 DUP4 GT PUSH2 0xC08 JUMPI DUP3 SWAP1 SUB PUSH1 0x1F AND DUP3 ADD SWAP2 JUMPDEST POP POP POP POP POP DUP2 MSTORE PUSH1 0x20 ADD PUSH1 0x3 DUP3 ADD DUP1 SLOAD PUSH2 0xC3E SWAP1 PUSH2 0x5323 JUMP JUMPDEST DUP1 PUSH1 0x1F ADD PUSH1 0x20 DUP1 SWAP2 DIV MUL PUSH1 0x20 ADD PUSH1 0x40 MLOAD SWAP1 DUP2 ADD PUSH1 0x40 MSTORE DUP1 SWAP3 SWAP2 SWAP1 DUP2 DUP2 MSTORE PUSH1 0x20 ADD DUP3 DUP1 SLOAD PUSH2 0xC6A SWAP1 PUSH2 0x5323 JUMP JUMPDEST DUP1 ISZERO PUSH2 0xCB7 JUMPI DUP1 PUSH1 0x1F LT PUSH2 0xC8C JUMPI PUSH2 0x100 DUP1 DUP4 SLOAD DIV MUL DUP4 MSTORE SWAP2 PUSH1 0x20 ADD SWAP2 PUSH2 0xCB7 JUMP JUMPDEST DUP3 ADD SWAP2 SWAP1 PUSH1 0x0 MSTORE PUSH1 0x20 PUSH1 0x0 KECCAK256 SWAP1 JUMPDEST DUP2 SLOAD DUP2 MSTORE SWAP1 PUSH1 0x1 ADD SWAP1 PUSH1 0x20 ADD DUP1 DUP4 GT PUSH2 0xC9A JUMPI DUP3 SWAP1 SUB PUSH1 0x1F AND DUP3 ADD SWAP2 JUMPDEST POP POP POP POP POP DUP2 MSTORE POP POP SWAP1 POP SWAP2 SWAP1 POP JUMP JUMPDEST PUSH1 0x0 DUP1 MLOAD PUSH1 0x20 PUSH2 0x59BB DUP4 CODECOPY DUP2 MLOAD SWAP2 MSTORE PUSH2 0xCDF DUP2 PUSH2 0x3C81 JUMP JUMPDEST PUSH1 0xB DUP6 PUSH1 0x40 MLOAD PUSH2 0xCEF SWAP2 SWAP1 PUSH2 0x52A7 JUMP JUMPDEST SWAP1 DUP2 MSTORE PUSH1 0x40 MLOAD SWAP1 DUP2 SWAP1 SUB PUSH1 0x20 ADD SWAP1 KECCAK256 SLOAD PUSH1 0xFF AND PUSH2 0xD46 JUMPI PUSH1 0x40 MLOAD PUSH3 0x461BCD PUSH1 0xE5 SHL DUP2 MSTORE PUSH1 0x20 PUSH1 0x4 DUP3 ADD MSTORE PUSH1 0x15 PUSH1 0x24 DUP3 ADD MSTORE PUSH21 0x2130BA31B4103237B2B9903737BA1032BC34B9BA17 PUSH1 0x59 SHL PUSH1 0x44 DUP3 ADD MSTORE PUSH1 0x64 ADD PUSH2 0x5E4 JUMP JUMPDEST PUSH1 0x0 DUP4 GT DUP1 ISZERO PUSH2 0xD58 JUMPI POP PUSH2 0x1F4 DUP4 GT ISZERO JUMPDEST PUSH2 0xD9A JUMPI PUSH1 0x40 MLOAD PUSH3 0x461BCD PUSH1 0xE5 SHL DUP2 MSTORE PUSH1 0x20 PUSH1 0x4 DUP3 ADD MSTORE PUSH1 0x13 PUSH1 0x24 DUP3 ADD MSTORE PUSH19 0x436F756E74206D75737420626520312D35303 PUSH1 0x6C SHL PUSH1 0x44 DUP3 ADD MSTORE PUSH1 0x64 ADD PUSH2 0x5E4 JUMP JUMPDEST PUSH1 0x0 PUSH1 0x8 DUP7 PUSH1 0x40 MLOAD PUSH2 0xDAC SWAP2 SWAP1 PUSH2 0x52A7 JUMP JUMPDEST SWAP1 DUP2 MSTORE PUSH1 0x20 ADD PUSH1 0x40 MLOAD DUP1 SWAP2 SUB SWAP1 KECCAK256 SLOAD SWAP1 POP PUSH1 0x0 PUSH2 0xDC8 TIMESTAMP PUSH2 0x3C8E JUMP JUMPDEST SWAP1 POP PUSH1 0x0 JUMPDEST DUP6 DUP2 LT ISZERO PUSH2 0x100D JUMPI PUSH1 0x0 PUSH2 0xDE1 DUP3 DUP6 PUSH2 0x5310 JUMP JUMPDEST PUSH2 0xDEC SWAP1 PUSH1 0x1 PUSH2 0x5310 JUMP JUMPDEST SWAP1 POP PUSH1 0x0 DUP9 DUP11 PUSH2 0xDFB DUP10 PUSH2 0x3C8E JUMP JUMPDEST PUSH2 0xE04 DUP6 PUSH2 0x3DB0 JUMP JUMPDEST DUP8 PUSH1 0x40 MLOAD PUSH1 0x20 ADD PUSH2 0xE19 SWAP6 SWAP5 SWAP4 SWAP3 SWAP2 SWAP1 PUSH2 0x54F5 JUMP JUMPDEST PUSH1 0x40 MLOAD PUSH1 0x20 DUP2 DUP4 SUB SUB DUP2 MSTORE SWAP1 PUSH1 0x40 MSTORE SWAP1 POP PUSH1 0xC DUP2 PUSH1 0x40 MLOAD PUSH2 0xE3A SWAP2 SWAP1 PUSH2 0x52A7 JUMP JUMPDEST SWAP1 DUP2 MSTORE PUSH1 0x40 MLOAD SWAP1 DUP2 SWAP1 SUB PUSH1 0x20 ADD SWAP1 KECCAK256 SLOAD PUSH1 0xFF AND ISZERO PUSH2 0xE6A JUMPI PUSH1 0x40 MLOAD PUSH3 0x461BCD PUSH1 0xE5 SHL DUP2 MSTORE PUSH1 0x4 ADD PUSH2 0x5E4 SWAP1 PUSH2 0x52C3 JUMP JUMPDEST PUSH1 0x1 PUSH1 0xC DUP3 PUSH1 0x40 MLOAD PUSH2 0xE7C SWAP2 SWAP1 PUSH2 0x52A7 JUMP JUMPDEST SWAP1 DUP2 MSTORE PUSH1 0x40 MLOAD SWAP1 DUP2 SWAP1 SUB PUSH1 0x20 ADD DUP2 KECCAK256 DUP1 SLOAD SWAP3 ISZERO ISZERO PUSH1 0xFF NOT SWAP1 SWAP4 AND SWAP3 SWAP1 SWAP3 OR SWAP1 SWAP2 SSTORE PUSH1 0x8 SWAP1 PUSH2 0xEAB SWAP1 DUP13 SWAP1 PUSH2 0x52A7 JUMP JUMPDEST SWAP1 DUP2 MSTORE PUSH1 0x20 ADD PUSH1 0x40 MLOAD DUP1 SWAP2 SUB SWAP1 KECCAK256 SLOAD PUSH1 0x1 PUSH2 0xEC6 SWAP2 SWAP1 PUSH2 0x5310 JUMP JUMPDEST PUSH1 0x8 DUP12 PUSH1 0x40 MLOAD PUSH2 0xED6 SWAP2 SWAP1 PUSH2 0x52A7 JUMP JUMPDEST SWAP1 DUP2 MSTORE PUSH1 0x20 ADD PUSH1 0x40 MLOAD DUP1 SWAP2 SUB SWAP1 KECCAK256 DUP2 SWAP1 SSTORE POP PUSH1 0x40 MLOAD DUP1 PUSH1 0x80 ADD PUSH1 0x40 MSTORE DUP1 DUP3 DUP2 MSTORE PUSH1 0x20 ADD DUP12 DUP2 MSTORE PUSH1 0x20 ADD PUSH1 0x40 MLOAD DUP1 PUSH1 0x40 ADD PUSH1 0x40 MSTORE DUP1 PUSH1 0xA DUP2 MSTORE PUSH1 0x20 ADD PUSH10 0x70726F63657373696E67 PUSH1 0xB0 SHL DUP2 MSTORE POP DUP2 MSTORE PUSH1 0x20 ADD PUSH1 0x1 ISZERO ISZERO DUP2 MSTORE POP PUSH1 0x1 DUP3 PUSH1 0x40 MLOAD PUSH2 0xF3E SWAP2 SWAP1 PUSH2 0x52A7 JUMP JUMPDEST SWAP1 DUP2 MSTORE PUSH1 0x40 MLOAD SWAP1 DUP2 SWAP1 SUB PUSH1 0x20 ADD SWAP1 KECCAK256 DUP2 MLOAD DUP2 SWAP1 PUSH2 0xF5B SWAP1 DUP3 PUSH2 0x53AB JUMP JUMPDEST POP PUSH1 0x20 DUP3 ADD MLOAD PUSH1 0x1 DUP3 ADD SWAP1 PUSH2 0xF70 SWAP1 DUP3 PUSH2 0x53AB JUMP JUMPDEST POP PUSH1 0x40 DUP3 ADD MLOAD PUSH1 0x2 DUP3 ADD SWAP1 PUSH2 0xF85 SWAP1 DUP3 PUSH2 0x53AB JUMP JUMPDEST POP PUSH1 0x60 SWAP2 SWAP1 SWAP2 ADD MLOAD PUSH1 0x3 SWAP1 SWAP2 ADD DUP1 SLOAD PUSH1 0xFF NOT AND SWAP2 ISZERO ISZERO SWAP2 SWAP1 SWAP2 OR SWAP1 SSTORE PUSH1 0x40 MLOAD PUSH2 0xFAF SWAP1 DUP3 SWAP1 PUSH2 0x52A7 JUMP JUMPDEST PUSH1 0x40 MLOAD DUP1 SWAP2 SUB SWAP1 KECCAK256 PUSH1 0x0 DUP1 MLOAD PUSH1 0x20 PUSH2 0x59DB DUP4 CODECOPY DUP2 MLOAD SWAP2 MSTORE DUP12 PUSH1 0x40 MLOAD PUSH2 0xFD4 SWAP2 SWAP1 PUSH2 0x5469 JUMP JUMPDEST PUSH1 0x40 MLOAD DUP1 SWAP2 SUB SWAP1 LOG2 PUSH1 0x0 DUP1 MLOAD PUSH1 0x20 PUSH2 0x599B DUP4 CODECOPY DUP2 MLOAD SWAP2 MSTORE DUP2 DUP12 PUSH1 0x40 MLOAD PUSH2 0xFFB SWAP3 SWAP2 SWAP1 PUSH2 0x54A5 JUMP JUMPDEST PUSH1 0x40 MLOAD DUP1 SWAP2 SUB SWAP1 LOG1 POP POP PUSH1 0x1 ADD PUSH2 0xDCD JUMP JUMPDEST POP DUP7 PUSH1 0x40 MLOAD PUSH2 0x101C SWAP2 SWAP1 PUSH2 0x52A7 JUMP JUMPDEST PUSH1 0x40 MLOAD DUP1 SWAP2 SUB SWAP1 KECCAK256 PUSH1 0x0 DUP1 MLOAD PUSH1 0x20 PUSH2 0x59FB DUP4 CODECOPY DUP2 MLOAD SWAP2 MSTORE PUSH1 0x8 DUP10 PUSH1 0x40 MLOAD PUSH2 0x1043 SWAP2 SWAP1 PUSH2 0x52A7 JUMP JUMPDEST SWAP1 DUP2 MSTORE PUSH1 0x40 MLOAD PUSH1 0x20 SWAP2 DUP2 SWAP1 SUB DUP3 ADD DUP2 KECCAK256 SLOAD DUP2 MSTORE ADD PUSH1 0x40 MLOAD DUP1 SWAP2 SUB SWAP1 LOG2 POP POP POP POP POP POP POP JUMP JUMPDEST PUSH1 0x0 DUP1 DUP4 DUP4 PUSH1 0x40 MLOAD PUSH1 0x20 ADD PUSH2 0x107E SWAP3 SWAP2 SWAP1 PUSH2 0x55A3 JUMP JUMPDEST PUSH1 0x40 MLOAD PUSH1 0x20 DUP2 DUP4 SUB SUB DUP2 MSTORE SWAP1 PUSH1 0x40 MSTORE SWAP1 POP PUSH1 0xD DUP2 PUSH1 0x40 MLOAD PUSH2 0x109F SWAP2 SWAP1 PUSH2 0x52A7 JUMP JUMPDEST SWAP1 DUP2 MSTORE PUSH1 0x40 MLOAD SWAP1 DUP2 SWAP1 SUB PUSH1 0x20 ADD SWAP1 KECCAK256 SLOAD PUSH1 0xFF AND SWAP2 POP POP SWAP3 SWAP2 POP POP JUMP JUMPDEST PUSH2 0x1126 PUSH1 0x40 MLOAD DUP1 PUSH2 0x1A0 ADD PUSH1 0x40 MSTORE DUP1 PUSH1 0x60 DUP2 MSTORE PUSH1 0x20 ADD PUSH1 0x60 DUP2 MSTORE PUSH1 0x20 ADD PUSH1 0x60 DUP2 MSTORE PUSH1 0x20 ADD PUSH1 0x0 DUP2 MSTORE PUSH1 0x20 ADD PUSH1 0x0 DUP2 MSTORE PUSH1 0x20 ADD PUSH1 0x60 DUP2 MSTORE PUSH1 0x20 ADD PUSH1 0x60 DUP2 MSTORE PUSH1 0x20 ADD PUSH1 0x60 DUP2 MSTORE PUSH1 0x20 ADD PUSH1 0x60 DUP2 MSTORE PUSH1 0x20 ADD PUSH1 0x60 DUP2 MSTORE PUSH1 0x20 ADD PUSH1 0x60 DUP2 MSTORE PUSH1 0x20 ADD PUSH1 0x60 DUP2 MSTORE PUSH1 0x20 ADD PUSH1 0x60 DUP2 MSTORE POP SWAP1 JUMP JUMPDEST PUSH1 0x3 DUP3 PUSH1 0x40 MLOAD PUSH2 0x1136 SWAP2 SWAP1 PUSH2 0x52A7 JUMP JUMPDEST SWAP1 DUP2 MSTORE PUSH1 0x20 ADD PUSH1 0x40 MLOAD DUP1 SWAP2 SUB SWAP1 KECCAK256 PUSH1 0x40 MLOAD DUP1 PUSH2 0x1A0 ADD PUSH1 0x40 MSTORE SWAP1 DUP2 PUSH1 0x0 DUP3 ADD DUP1 SLOAD PUSH2 0x1160 SWAP1 PUSH2 0x5323 JUMP JUMPDEST DUP1 PUSH1 0x1F ADD PUSH1 0x20 DUP1 SWAP2 DIV MUL PUSH1 0x20 ADD PUSH1 0x40 MLOAD SWAP1 DUP2 ADD PUSH1 0x40 MSTORE DUP1 SWAP3 SWAP2 SWAP1 DUP2 DUP2 MSTORE PUSH1 0x20 ADD DUP3 DUP1 SLOAD PUSH2 0x118C SWAP1 PUSH2 0x5323 JUMP JUMPDEST DUP1 ISZERO PUSH2 0x11D9 JUMPI DUP1 PUSH1 0x1F LT PUSH2 0x11AE JUMPI PUSH2 0x100 DUP1 DUP4 SLOAD DIV MUL DUP4 MSTORE SWAP2 PUSH1 0x20 ADD SWAP2 PUSH2 0x11D9 JUMP JUMPDEST DUP3 ADD SWAP2 SWAP1 PUSH1 0x0 MSTORE PUSH1 0x20 PUSH1 0x0 KECCAK256 SWAP1 JUMPDEST DUP2 SLOAD DUP2 MSTORE SWAP1 PUSH1 0x1 ADD SWAP1 PUSH1 0x20 ADD DUP1 DUP4 GT PUSH2 0x11BC JUMPI DUP3 SWAP1 SUB PUSH1 0x1F AND DUP3 ADD SWAP2 JUMPDEST POP POP POP POP POP DUP2 MSTORE PUSH1 0x20 ADD PUSH1 0x1 DUP3 ADD DUP1 SLOAD PUSH2 0x11F2 SWAP1 PUSH2 0x5323 JUMP JUMPDEST DUP1 PUSH1 0x1F ADD PUSH1 0x20 DUP1 SWAP2 DIV MUL PUSH1 0x20 ADD PUSH1 0x40 MLOAD SWAP1 DUP2 ADD PUSH1 0x40 MSTORE DUP1 SWAP3 SWAP2 SWAP1 DUP2 DUP2 MSTORE PUSH1 0x20 ADD DUP3 DUP1 SLOAD PUSH2 0x121E SWAP1 PUSH2 0x5323 JUMP JUMPDEST DUP1 ISZERO PUSH2 0x126B JUMPI DUP1 PUSH1 0x1F LT PUSH2 0x1240 JUMPI PUSH2 0x100 DUP1 DUP4 SLOAD DIV MUL DUP4 MSTORE SWAP2 PUSH1 0x20 ADD SWAP2 PUSH2 0x126B JUMP JUMPDEST DUP3 ADD SWAP2 SWAP1 PUSH1 0x0 MSTORE PUSH1 0x20 PUSH1 0x0 KECCAK256 SWAP1 JUMPDEST DUP2 SLOAD DUP2 MSTORE SWAP1 PUSH1 0x1 ADD SWAP1 PUSH1 0x20 ADD DUP1 DUP4 GT PUSH2 0x124E JUMPI DUP3 SWAP1 SUB PUSH1 0x1F AND DUP3 ADD SWAP2 JUMPDEST POP POP POP POP POP DUP2 MSTORE PUSH1 0x20 ADD PUSH1 0x2 DUP3 ADD DUP1 SLOAD PUSH2 0x1284 SWAP1 PUSH2 0x5323 JUMP JUMPDEST DUP1 PUSH1 0x1F ADD PUSH1 0x20 DUP1 SWAP2 DIV MUL PUSH1 0x20 ADD PUSH1 0x40 MLOAD SWAP1 DUP2 ADD PUSH1 0x40 MSTORE DUP1 SWAP3 SWAP2 SWAP1 DUP2 DUP2 MSTORE PUSH1 0x20 ADD DUP3 DUP1 SLOAD PUSH2 0x12B0 SWAP1 PUSH2 0x5323 JUMP JUMPDEST DUP1 ISZERO PUSH2 0x12FD JUMPI DUP1 PUSH1 0x1F LT PUSH2 0x12D2 JUMPI PUSH2 0x100 DUP1 DUP4 SLOAD DIV MUL DUP4 MSTORE SWAP2 PUSH1 0x20 ADD SWAP2 PUSH2 0x12FD JUMP JUMPDEST DUP3 ADD SWAP2 SWAP1 PUSH1 0x0 MSTORE PUSH1 0x20 PUSH1 0x0 KECCAK256 SWAP1 JUMPDEST DUP2 SLOAD DUP2 MSTORE SWAP1 PUSH1 0x1 ADD SWAP1 PUSH1 0x20 ADD DUP1 DUP4 GT PUSH2 0x12E0 JUMPI DUP3 SWAP1 SUB PUSH1 0x1F AND DUP3 ADD SWAP2 JUMPDEST POP POP POP POP POP DUP2 MSTORE PUSH1 0x20 ADD PUSH1 0x3 DUP3 ADD SLOAD DUP2 MSTORE PUSH1 0x20 ADD PUSH1 0x4 DUP3 ADD SLOAD DUP2 MSTORE PUSH1 0x20 ADD PUSH1 0x5 DUP3 ADD DUP1 SLOAD PUSH2 0x132A SWAP1 PUSH2 0x5323 JUMP JUMPDEST DUP1 PUSH1 0x1F ADD PUSH1 0x20 DUP1 SWAP2 DIV MUL PUSH1 0x20 ADD PUSH1 0x40 MLOAD SWAP1 DUP2 ADD PUSH1 0x40 MSTORE DUP1 SWAP3 SWAP2 SWAP1 DUP2 DUP2 MSTORE PUSH1 0x20 ADD DUP3 DUP1 SLOAD PUSH2 0x1356 SWAP1 PUSH2 0x5323 JUMP JUMPDEST DUP1 ISZERO PUSH2 0x13A3 JUMPI DUP1 PUSH1 0x1F LT PUSH2 0x1378 JUMPI PUSH2 0x100 DUP1 DUP4 SLOAD DIV MUL DUP4 MSTORE SWAP2 PUSH1 0x20 ADD SWAP2 PUSH2 0x13A3 JUMP JUMPDEST DUP3 ADD SWAP2 SWAP1 PUSH1 0x0 MSTORE PUSH1 0x20 PUSH1 0x0 KECCAK256 SWAP1 JUMPDEST DUP2 SLOAD DUP2 MSTORE SWAP1 PUSH1 0x1 ADD SWAP1 PUSH1 0x20 ADD DUP1 DUP4 GT PUSH2 0x1386 JUMPI DUP3 SWAP1 SUB PUSH1 0x1F AND DUP3 ADD SWAP2 JUMPDEST POP POP POP POP POP DUP2 MSTORE PUSH1 0x20 ADD PUSH1 0x6 DUP3 ADD DUP1 SLOAD PUSH2 0x13BC SWAP1 PUSH2 0x5323 JUMP JUMPDEST DUP1 PUSH1 0x1F ADD PUSH1 0x20 DUP1 SWAP2 DIV MUL PUSH1 0x20 ADD PUSH1 0x40 MLOAD SWAP1 DUP2 ADD PUSH1 0x40 MSTORE DUP1 SWAP3 SWAP2 SWAP1 DUP2 DUP2 MSTORE PUSH1 0x20 ADD DUP3 DUP1 SLOAD PUSH2 0x13E8 SWAP1 PUSH2 0x5323 JUMP JUMPDEST DUP1 ISZERO PUSH2 0x1435 JUMPI DUP1 PUSH1 0x1F LT PUSH2 0x140A JUMPI PUSH2 0x100 DUP1 DUP4 SLOAD DIV MUL DUP4 MSTORE SWAP2 PUSH1 0x20 ADD SWAP2 PUSH2 0x1435 JUMP JUMPDEST DUP3 ADD SWAP2 SWAP1 PUSH1 0x0 MSTORE PUSH1 0x20 PUSH1 0x0 KECCAK256 SWAP1 JUMPDEST DUP2 SLOAD DUP2 MSTORE SWAP1 PUSH1 0x1 ADD SWAP1 PUSH1 0x20 ADD DUP1 DUP4 GT PUSH2 0x1418 JUMPI DUP3 SWAP1 SUB PUSH1 0x1F AND DUP3 ADD SWAP2 JUMPDEST POP POP POP POP POP DUP2 MSTORE PUSH1 0x20 ADD PUSH1 0x7 DUP3 ADD DUP1 SLOAD PUSH2 0x144E SWAP1 PUSH2 0x5323 JUMP JUMPDEST DUP1 PUSH1 0x1F ADD PUSH1 0x20 DUP1 SWAP2 DIV MUL PUSH1 0x20 ADD PUSH1 0x40 MLOAD SWAP1 DUP2 ADD PUSH1 0x40 MSTORE DUP1 SWAP3 SWAP2 SWAP1 DUP2 DUP2 MSTORE PUSH1 0x20 ADD DUP3 DUP1 SLOAD PUSH2 0x147A SWAP1 PUSH2 0x5323 JUMP JUMPDEST DUP1 ISZERO PUSH2 0x14C7 JUMPI DUP1 PUSH1 0x1F LT PUSH2 0x149C JUMPI PUSH2 0x100 DUP1 DUP4 SLOAD DIV MUL DUP4 MSTORE SWAP2 PUSH1 0x20 ADD SWAP2 PUSH2 0x14C7 JUMP JUMPDEST DUP3 ADD SWAP2 SWAP1 PUSH1 0x0 MSTORE PUSH1 0x20 PUSH1 0x0 KECCAK256 SWAP1 JUMPDEST DUP2 SLOAD DUP2 MSTORE SWAP1 PUSH1 0x1 ADD SWAP1 PUSH1 0x20 ADD DUP1 DUP4 GT PUSH2 0x14AA JUMPI DUP3 SWAP1 SUB PUSH1 0x1F AND DUP3 ADD SWAP2 JUMPDEST POP POP POP POP POP DUP2 MSTORE PUSH1 0x20 ADD PUSH1 0x8 DUP3 ADD DUP1 SLOAD PUSH2 0x14E0 SWAP1 PUSH2 0x5323 JUMP JUMPDEST DUP1 PUSH1 0x1F ADD PUSH1 0x20 DUP1 SWAP2 DIV MUL PUSH1 0x20 ADD PUSH1 0x40 MLOAD SWAP1 DUP2 ADD PUSH1 0x40 MSTORE DUP1 SWAP3 SWAP2 SWAP1 DUP2 DUP2 MSTORE PUSH1 0x20 ADD DUP3 DUP1 SLOAD PUSH2 0x150C SWAP1 PUSH2 0x5323 JUMP JUMPDEST DUP1 ISZERO PUSH2 0x1559 JUMPI DUP1 PUSH1 0x1F LT PUSH2 0x152E JUMPI PUSH2 0x100 DUP1 DUP4 SLOAD DIV MUL DUP4 MSTORE SWAP2 PUSH1 0x20 ADD SWAP2 PUSH2 0x1559 JUMP JUMPDEST DUP3 ADD SWAP2 SWAP1 PUSH1 0x0 MSTORE PUSH1 0x20 PUSH1 0x0 KECCAK256 SWAP1 JUMPDEST DUP2 SLOAD DUP2 MSTORE SWAP1 PUSH1 0x1 ADD SWAP1 PUSH1 0x20 ADD DUP1 DUP4 GT PUSH2 0x153C JUMPI DUP3 SWAP1 SUB PUSH1 0x1F AND DUP3 ADD SWAP2 JUMPDEST POP POP POP POP POP DUP2 MSTORE PUSH1 0x20 ADD PUSH1 0x9 DUP3 ADD DUP1 SLOAD PUSH2 0x1572 SWAP1 PUSH2 0x5323 JUMP JUMPDEST DUP1 PUSH1 0x1F ADD PUSH1 0x20 DUP1 SWAP2 DIV MUL PUSH1 0x20 ADD PUSH1 0x40 MLOAD SWAP1 DUP2 ADD PUSH1 0x40 MSTORE DUP1 SWAP3 SWAP2 SWAP1 DUP2 DUP2 MSTORE PUSH1 0x20 ADD DUP3 DUP1 SLOAD PUSH2 0x159E SWAP1 PUSH2 0x5323 JUMP JUMPDEST DUP1 ISZERO PUSH2 0x15EB JUMPI DUP1 PUSH1 0x1F LT PUSH2 0x15C0 JUMPI PUSH2 0x100 DUP1 DUP4 SLOAD DIV MUL DUP4 MSTORE SWAP2 PUSH1 0x20 ADD SWAP2 PUSH2 0x15EB JUMP JUMPDEST DUP3 ADD SWAP2 SWAP1 PUSH1 0x0 MSTORE PUSH1 0x20 PUSH1 0x0 KECCAK256 SWAP1 JUMPDEST DUP2 SLOAD DUP2 MSTORE SWAP1 PUSH1 0x1 ADD SWAP1 PUSH1 0x20 ADD DUP1 DUP4 GT PUSH2 0x15CE JUMPI DUP3 SWAP1 SUB PUSH1 0x1F AND DUP3 ADD SWAP2 JUMPDEST POP POP POP POP POP DUP2 MSTORE PUSH1 0x20 ADD PUSH1 0xA DUP3 ADD DUP1 SLOAD PUSH2 0x1604 SWAP1 PUSH2 0x5323 JUMP JUMPDEST DUP1 PUSH1 0x1F ADD PUSH1 0x20 DUP1 SWAP2 DIV MUL PUSH1 0x20 ADD PUSH1 0x40 MLOAD SWAP1 DUP2 ADD PUSH1 0x40 MSTORE DUP1 SWAP3 SWAP2 SWAP1 DUP2 DUP2 MSTORE PUSH1 0x20 ADD DUP3 DUP1 SLOAD PUSH2 0x1630 SWAP1 PUSH2 0x5323 JUMP JUMPDEST DUP1 ISZERO PUSH2 0x167D JUMPI DUP1 PUSH1 0x1F LT PUSH2 0x1652 JUMPI PUSH2 0x100 DUP1 DUP4 SLOAD DIV MUL DUP4 MSTORE SWAP2 PUSH1 0x20 ADD SWAP2 PUSH2 0x167D JUMP JUMPDEST DUP3 ADD SWAP2 SWAP1 PUSH1 0x0 MSTORE PUSH1 0x20 PUSH1 0x0 KECCAK256 SWAP1 JUMPDEST DUP2 SLOAD DUP2 MSTORE SWAP1 PUSH1 0x1 ADD SWAP1 PUSH1 0x20 ADD DUP1 DUP4 GT PUSH2 0x1660 JUMPI DUP3 SWAP1 SUB PUSH1 0x1F AND DUP3 ADD SWAP2 JUMPDEST POP POP POP POP POP DUP2 MSTORE PUSH1 0x20 ADD PUSH1 0xB DUP3 ADD DUP1 SLOAD PUSH2 0x1696 SWAP1 PUSH2 0x5323 JUMP JUMPDEST DUP1 PUSH1 0x1F ADD PUSH1 0x20 DUP1 SWAP2 DIV MUL PUSH1 0x20 ADD PUSH1 0x40 MLOAD SWAP1 DUP2 ADD PUSH1 0x40 MSTORE DUP1 SWAP3 SWAP2 SWAP1 DUP2 DUP2 MSTORE PUSH1 0x20 ADD DUP3 DUP1 SLOAD PUSH2 0x16C2 SWAP1 PUSH2 0x5323 JUMP JUMPDEST DUP1 ISZERO PUSH2 0x170F JUMPI DUP1 PUSH1 0x1F LT PUSH2 0x16E4 JUMPI PUSH2 0x100 DUP1 DUP4 SLOAD DIV MUL DUP4 MSTORE SWAP2 PUSH1 0x20 ADD SWAP2 PUSH2 0x170F JUMP JUMPDEST DUP3 ADD SWAP2 SWAP1 PUSH1 0x0 MSTORE PUSH1 0x20 PUSH1 0x0 KECCAK256 SWAP1 JUMPDEST DUP2 SLOAD DUP2 MSTORE SWAP1 PUSH1 0x1 ADD SWAP1 PUSH1 0x20 ADD DUP1 DUP4 GT PUSH2 0x16F2 JUMPI DUP3 SWAP1 SUB PUSH1 0x1F AND DUP3 ADD SWAP2 JUMPDEST POP POP POP POP POP DUP2 MSTORE PUSH1 0x20 ADD PUSH1 0xC DUP3 ADD DUP1 SLOAD PUSH2 0xC3E SWAP1 PUSH2 0x5323 JUMP JUMPDEST PUSH1 0x0 DUP1 MLOAD PUSH1 0x20 PUSH2 0x59BB DUP4 CODECOPY DUP2 MLOAD SWAP2 MSTORE PUSH2 0x1740 DUP2 PUSH2 0x3C81 JUMP JUMPDEST DUP3 DUP1 MLOAD SWAP1 PUSH1 0x20 ADD KECCAK256 DUP3 PUSH1 0x0 ADD MLOAD DUP1 MLOAD SWAP1 PUSH1 0x20 ADD KECCAK256 EQ PUSH2 0x1771 JUMPI PUSH1 0x40 MLOAD PUSH3 0x461BCD PUSH1 0xE5 SHL DUP2 MSTORE PUSH1 0x4 ADD PUSH2 0x5E4 SWAP1 PUSH2 0x527C JUMP JUMPDEST PUSH1 0xB DUP4 PUSH1 0x40 MLOAD PUSH2 0x1781 SWAP2 SWAP1 PUSH2 0x52A7 JUMP JUMPDEST SWAP1 DUP2 MSTORE PUSH1 0x40 MLOAD SWAP1 DUP2 SWAP1 SUB PUSH1 0x20 ADD SWAP1 KECCAK256 SLOAD PUSH1 0xFF AND PUSH2 0x17DB JUMPI PUSH1 0x40 MLOAD PUSH3 0x461BCD PUSH1 0xE5 SHL DUP2 MSTORE PUSH1 0x20 PUSH1 0x4 DUP3 ADD MSTORE PUSH1 0x18 PUSH1 0x24 DUP3 ADD MSTORE PUSH24 0x2130BA31B41024A2103237B2B9903737BA1032BC34B9BA17 PUSH1 0x41 SHL PUSH1 0x44 DUP3 ADD MSTORE PUSH1 0x64 ADD PUSH2 0x5E4 JUMP JUMPDEST DUP2 PUSH1 0x4 DUP5 PUSH1 0x40 MLOAD PUSH2 0x17EC SWAP2 SWAP1 PUSH2 0x52A7 JUMP JUMPDEST SWAP1 DUP2 MSTORE PUSH1 0x40 MLOAD SWAP1 DUP2 SWAP1 SUB PUSH1 0x20 ADD SWAP1 KECCAK256 DUP2 MLOAD DUP2 SWAP1 PUSH2 0x1809 SWAP1 DUP3 PUSH2 0x53AB JUMP JUMPDEST POP PUSH1 0x20 DUP3 ADD MLOAD PUSH1 0x1 DUP3 ADD SWAP1 PUSH2 0x181E SWAP1 DUP3 PUSH2 0x53AB JUMP JUMPDEST POP PUSH1 0x40 DUP3 ADD MLOAD PUSH1 0x2 DUP3 ADD SWAP1 PUSH2 0x1833 SWAP1 DUP3 PUSH2 0x53AB JUMP JUMPDEST POP PUSH1 0x60 DUP3 ADD MLOAD PUSH1 0x3 DUP3 ADD SSTORE PUSH1 0x80 DUP3 ADD MLOAD PUSH1 0x4 DUP3 ADD SSTORE PUSH1 0xA0 DUP3 ADD MLOAD PUSH1 0x5 DUP3 ADD SWAP1 PUSH2 0x185C SWAP1 DUP3 PUSH2 0x53AB JUMP JUMPDEST POP PUSH1 0xC0 DUP3 ADD MLOAD PUSH1 0x6 DUP3 ADD SWAP1 PUSH2 0x1871 SWAP1 DUP3 PUSH2 0x53AB JUMP JUMPDEST POP PUSH1 0xE0 DUP3 ADD MLOAD PUSH1 0x7 DUP3 ADD SWAP1 PUSH2 0x1886 SWAP1 DUP3 PUSH2 0x53AB JUMP JUMPDEST POP PUSH2 0x100 DUP3 ADD MLOAD PUSH1 0x8 DUP3 ADD SWAP1 PUSH2 0x189C SWAP1 DUP3 PUSH2 0x53AB JUMP JUMPDEST POP PUSH2 0x120 DUP3 ADD MLOAD PUSH1 0x9 DUP3 ADD SWAP1 PUSH2 0x18B2 SWAP1 DUP3 PUSH2 0x53AB JUMP JUMPDEST POP PUSH2 0x140 DUP3 ADD MLOAD PUSH1 0xA DUP3 ADD SWAP1 PUSH2 0x18C8 SWAP1 DUP3 PUSH2 0x53AB JUMP JUMPDEST POP PUSH2 0x160 DUP3 ADD MLOAD PUSH1 0xB DUP3 ADD SWAP1 PUSH2 0x18DE SWAP1 DUP3 PUSH2 0x53AB JUMP JUMPDEST POP POP POP POP POP POP JUMP JUMPDEST PUSH32 0xFBD454F36A7E1A388BD6FC3AB10D434AA4578F811ACBBCF33AFB1C697486313C PUSH2 0x1910 DUP2 PUSH2 0x3C81 JUMP JUMPDEST DUP2 PUSH1 0x5 DUP5 PUSH1 0x40 MLOAD PUSH2 0x1921 SWAP2 SWAP1 PUSH2 0x52A7 JUMP JUMPDEST SWAP1 DUP2 MSTORE PUSH1 0x40 MLOAD SWAP1 DUP2 SWAP1 SUB PUSH1 0x20 ADD SWAP1 KECCAK256 DUP2 MLOAD DUP2 SWAP1 PUSH2 0x193E SWAP1 DUP3 PUSH2 0x53AB JUMP JUMPDEST POP PUSH1 0x20 DUP3 ADD MLOAD PUSH1 0x1 DUP3 ADD SWAP1 PUSH2 0x1953 SWAP1 DUP3 PUSH2 0x53AB JUMP JUMPDEST POP PUSH1 0x40 DUP3 ADD MLOAD PUSH1 0x2 DUP3 ADD SWAP1 PUSH2 0x1968 SWAP1 DUP3 PUSH2 0x53AB JUMP JUMPDEST POP PUSH1 0x60 DUP3 ADD MLOAD PUSH1 0x3 DUP3 ADD SWAP1 PUSH2 0x197D SWAP1 DUP3 PUSH2 0x53AB JUMP JUMPDEST POP PUSH1 0x80 DUP3 ADD MLOAD PUSH1 0x4 DUP3 ADD SWAP1 PUSH2 0x1992 SWAP1 DUP3 PUSH2 0x53AB JUMP JUMPDEST POP PUSH1 0xA0 DUP3 ADD MLOAD PUSH1 0x5 DUP3 ADD SWAP1 PUSH2 0x19A7 SWAP1 DUP3 PUSH2 0x53AB JUMP JUMPDEST POP SWAP1 POP POP PUSH1 0x1 DUP4 PUSH1 0x40 MLOAD PUSH2 0x19BB SWAP2 SWAP1 PUSH2 0x52A7 JUMP JUMPDEST SWAP1 DUP2 MSTORE PUSH1 0x40 MLOAD SWAP1 DUP2 SWAP1 SUB PUSH1 0x20 ADD SWAP1 KECCAK256 PUSH1 0x3 ADD SLOAD PUSH1 0xFF AND ISZERO PUSH2 0x1B5E JUMPI PUSH1 0x0 PUSH1 0x1 DUP5 PUSH1 0x40 MLOAD PUSH2 0x19E8 SWAP2 SWAP1 PUSH2 0x52A7 JUMP JUMPDEST SWAP1 DUP2 MSTORE PUSH1 0x20 ADD PUSH1 0x40 MLOAD DUP1 SWAP2 SUB SWAP1 KECCAK256 PUSH1 0x2 ADD DUP1 SLOAD PUSH2 0x1A04 SWAP1 PUSH2 0x5323 JUMP JUMPDEST DUP1 PUSH1 0x1F ADD PUSH1 0x20 DUP1 SWAP2 DIV MUL PUSH1 0x20 ADD PUSH1 0x40 MLOAD SWAP1 DUP2 ADD PUSH1 0x40 MSTORE DUP1 SWAP3 SWAP2 SWAP1 DUP2 DUP2 MSTORE PUSH1 0x20 ADD DUP3 DUP1 SLOAD PUSH2 0x1A30 SWAP1 PUSH2 0x5323 JUMP JUMPDEST DUP1 ISZERO PUSH2 0x1A7D JUMPI DUP1 PUSH1 0x1F LT PUSH2 0x1A52 JUMPI PUSH2 0x100 DUP1 DUP4 SLOAD DIV MUL DUP4 MSTORE SWAP2 PUSH1 0x20 ADD SWAP2 PUSH2 0x1A7D JUMP JUMPDEST DUP3 ADD SWAP2 SWAP1 PUSH1 0x0 MSTORE PUSH1 0x20 PUSH1 0x0 KECCAK256 SWAP1 JUMPDEST DUP2 SLOAD DUP2 MSTORE SWAP1 PUSH1 0x1 ADD SWAP1 PUSH1 0x20 ADD DUP1 DUP4 GT PUSH2 0x1A60 JUMPI DUP3 SWAP1 SUB PUSH1 0x1F AND DUP3 ADD SWAP2 JUMPDEST POP POP POP POP POP SWAP1 POP PUSH1 0x40 MLOAD DUP1 PUSH1 0x40 ADD PUSH1 0x40 MSTORE DUP1 PUSH1 0xB DUP2 MSTORE PUSH1 0x20 ADD PUSH11 0x3234B9BA3934B13ABA37B9 PUSH1 0xA9 SHL DUP2 MSTORE POP PUSH1 0x1 DUP6 PUSH1 0x40 MLOAD PUSH2 0x1AB8 SWAP2 SWAP1 PUSH2 0x52A7 JUMP JUMPDEST SWAP1 DUP2 MSTORE PUSH1 0x20 ADD PUSH1 0x40 MLOAD DUP1 SWAP2 SUB SWAP1 KECCAK256 PUSH1 0x2 ADD SWAP1 DUP2 PUSH2 0x1AD5 SWAP2 SWAP1 PUSH2 0x53AB JUMP JUMPDEST POP DUP4 PUSH1 0x40 MLOAD PUSH2 0x1AE4 SWAP2 SWAP1 PUSH2 0x52A7 JUMP JUMPDEST PUSH1 0x40 MLOAD DUP1 SWAP2 SUB SWAP1 KECCAK256 PUSH32 0xE16AD7AE21FA154AE9292DC4F86747AD006DF43BE1178BEDAF3A896B66A59D39 DUP3 PUSH1 0x40 MLOAD PUSH2 0x1B1B SWAP2 SWAP1 PUSH2 0x55DF JUMP JUMPDEST PUSH1 0x40 MLOAD DUP1 SWAP2 SUB SWAP1 LOG2 PUSH32 0xE536B4209389C3023920E52CDA66827A779E4352DD51552646CD17F76DF41D40 DUP5 DUP3 PUSH1 0x40 MLOAD PUSH2 0x1B54 SWAP3 SWAP2 SWAP1 PUSH2 0x561C JUMP JUMPDEST PUSH1 0x40 MLOAD DUP1 SWAP2 SUB SWAP1 LOG1 POP JUMPDEST POP POP POP JUMP JUMPDEST PUSH1 0x0 DUP3 DUP2 MSTORE PUSH1 0x20 DUP2 SWAP1 MSTORE PUSH1 0x40 SWAP1 KECCAK256 PUSH1 0x1 ADD SLOAD PUSH2 0x1B7E DUP2 PUSH2 0x3C81 JUMP JUMPDEST PUSH2 0x1B88 DUP4 DUP4 PUSH2 0x3E37 JUMP JUMPDEST POP POP POP POP JUMP JUMPDEST PUSH1 0x1 PUSH1 0x1 PUSH1 0xA0 SHL SUB DUP2 AND CALLER EQ PUSH2 0x1BB7 JUMPI PUSH1 0x40 MLOAD PUSH4 0x334BD919 PUSH1 0xE1 SHL DUP2 MSTORE PUSH1 0x4 ADD PUSH1 0x40 MLOAD DUP1 SWAP2 SUB SWAP1 REVERT JUMPDEST PUSH2 0x1B5E DUP3 DUP3 PUSH2 0x3EC9 JUMP JUMPDEST PUSH2 0x1BFA PUSH1 0x40 MLOAD DUP1 PUSH1 0xC0 ADD PUSH1 0x40 MSTORE DUP1 PUSH1 0x60 DUP2 MSTORE PUSH1 0x20 ADD PUSH1 0x60 DUP2 MSTORE PUSH1 0x20 ADD PUSH1 0x60 DUP2 MSTORE PUSH1 0x20 ADD PUSH1 0x60 DUP2 MSTORE PUSH1 0x20 ADD PUSH1 0x60 DUP2 MSTORE PUSH1 0x20 ADD PUSH1 0x60 DUP2 MSTORE POP SWAP1 JUMP JUMPDEST PUSH1 0x5 DUP3 PUSH1 0x40 MLOAD PUSH2 0x1C0A SWAP2 SWAP1 PUSH2 0x52A7 JUMP JUMPDEST SWAP1 DUP2 MSTORE PUSH1 0x20 ADD PUSH1 0x40 MLOAD DUP1 SWAP2 SUB SWAP1 KECCAK256 PUSH1 0x40 MLOAD DUP1 PUSH1 0xC0 ADD PUSH1 0x40 MSTORE SWAP1 DUP2 PUSH1 0x0 DUP3 ADD DUP1 SLOAD PUSH2 0x1C33 SWAP1 PUSH2 0x5323 JUMP JUMPDEST DUP1 PUSH1 0x1F ADD PUSH1 0x20 DUP1 SWAP2 DIV MUL PUSH1 0x20 ADD PUSH1 0x40 MLOAD SWAP1 DUP2 ADD PUSH1 0x40 MSTORE DUP1 SWAP3 SWAP2 SWAP1 DUP2 DUP2 MSTORE PUSH1 0x20 ADD DUP3 DUP1 SLOAD PUSH2 0x1C5F SWAP1 PUSH2 0x5323 JUMP JUMPDEST DUP1 ISZERO PUSH2 0x1CAC JUMPI DUP1 PUSH1 0x1F LT PUSH2 0x1C81 JUMPI PUSH2 0x100 DUP1 DUP4 SLOAD DIV MUL DUP4 MSTORE SWAP2 PUSH1 0x20 ADD SWAP2 PUSH2 0x1CAC JUMP JUMPDEST DUP3 ADD SWAP2 SWAP1 PUSH1 0x0 MSTORE PUSH1 0x20 PUSH1 0x0 KECCAK256 SWAP1 JUMPDEST DUP2 SLOAD DUP2 MSTORE SWAP1 PUSH1 0x1 ADD SWAP1 PUSH1 0x20 ADD DUP1 DUP4 GT PUSH2 0x1C8F JUMPI DUP3 SWAP1 SUB PUSH1 0x1F AND DUP3 ADD SWAP2 JUMPDEST POP POP POP POP POP DUP2 MSTORE PUSH1 0x20 ADD PUSH1 0x1 DUP3 ADD DUP1 SLOAD PUSH2 0x1CC5 SWAP1 PUSH2 0x5323 JUMP JUMPDEST DUP1 PUSH1 0x1F ADD PUSH1 0x20 DUP1 SWAP2 DIV MUL PUSH1 0x20 ADD PUSH1 0x40 MLOAD SWAP1 DUP2 ADD PUSH1 0x40 MSTORE DUP1 SWAP3 SWAP2 SWAP1 DUP2 DUP2 MSTORE PUSH1 0x20 ADD DUP3 DUP1 SLOAD PUSH2 0x1CF1 SWAP1 PUSH2 0x5323 JUMP JUMPDEST DUP1 ISZERO PUSH2 0x1D3E JUMPI DUP1 PUSH1 0x1F LT PUSH2 0x1D13 JUMPI PUSH2 0x100 DUP1 DUP4 SLOAD DIV MUL DUP4 MSTORE SWAP2 PUSH1 0x20 ADD SWAP2 PUSH2 0x1D3E JUMP JUMPDEST DUP3 ADD SWAP2 SWAP1 PUSH1 0x0 MSTORE PUSH1 0x20 PUSH1 0x0 KECCAK256 SWAP1 JUMPDEST DUP2 SLOAD DUP2 MSTORE SWAP1 PUSH1 0x1 ADD SWAP1 PUSH1 0x20 ADD DUP1 DUP4 GT PUSH2 0x1D21 JUMPI DUP3 SWAP1 SUB PUSH1 0x1F AND DUP3 ADD SWAP2 JUMPDEST POP POP POP POP POP DUP2 MSTORE PUSH1 0x20 ADD PUSH1 0x2 DUP3 ADD DUP1 SLOAD PUSH2 0x1D57 SWAP1 PUSH2 0x5323 JUMP JUMPDEST DUP1 PUSH1 0x1F ADD PUSH1 0x20 DUP1 SWAP2 DIV MUL PUSH1 0x20 ADD PUSH1 0x40 MLOAD SWAP1 DUP2 ADD PUSH1 0x40 MSTORE DUP1 SWAP3 SWAP2 SWAP1 DUP2 DUP2 MSTORE PUSH1 0x20 ADD DUP3 DUP1 SLOAD PUSH2 0x1D83 SWAP1 PUSH2 0x5323 JUMP JUMPDEST DUP1 ISZERO PUSH2 0x1DD0 JUMPI DUP1 PUSH1 0x1F LT PUSH2 0x1DA5 JUMPI PUSH2 0x100 DUP1 DUP4 SLOAD DIV MUL DUP4 MSTORE SWAP2 PUSH1 0x20 ADD SWAP2 PUSH2 0x1DD0 JUMP JUMPDEST DUP3 ADD SWAP2 SWAP1 PUSH1 0x0 MSTORE PUSH1 0x20 PUSH1 0x0 KECCAK256 SWAP1 JUMPDEST DUP2 SLOAD DUP2 MSTORE SWAP1 PUSH1 0x1 ADD SWAP1 PUSH1 0x20 ADD DUP1 DUP4 GT PUSH2 0x1DB3 JUMPI DUP3 SWAP1 SUB PUSH1 0x1F AND DUP3 ADD SWAP2 JUMPDEST POP POP POP POP POP DUP2 MSTORE PUSH1 0x20 ADD PUSH1 0x3 DUP3 ADD DUP1 SLOAD PUSH2 0x1DE9 SWAP1 PUSH2 0x5323 JUMP JUMPDEST DUP1 PUSH1 0x1F ADD PUSH1 0x20 DUP1 SWAP2 DIV MUL PUSH1 0x20 ADD PUSH1 0x40 MLOAD SWAP1 DUP2 ADD PUSH1 0x40 MSTORE DUP1 SWAP3 SWAP2 SWAP1 DUP2 DUP2 MSTORE PUSH1 0x20 ADD DUP3 DUP1 SLOAD PUSH2 0x1E15 SWAP1 PUSH2 0x5323 JUMP JUMPDEST DUP1 ISZERO PUSH2 0x1E62 JUMPI DUP1 PUSH1 0x1F LT PUSH2 0x1E37 JUMPI PUSH2 0x100 DUP1 DUP4 SLOAD DIV MUL DUP4 MSTORE SWAP2 PUSH1 0x20 ADD SWAP2 PUSH2 0x1E62 JUMP JUMPDEST DUP3 ADD SWAP2 SWAP1 PUSH1 0x0 MSTORE PUSH1 0x20 PUSH1 0x0 KECCAK256 SWAP1 JUMPDEST DUP2 SLOAD DUP2 MSTORE SWAP1 PUSH1 0x1 ADD SWAP1 PUSH1 0x20 ADD DUP1 DUP4 GT PUSH2 0x1E45 JUMPI DUP3 SWAP1 SUB PUSH1 0x1F AND DUP3 ADD SWAP2 JUMPDEST POP POP POP POP POP DUP2 MSTORE PUSH1 0x20 ADD PUSH1 0x4 DUP3 ADD DUP1 SLOAD PUSH2 0x1E7B SWAP1 PUSH2 0x5323 JUMP JUMPDEST DUP1 PUSH1 0x1F ADD PUSH1 0x20 DUP1 SWAP2 DIV MUL PUSH1 0x20 ADD PUSH1 0x40 MLOAD SWAP1 DUP2 ADD PUSH1 0x40 MSTORE DUP1 SWAP3 SWAP2 SWAP1 DUP2 DUP2 MSTORE PUSH1 0x20 ADD DUP3 DUP1 SLOAD PUSH2 0x1EA7 SWAP1 PUSH2 0x5323 JUMP JUMPDEST DUP1 ISZERO PUSH2 0x1EF4 JUMPI DUP1 PUSH1 0x1F LT PUSH2 0x1EC9 JUMPI PUSH2 0x100 DUP1 DUP4 SLOAD DIV MUL DUP4 MSTORE SWAP2 PUSH1 0x20 ADD SWAP2 PUSH2 0x1EF4 JUMP JUMPDEST DUP3 ADD SWAP2 SWAP1 PUSH1 0x0 MSTORE PUSH1 0x20 PUSH1 0x0 KECCAK256 SWAP1 JUMPDEST DUP2 SLOAD DUP2 MSTORE SWAP1 PUSH1 0x1 ADD SWAP1 PUSH1 0x20 ADD DUP1 DUP4 GT PUSH2 0x1ED7 JUMPI DUP3 SWAP1 SUB PUSH1 0x1F AND DUP3 ADD SWAP2 JUMPDEST POP POP POP POP POP DUP2 MSTORE PUSH1 0x20 ADD PUSH1 0x5 DUP3 ADD DUP1 SLOAD PUSH2 0xC3E SWAP1 PUSH2 0x5323 JUMP JUMPDEST PUSH2 0x1F71 PUSH1 0x40 MLOAD DUP1 PUSH2 0x180 ADD PUSH1 0x40 MSTORE DUP1 PUSH1 0x60 DUP2 MSTORE PUSH1 0x20 ADD PUSH1 0x60 DUP2 MSTORE PUSH1 0x20 ADD PUSH1 0x60 DUP2 MSTORE PUSH1 0x20 ADD PUSH1 0x0 DUP2 MSTORE PUSH1 0x20 ADD PUSH1 0x0 DUP2 MSTORE PUSH1 0x20 ADD PUSH1 0x60 DUP2 MSTORE PUSH1 0x20 ADD PUSH1 0x60 DUP2 MSTORE PUSH1 0x20 ADD PUSH1 0x60 DUP2 MSTORE PUSH1 0x20 ADD PUSH1 0x60 DUP2 MSTORE PUSH1 0x20 ADD PUSH1 0x60 DUP2 MSTORE PUSH1 0x20 ADD PUSH1 0x60 DUP2 MSTORE PUSH1 0x20 ADD PUSH1 0x60 DUP2 MSTORE POP SWAP1 JUMP JUMPDEST PUSH1 0x4 DUP3 PUSH1 0x40 MLOAD PUSH2 0x1F81 SWAP2 SWAP1 PUSH2 0x52A7 JUMP JUMPDEST SWAP1 DUP2 MSTORE PUSH1 0x20 ADD PUSH1 0x40 MLOAD DUP1 SWAP2 SUB SWAP1 KECCAK256 PUSH1 0x40 MLOAD DUP1 PUSH2 0x180 ADD PUSH1 0x40 MSTORE SWAP1 DUP2 PUSH1 0x0 DUP3 ADD DUP1 SLOAD PUSH2 0x1FAB SWAP1 PUSH2 0x5323 JUMP JUMPDEST DUP1 PUSH1 0x1F ADD PUSH1 0x20 DUP1 SWAP2 DIV MUL PUSH1 0x20 ADD PUSH1 0x40 MLOAD SWAP1 DUP2 ADD PUSH1 0x40 MSTORE DUP1 SWAP3 SWAP2 SWAP1 DUP2 DUP2 MSTORE PUSH1 0x20 ADD DUP3 DUP1 SLOAD PUSH2 0x1FD7 SWAP1 PUSH2 0x5323 JUMP JUMPDEST DUP1 ISZERO PUSH2 0x2024 JUMPI DUP1 PUSH1 0x1F LT PUSH2 0x1FF9 JUMPI PUSH2 0x100 DUP1 DUP4 SLOAD DIV MUL DUP4 MSTORE SWAP2 PUSH1 0x20 ADD SWAP2 PUSH2 0x2024 JUMP JUMPDEST DUP3 ADD SWAP2 SWAP1 PUSH1 0x0 MSTORE PUSH1 0x20 PUSH1 0x0 KECCAK256 SWAP1 JUMPDEST DUP2 SLOAD DUP2 MSTORE SWAP1 PUSH1 0x1 ADD SWAP1 PUSH1 0x20 ADD DUP1 DUP4 GT PUSH2 0x2007 JUMPI DUP3 SWAP1 SUB PUSH1 0x1F AND DUP3 ADD SWAP2 JUMPDEST POP POP POP POP POP DUP2 MSTORE PUSH1 0x20 ADD PUSH1 0x1 DUP3 ADD DUP1 SLOAD PUSH2 0x203D SWAP1 PUSH2 0x5323 JUMP JUMPDEST DUP1 PUSH1 0x1F ADD PUSH1 0x20 DUP1 SWAP2 DIV MUL PUSH1 0x20 ADD PUSH1 0x40 MLOAD SWAP1 DUP2 ADD PUSH1 0x40 MSTORE DUP1 SWAP3 SWAP2 SWAP1 DUP2 DUP2 MSTORE PUSH1 0x20 ADD DUP3 DUP1 SLOAD PUSH2 0x2069 SWAP1 PUSH2 0x5323 JUMP JUMPDEST DUP1 ISZERO PUSH2 0x20B6 JUMPI DUP1 PUSH1 0x1F LT PUSH2 0x208B JUMPI PUSH2 0x100 DUP1 DUP4 SLOAD DIV MUL DUP4 MSTORE SWAP2 PUSH1 0x20 ADD SWAP2 PUSH2 0x20B6 JUMP JUMPDEST DUP3 ADD SWAP2 SWAP1 PUSH1 0x0 MSTORE PUSH1 0x20 PUSH1 0x0 KECCAK256 SWAP1 JUMPDEST DUP2 SLOAD DUP2 MSTORE SWAP1 PUSH1 0x1 ADD SWAP1 PUSH1 0x20 ADD DUP1 DUP4 GT PUSH2 0x2099 JUMPI DUP3 SWAP1 SUB PUSH1 0x1F AND DUP3 ADD SWAP2 JUMPDEST POP POP POP POP POP DUP2 MSTORE PUSH1 0x20 ADD PUSH1 0x2 DUP3 ADD DUP1 SLOAD PUSH2 0x20CF SWAP1 PUSH2 0x5323 JUMP JUMPDEST DUP1 PUSH1 0x1F ADD PUSH1 0x20 DUP1 SWAP2 DIV MUL PUSH1 0x20 ADD PUSH1 0x40 MLOAD SWAP1 DUP2 ADD PUSH1 0x40 MSTORE DUP1 SWAP3 SWAP2 SWAP1 DUP2 DUP2 MSTORE PUSH1 0x20 ADD DUP3 DUP1 SLOAD PUSH2 0x20FB SWAP1 PUSH2 0x5323 JUMP JUMPDEST DUP1 ISZERO PUSH2 0x2148 JUMPI DUP1 PUSH1 0x1F LT PUSH2 0x211D JUMPI PUSH2 0x100 DUP1 DUP4 SLOAD DIV MUL DUP4 MSTORE SWAP2 PUSH1 0x20 ADD SWAP2 PUSH2 0x2148 JUMP JUMPDEST DUP3 ADD SWAP2 SWAP1 PUSH1 0x0 MSTORE PUSH1 0x20 PUSH1 0x0 KECCAK256 SWAP1 JUMPDEST DUP2 SLOAD DUP2 MSTORE SWAP1 PUSH1 0x1 ADD SWAP1 PUSH1 0x20 ADD DUP1 DUP4 GT PUSH2 0x212B JUMPI DUP3 SWAP1 SUB PUSH1 0x1F AND DUP3 ADD SWAP2 JUMPDEST POP POP POP POP POP DUP2 MSTORE PUSH1 0x20 ADD PUSH1 0x3 DUP3 ADD SLOAD DUP2 MSTORE PUSH1 0x20 ADD PUSH1 0x4 DUP3 ADD SLOAD DUP2 MSTORE PUSH1 0x20 ADD PUSH1 0x5 DUP3 ADD DUP1 SLOAD PUSH2 0x2175 SWAP1 PUSH2 0x5323 JUMP JUMPDEST DUP1 PUSH1 0x1F ADD PUSH1 0x20 DUP1 SWAP2 DIV MUL PUSH1 0x20 ADD PUSH1 0x40 MLOAD SWAP1 DUP2 ADD PUSH1 0x40 MSTORE DUP1 SWAP3 SWAP2 SWAP1 DUP2 DUP2 MSTORE PUSH1 0x20 ADD DUP3 DUP1 SLOAD PUSH2 0x21A1 SWAP1 PUSH2 0x5323 JUMP JUMPDEST DUP1 ISZERO PUSH2 0x21EE JUMPI DUP1 PUSH1 0x1F LT PUSH2 0x21C3 JUMPI PUSH2 0x100 DUP1 DUP4 SLOAD DIV MUL DUP4 MSTORE SWAP2 PUSH1 0x20 ADD SWAP2 PUSH2 0x21EE JUMP JUMPDEST DUP3 ADD SWAP2 SWAP1 PUSH1 0x0 MSTORE PUSH1 0x20 PUSH1 0x0 KECCAK256 SWAP1 JUMPDEST DUP2 SLOAD DUP2 MSTORE SWAP1 PUSH1 0x1 ADD SWAP1 PUSH1 0x20 ADD DUP1 DUP4 GT PUSH2 0x21D1 JUMPI DUP3 SWAP1 SUB PUSH1 0x1F AND DUP3 ADD SWAP2 JUMPDEST POP POP POP POP POP DUP2 MSTORE PUSH1 0x20 ADD PUSH1 0x6 DUP3 ADD DUP1 SLOAD PUSH2 0x2207 SWAP1 PUSH2 0x5323 JUMP JUMPDEST DUP1 PUSH1 0x1F ADD PUSH1 0x20 DUP1 SWAP2 DIV MUL PUSH1 0x20 ADD PUSH1 0x40 MLOAD SWAP1 DUP2 ADD PUSH1 0x40 MSTORE DUP1 SWAP3 SWAP2 SWAP1 DUP2 DUP2 MSTORE PUSH1 0x20 ADD DUP3 DUP1 SLOAD PUSH2 0x2233 SWAP1 PUSH2 0x5323 JUMP JUMPDEST DUP1 ISZERO PUSH2 0x2280 JUMPI DUP1 PUSH1 0x1F LT PUSH2 0x2255 JUMPI PUSH2 0x100 DUP1 DUP4 SLOAD DIV MUL DUP4 MSTORE SWAP2 PUSH1 0x20 ADD SWAP2 PUSH2 0x2280 JUMP JUMPDEST DUP3 ADD SWAP2 SWAP1 PUSH1 0x0 MSTORE PUSH1 0x20 PUSH1 0x0 KECCAK256 SWAP1 JUMPDEST DUP2 SLOAD DUP2 MSTORE SWAP1 PUSH1 0x1 ADD SWAP1 PUSH1 0x20 ADD DUP1 DUP4 GT PUSH2 0x2263 JUMPI DUP3 SWAP1 SUB PUSH1 0x1F AND DUP3 ADD SWAP2 JUMPDEST POP POP POP POP POP DUP2 MSTORE PUSH1 0x20 ADD PUSH1 0x7 DUP3 ADD DUP1 SLOAD PUSH2 0x2299 SWAP1 PUSH2 0x5323 JUMP JUMPDEST DUP1 PUSH1 0x1F ADD PUSH1 0x20 DUP1 SWAP2 DIV MUL PUSH1 0x20 ADD PUSH1 0x40 MLOAD SWAP1 DUP2 ADD PUSH1 0x40 MSTORE DUP1 SWAP3 SWAP2 SWAP1 DUP2 DUP2 MSTORE PUSH1 0x20 ADD DUP3 DUP1 SLOAD PUSH2 0x22C5 SWAP1 PUSH2 0x5323 JUMP JUMPDEST DUP1 ISZERO PUSH2 0x2312 JUMPI DUP1 PUSH1 0x1F LT PUSH2 0x22E7 JUMPI PUSH2 0x100 DUP1 DUP4 SLOAD DIV MUL DUP4 MSTORE SWAP2 PUSH1 0x20 ADD SWAP2 PUSH2 0x2312 JUMP JUMPDEST DUP3 ADD SWAP2 SWAP1 PUSH1 0x0 MSTORE PUSH1 0x20 PUSH1 0x0 KECCAK256 SWAP1 JUMPDEST DUP2 SLOAD DUP2 MSTORE SWAP1 PUSH1 0x1 ADD SWAP1 PUSH1 0x20 ADD DUP1 DUP4 GT PUSH2 0x22F5 JUMPI DUP3 SWAP1 SUB PUSH1 0x1F AND DUP3 ADD SWAP2 JUMPDEST POP POP POP POP POP DUP2 MSTORE PUSH1 0x20 ADD PUSH1 0x8 DUP3 ADD DUP1 SLOAD PUSH2 0x232B SWAP1 PUSH2 0x5323 JUMP JUMPDEST DUP1 PUSH1 0x1F ADD PUSH1 0x20 DUP1 SWAP2 DIV MUL PUSH1 0x20 ADD PUSH1 0x40 MLOAD SWAP1 DUP2 ADD PUSH1 0x40 MSTORE DUP1 SWAP3 SWAP2 SWAP1 DUP2 DUP2 MSTORE PUSH1 0x20 ADD DUP3 DUP1 SLOAD PUSH2 0x2357 SWAP1 PUSH2 0x5323 JUMP JUMPDEST DUP1 ISZERO PUSH2 0x23A4 JUMPI DUP1 PUSH1 0x1F LT PUSH2 0x2379 JUMPI PUSH2 0x100 DUP1 DUP4 SLOAD DIV MUL DUP4 MSTORE SWAP2 PUSH1 0x20 ADD SWAP2 PUSH2 0x23A4 JUMP JUMPDEST DUP3 ADD SWAP2 SWAP1 PUSH1 0x0 MSTORE PUSH1 0x20 PUSH1 0x0 KECCAK256 SWAP1 JUMPDEST DUP2 SLOAD DUP2 MSTORE SWAP1 PUSH1 0x1 ADD SWAP1 PUSH1 0x20 ADD DUP1 DUP4 GT PUSH2 0x2387 JUMPI DUP3 SWAP1 SUB PUSH1 0x1F AND DUP3 ADD SWAP2 JUMPDEST POP POP POP POP POP DUP2 MSTORE PUSH1 0x20 ADD PUSH1 0x9 DUP3 ADD DUP1 SLOAD PUSH2 0x23BD SWAP1 PUSH2 0x5323 JUMP JUMPDEST DUP1 PUSH1 0x1F ADD PUSH1 0x20 DUP1 SWAP2 DIV MUL PUSH1 0x20 ADD PUSH1 0x40 MLOAD SWAP1 DUP2 ADD PUSH1 0x40 MSTORE DUP1 SWAP3 SWAP2 SWAP1 DUP2 DUP2 MSTORE PUSH1 0x20 ADD DUP3 DUP1 SLOAD PUSH2 0x23E9 SWAP1 PUSH2 0x5323 JUMP JUMPDEST DUP1 ISZERO PUSH2 0x2436 JUMPI DUP1 PUSH1 0x1F LT PUSH2 0x240B JUMPI PUSH2 0x100 DUP1 DUP4 SLOAD DIV MUL DUP4 MSTORE SWAP2 PUSH1 0x20 ADD SWAP2 PUSH2 0x2436 JUMP JUMPDEST DUP3 ADD SWAP2 SWAP1 PUSH1 0x0 MSTORE PUSH1 0x20 PUSH1 0x0 KECCAK256 SWAP1 JUMPDEST DUP2 SLOAD DUP2 MSTORE SWAP1 PUSH1 0x1 ADD SWAP1 PUSH1 0x20 ADD DUP1 DUP4 GT PUSH2 0x2419 JUMPI DUP3 SWAP1 SUB PUSH1 0x1F AND DUP3 ADD SWAP2 JUMPDEST POP POP POP POP POP DUP2 MSTORE PUSH1 0x20 ADD PUSH1 0xA DUP3 ADD DUP1 SLOAD PUSH2 0x244F SWAP1 PUSH2 0x5323 JUMP JUMPDEST DUP1 PUSH1 0x1F ADD PUSH1 0x20 DUP1 SWAP2 DIV MUL PUSH1 0x20 ADD PUSH1 0x40 MLOAD SWAP1 DUP2 ADD PUSH1 0x40 MSTORE DUP1 SWAP3 SWAP2 SWAP1 DUP2 DUP2 MSTORE PUSH1 0x20 ADD DUP3 DUP1 SLOAD PUSH2 0x247B SWAP1 PUSH2 0x5323 JUMP JUMPDEST DUP1 ISZERO PUSH2 0x24C8 JUMPI DUP1 PUSH1 0x1F LT PUSH2 0x249D JUMPI PUSH2 0x100 DUP1 DUP4 SLOAD DIV MUL DUP4 MSTORE SWAP2 PUSH1 0x20 ADD SWAP2 PUSH2 0x24C8 JUMP JUMPDEST DUP3 ADD SWAP2 SWAP1 PUSH1 0x0 MSTORE PUSH1 0x20 PUSH1 0x0 KECCAK256 SWAP1 JUMPDEST DUP2 SLOAD DUP2 MSTORE SWAP1 PUSH1 0x1 ADD SWAP1 PUSH1 0x20 ADD DUP1 DUP4 GT PUSH2 0x24AB JUMPI DUP3 SWAP1 SUB PUSH1 0x1F AND DUP3 ADD SWAP2 JUMPDEST POP POP POP POP POP DUP2 MSTORE PUSH1 0x20 ADD PUSH1 0xB DUP3 ADD DUP1 SLOAD PUSH2 0xC3E SWAP1 PUSH2 0x5323 JUMP JUMPDEST PUSH32 0xB717B2B458E4F190AC4E55E3AA1D4D28E207CEA5E79511D5CFE0F23587ABF2FF PUSH2 0x250B DUP2 PUSH2 0x3C81 JUMP JUMPDEST DUP2 PUSH1 0x7 DUP5 PUSH1 0x40 MLOAD PUSH2 0x251C SWAP2 SWAP1 PUSH2 0x52A7 JUMP JUMPDEST SWAP1 DUP2 MSTORE PUSH1 0x40 MLOAD SWAP1 DUP2 SWAP1 SUB PUSH1 0x20 ADD SWAP1 KECCAK256 DUP2 MLOAD DUP2 SWAP1 PUSH2 0x2539 SWAP1 DUP3 PUSH2 0x53AB JUMP JUMPDEST POP PUSH1 0x20 DUP3 ADD MLOAD PUSH1 0x1 DUP3 ADD SWAP1 PUSH2 0x254E SWAP1 DUP3 PUSH2 0x53AB JUMP JUMPDEST POP PUSH1 0x40 DUP3 ADD MLOAD PUSH1 0x2 DUP3 ADD SWAP1 PUSH2 0x2563 SWAP1 DUP3 PUSH2 0x53AB JUMP JUMPDEST POP PUSH1 0x60 DUP3 ADD MLOAD PUSH1 0x3 DUP3 ADD SWAP1 PUSH2 0x2578 SWAP1 DUP3 PUSH2 0x53AB JUMP JUMPDEST POP SWAP1 POP POP PUSH1 0x1 DUP4 PUSH1 0x40 MLOAD PUSH2 0x258C SWAP2 SWAP1 PUSH2 0x52A7 JUMP JUMPDEST SWAP1 DUP2 MSTORE PUSH1 0x40 MLOAD SWAP1 DUP2 SWAP1 SUB PUSH1 0x20 ADD SWAP1 KECCAK256 PUSH1 0x3 ADD SLOAD PUSH1 0xFF AND ISZERO PUSH2 0x1B5E JUMPI PUSH1 0x0 PUSH1 0x1 DUP5 PUSH1 0x40 MLOAD PUSH2 0x25B9 SWAP2 SWAP1 PUSH2 0x52A7 JUMP JUMPDEST SWAP1 DUP2 MSTORE PUSH1 0x20 ADD PUSH1 0x40 MLOAD DUP1 SWAP2 SUB SWAP1 KECCAK256 PUSH1 0x2 ADD DUP1 SLOAD PUSH2 0x25D5 SWAP1 PUSH2 0x5323 JUMP JUMPDEST DUP1 PUSH1 0x1F ADD PUSH1 0x20 DUP1 SWAP2 DIV MUL PUSH1 0x20 ADD PUSH1 0x40 MLOAD SWAP1 DUP2 ADD PUSH1 0x40 MSTORE DUP1 SWAP3 SWAP2 SWAP1 DUP2 DUP2 MSTORE PUSH1 0x20 ADD DUP3 DUP1 SLOAD PUSH2 0x2601 SWAP1 PUSH2 0x5323 JUMP JUMPDEST DUP1 ISZERO PUSH2 0x264E JUMPI DUP1 PUSH1 0x1F LT PUSH2 0x2623 JUMPI PUSH2 0x100 DUP1 DUP4 SLOAD DIV MUL DUP4 MSTORE SWAP2 PUSH1 0x20 ADD SWAP2 PUSH2 0x264E JUMP JUMPDEST DUP3 ADD SWAP2 SWAP1 PUSH1 0x0 MSTORE PUSH1 0x20 PUSH1 0x0 KECCAK256 SWAP1 JUMPDEST DUP2 SLOAD DUP2 MSTORE SWAP1 PUSH1 0x1 ADD SWAP1 PUSH1 0x20 ADD DUP1 DUP4 GT PUSH2 0x2631 JUMPI DUP3 SWAP1 SUB PUSH1 0x1F AND DUP3 ADD SWAP2 JUMPDEST POP POP POP POP POP SWAP1 POP PUSH1 0x40 MLOAD DUP1 PUSH1 0x40 ADD PUSH1 0x40 MSTORE DUP1 PUSH1 0xA DUP2 MSTORE PUSH1 0x20 ADD PUSH10 0x39B437B835B2B2B832B9 PUSH1 0xB1 SHL DUP2 MSTORE POP PUSH1 0x1 DUP6 PUSH1 0x40 MLOAD PUSH2 0x2688 SWAP2 SWAP1 PUSH2 0x52A7 JUMP JUMPDEST SWAP1 DUP2 MSTORE PUSH1 0x20 ADD PUSH1 0x40 MLOAD DUP1 SWAP2 SUB SWAP1 KECCAK256 PUSH1 0x2 ADD SWAP1 DUP2 PUSH2 0x26A5 SWAP2 SWAP1 PUSH2 0x53AB JUMP JUMPDEST POP DUP4 PUSH1 0x40 MLOAD PUSH2 0x26B4 SWAP2 SWAP1 PUSH2 0x52A7 JUMP JUMPDEST PUSH1 0x40 MLOAD DUP1 SWAP2 SUB SWAP1 KECCAK256 PUSH32 0xE16AD7AE21FA154AE9292DC4F86747AD006DF43BE1178BEDAF3A896B66A59D39 DUP3 PUSH1 0x40 MLOAD PUSH2 0x26EB SWAP2 SWAP1 PUSH2 0x566D JUMP JUMPDEST PUSH1 0x40 MLOAD DUP1 SWAP2 SUB SWAP1 LOG2 PUSH32 0xE536B4209389C3023920E52CDA66827A779E4352DD51552646CD17F76DF41D40 DUP5 DUP3 PUSH1 0x40 MLOAD PUSH2 0x1B54 SWAP3 SWAP2 SWAP1 PUSH2 0x56A9 JUMP JUMPDEST PUSH1 0x0 PUSH1 0x8 DUP3 PUSH1 0x40 MLOAD PUSH2 0x2736 SWAP2 SWAP1 PUSH2 0x52A7 JUMP JUMPDEST SWAP1 DUP2 MSTORE PUSH1 0x20 ADD PUSH1 0x40 MLOAD DUP1 SWAP2 SUB SWAP1 KECCAK256 SLOAD SWAP1 POP SWAP2 SWAP1 POP JUMP JUMPDEST PUSH1 0x0 PUSH1 0xE DUP3 PUSH1 0x40 MLOAD PUSH2 0x275E SWAP2 SWAP1 PUSH2 0x52A7 JUMP JUMPDEST SWAP1 DUP2 MSTORE PUSH1 0x40 MLOAD SWAP1 DUP2 SWAP1 SUB PUSH1 0x20 ADD SWAP1 KECCAK256 SLOAD PUSH1 0xFF AND SWAP3 SWAP2 POP POP JUMP JUMPDEST PUSH2 0x27BF PUSH1 0x40 MLOAD DUP1 PUSH2 0x100 ADD PUSH1 0x40 MSTORE DUP1 PUSH1 0x60 DUP2 MSTORE PUSH1 0x20 ADD PUSH1 0x60 DUP2 MSTORE PUSH1 0x20 ADD PUSH1 0x60 DUP2 MSTORE PUSH1 0x20 ADD PUSH1 0x60 DUP2 MSTORE PUSH1 0x20 ADD PUSH1 0x60 DUP2 MSTORE PUSH1 0x20 ADD PUSH1 0x60 DUP2 MSTORE PUSH1 0x20 ADD PUSH1 0x60 DUP2 MSTORE PUSH1 0x20 ADD PUSH1 0x0 DUP2 MSTORE POP SWAP1 JUMP JUMPDEST PUSH1 0x2 DUP3 PUSH1 0x40 MLOAD PUSH2 0x27CF SWAP2 SWAP1 PUSH2 0x52A7 JUMP JUMPDEST SWAP1 DUP2 MSTORE PUSH1 0x20 ADD PUSH1 0x40 MLOAD DUP1 SWAP2 SUB SWAP1 KECCAK256 PUSH1 0x40 MLOAD DUP1 PUSH2 0x100 ADD PUSH1 0x40 MSTORE SWAP1 DUP2 PUSH1 0x0 DUP3 ADD DUP1 SLOAD PUSH2 0x27F9 SWAP1 PUSH2 0x5323 JUMP JUMPDEST DUP1 PUSH1 0x1F ADD PUSH1 0x20 DUP1 SWAP2 DIV MUL PUSH1 0x20 ADD PUSH1 0x40 MLOAD SWAP1 DUP2 ADD PUSH1 0x40 MSTORE DUP1 SWAP3 SWAP2 SWAP1 DUP2 DUP2 MSTORE PUSH1 0x20 ADD DUP3 DUP1 SLOAD PUSH2 0x2825 SWAP1 PUSH2 0x5323 JUMP JUMPDEST DUP1 ISZERO PUSH2 0x2872 JUMPI DUP1 PUSH1 0x1F LT PUSH2 0x2847 JUMPI PUSH2 0x100 DUP1 DUP4 SLOAD DIV MUL DUP4 MSTORE SWAP2 PUSH1 0x20 ADD SWAP2 PUSH2 0x2872 JUMP JUMPDEST DUP3 ADD SWAP2 SWAP1 PUSH1 0x0 MSTORE PUSH1 0x20 PUSH1 0x0 KECCAK256 SWAP1 JUMPDEST DUP2 SLOAD DUP2 MSTORE SWAP1 PUSH1 0x1 ADD SWAP1 PUSH1 0x20 ADD DUP1 DUP4 GT PUSH2 0x2855 JUMPI DUP3 SWAP1 SUB PUSH1 0x1F AND DUP3 ADD SWAP2 JUMPDEST POP POP POP POP POP DUP2 MSTORE PUSH1 0x20 ADD PUSH1 0x1 DUP3 ADD DUP1 SLOAD PUSH2 0x288B SWAP1 PUSH2 0x5323 JUMP JUMPDEST DUP1 PUSH1 0x1F ADD PUSH1 0x20 DUP1 SWAP2 DIV MUL PUSH1 0x20 ADD PUSH1 0x40 MLOAD SWAP1 DUP2 ADD PUSH1 0x40 MSTORE DUP1 SWAP3 SWAP2 SWAP1 DUP2 DUP2 MSTORE PUSH1 0x20 ADD DUP3 DUP1 SLOAD PUSH2 0x28B7 SWAP1 PUSH2 0x5323 JUMP JUMPDEST DUP1 ISZERO PUSH2 0x2904 JUMPI DUP1 PUSH1 0x1F LT PUSH2 0x28D9 JUMPI PUSH2 0x100 DUP1 DUP4 SLOAD DIV MUL DUP4 MSTORE SWAP2 PUSH1 0x20 ADD SWAP2 PUSH2 0x2904 JUMP JUMPDEST DUP3 ADD SWAP2 SWAP1 PUSH1 0x0 MSTORE PUSH1 0x20 PUSH1 0x0 KECCAK256 SWAP1 JUMPDEST DUP2 SLOAD DUP2 MSTORE SWAP1 PUSH1 0x1 ADD SWAP1 PUSH1 0x20 ADD DUP1 DUP4 GT PUSH2 0x28E7 JUMPI DUP3 SWAP1 SUB PUSH1 0x1F AND DUP3 ADD SWAP2 JUMPDEST POP POP POP POP POP DUP2 MSTORE PUSH1 0x20 ADD PUSH1 0x2 DUP3 ADD DUP1 SLOAD PUSH2 0x291D SWAP1 PUSH2 0x5323 JUMP JUMPDEST DUP1 PUSH1 0x1F ADD PUSH1 0x20 DUP1 SWAP2 DIV MUL PUSH1 0x20 ADD PUSH1 0x40 MLOAD SWAP1 DUP2 ADD PUSH1 0x40 MSTORE DUP1 SWAP3 SWAP2 SWAP1 DUP2 DUP2 MSTORE PUSH1 0x20 ADD DUP3 DUP1 SLOAD PUSH2 0x2949 SWAP1 PUSH2 0x5323 JUMP JUMPDEST DUP1 ISZERO PUSH2 0x2996 JUMPI DUP1 PUSH1 0x1F LT PUSH2 0x296B JUMPI PUSH2 0x100 DUP1 DUP4 SLOAD DIV MUL DUP4 MSTORE SWAP2 PUSH1 0x20 ADD SWAP2 PUSH2 0x2996 JUMP JUMPDEST DUP3 ADD SWAP2 SWAP1 PUSH1 0x0 MSTORE PUSH1 0x20 PUSH1 0x0 KECCAK256 SWAP1 JUMPDEST DUP2 SLOAD DUP2 MSTORE SWAP1 PUSH1 0x1 ADD SWAP1 PUSH1 0x20 ADD DUP1 DUP4 GT PUSH2 0x2979 JUMPI DUP3 SWAP1 SUB PUSH1 0x1F AND DUP3 ADD SWAP2 JUMPDEST POP POP POP POP POP DUP2 MSTORE PUSH1 0x20 ADD PUSH1 0x3 DUP3 ADD DUP1 SLOAD PUSH2 0x29AF SWAP1 PUSH2 0x5323 JUMP JUMPDEST DUP1 PUSH1 0x1F ADD PUSH1 0x20 DUP1 SWAP2 DIV MUL PUSH1 0x20 ADD PUSH1 0x40 MLOAD SWAP1 DUP2 ADD PUSH1 0x40 MSTORE DUP1 SWAP3 SWAP2 SWAP1 DUP2 DUP2 MSTORE PUSH1 0x20 ADD DUP3 DUP1 SLOAD PUSH2 0x29DB SWAP1 PUSH2 0x5323 JUMP JUMPDEST DUP1 ISZERO PUSH2 0x2A28 JUMPI DUP1 PUSH1 0x1F LT PUSH2 0x29FD JUMPI PUSH2 0x100 DUP1 DUP4 SLOAD DIV MUL DUP4 MSTORE SWAP2 PUSH1 0x20 ADD SWAP2 PUSH2 0x2A28 JUMP JUMPDEST DUP3 ADD SWAP2 SWAP1 PUSH1 0x0 MSTORE PUSH1 0x20 PUSH1 0x0 KECCAK256 SWAP1 JUMPDEST DUP2 SLOAD DUP2 MSTORE SWAP1 PUSH1 0x1 ADD SWAP1 PUSH1 0x20 ADD DUP1 DUP4 GT PUSH2 0x2A0B JUMPI DUP3 SWAP1 SUB PUSH1 0x1F AND DUP3 ADD SWAP2 JUMPDEST POP POP POP POP POP DUP2 MSTORE PUSH1 0x20 ADD PUSH1 0x4 DUP3 ADD DUP1 SLOAD PUSH2 0x2A41 SWAP1 PUSH2 0x5323 JUMP JUMPDEST DUP1 PUSH1 0x1F ADD PUSH1 0x20 DUP1 SWAP2 DIV MUL PUSH1 0x20 ADD PUSH1 0x40 MLOAD SWAP1 DUP2 ADD PUSH1 0x40 MSTORE DUP1 SWAP3 SWAP2 SWAP1 DUP2 DUP2 MSTORE PUSH1 0x20 ADD DUP3 DUP1 SLOAD PUSH2 0x2A6D SWAP1 PUSH2 0x5323 JUMP JUMPDEST DUP1 ISZERO PUSH2 0x2ABA JUMPI DUP1 PUSH1 0x1F LT PUSH2 0x2A8F JUMPI PUSH2 0x100 DUP1 DUP4 SLOAD DIV MUL DUP4 MSTORE SWAP2 PUSH1 0x20 ADD SWAP2 PUSH2 0x2ABA JUMP JUMPDEST DUP3 ADD SWAP2 SWAP1 PUSH1 0x0 MSTORE PUSH1 0x20 PUSH1 0x0 KECCAK256 SWAP1 JUMPDEST DUP2 SLOAD DUP2 MSTORE SWAP1 PUSH1 0x1 ADD SWAP1 PUSH1 0x20 ADD DUP1 DUP4 GT PUSH2 0x2A9D JUMPI DUP3 SWAP1 SUB PUSH1 0x1F AND DUP3 ADD SWAP2 JUMPDEST POP POP POP POP POP DUP2 MSTORE PUSH1 0x20 ADD PUSH1 0x5 DUP3 ADD DUP1 SLOAD PUSH2 0x2AD3 SWAP1 PUSH2 0x5323 JUMP JUMPDEST DUP1 PUSH1 0x1F ADD PUSH1 0x20 DUP1 SWAP2 DIV MUL PUSH1 0x20 ADD PUSH1 0x40 MLOAD SWAP1 DUP2 ADD PUSH1 0x40 MSTORE DUP1 SWAP3 SWAP2 SWAP1 DUP2 DUP2 MSTORE PUSH1 0x20 ADD DUP3 DUP1 SLOAD PUSH2 0x2AFF SWAP1 PUSH2 0x5323 JUMP JUMPDEST DUP1 ISZERO PUSH2 0x2B4C JUMPI DUP1 PUSH1 0x1F LT PUSH2 0x2B21 JUMPI PUSH2 0x100 DUP1 DUP4 SLOAD DIV MUL DUP4 MSTORE SWAP2 PUSH1 0x20 ADD SWAP2 PUSH2 0x2B4C JUMP JUMPDEST DUP3 ADD SWAP2 SWAP1 PUSH1 0x0 MSTORE PUSH1 0x20 PUSH1 0x0 KECCAK256 SWAP1 JUMPDEST DUP2 SLOAD DUP2 MSTORE SWAP1 PUSH1 0x1 ADD SWAP1 PUSH1 0x20 ADD DUP1 DUP4 GT PUSH2 0x2B2F JUMPI DUP3 SWAP1 SUB PUSH1 0x1F AND DUP3 ADD SWAP2 JUMPDEST POP POP POP POP POP DUP2 MSTORE PUSH1 0x20 ADD PUSH1 0x6 DUP3 ADD DUP1 SLOAD PUSH2 0x2B65 SWAP1 PUSH2 0x5323 JUMP JUMPDEST DUP1 PUSH1 0x1F ADD PUSH1 0x20 DUP1 SWAP2 DIV MUL PUSH1 0x20 ADD PUSH1 0x40 MLOAD SWAP1 DUP2 ADD PUSH1 0x40 MSTORE DUP1 SWAP3 SWAP2 SWAP1 DUP2 DUP2 MSTORE PUSH1 0x20 ADD DUP3 DUP1 SLOAD PUSH2 0x2B91 SWAP1 PUSH2 0x5323 JUMP JUMPDEST DUP1 ISZERO PUSH2 0x2BDE JUMPI DUP1 PUSH1 0x1F LT PUSH2 0x2BB3 JUMPI PUSH2 0x100 DUP1 DUP4 SLOAD DIV MUL DUP4 MSTORE SWAP2 PUSH1 0x20 ADD SWAP2 PUSH2 0x2BDE JUMP JUMPDEST DUP3 ADD SWAP2 SWAP1 PUSH1 0x0 MSTORE PUSH1 0x20 PUSH1 0x0 KECCAK256 SWAP1 JUMPDEST DUP2 SLOAD DUP2 MSTORE SWAP1 PUSH1 0x1 ADD SWAP1 PUSH1 0x20 ADD DUP1 DUP4 GT PUSH2 0x2BC1 JUMPI DUP3 SWAP1 SUB PUSH1 0x1F AND DUP3 ADD SWAP2 JUMPDEST POP POP POP POP POP DUP2 MSTORE PUSH1 0x20 ADD PUSH1 0x7 DUP3 ADD SLOAD DUP2 MSTORE POP POP SWAP1 POP SWAP2 SWAP1 POP JUMP JUMPDEST PUSH32 0xB717B2B458E4F190AC4E55E3AA1D4D28E207CEA5E79511D5CFE0F23587ABF2FF PUSH2 0x2C22 DUP2 PUSH2 0x3C81 JUMP JUMPDEST PUSH1 0x1 DUP4 PUSH1 0x40 MLOAD PUSH2 0x2C32 SWAP2 SWAP1 PUSH2 0x52A7 JUMP JUMPDEST SWAP1 DUP2 MSTORE PUSH1 0x40 MLOAD SWAP1 DUP2 SWAP1 SUB PUSH1 0x20 ADD SWAP1 KECCAK256 PUSH1 0x3 ADD SLOAD PUSH1 0xFF AND PUSH2 0x2C8C JUMPI PUSH1 0x40 MLOAD PUSH3 0x461BCD PUSH1 0xE5 SHL DUP2 MSTORE PUSH1 0x20 PUSH1 0x4 DUP3 ADD MSTORE PUSH1 0x15 PUSH1 0x24 DUP3 ADD MSTORE PUSH21 0x141858DAD95D08191BD95CC81B9BDD08195E1A5CDD PUSH1 0x5A SHL PUSH1 0x44 DUP3 ADD MSTORE PUSH1 0x64 ADD PUSH2 0x5E4 JUMP JUMPDEST PUSH1 0x40 DUP1 MLOAD DUP1 DUP3 ADD DUP3 MSTORE PUSH1 0xA DUP2 MSTORE PUSH10 0x39B437B835B2B2B832B9 PUSH1 0xB1 SHL PUSH1 0x20 SWAP1 SWAP2 ADD MSTORE MLOAD PUSH32 0x8959C13DBD6A46647D1482A54B4BE23463DBDC514352D0EC0181D3D928132D9D SWAP1 PUSH1 0x1 SWAP1 PUSH2 0x2CDE SWAP1 DUP7 SWAP1 PUSH2 0x52A7 JUMP JUMPDEST SWAP1 DUP2 MSTORE PUSH1 0x20 ADD PUSH1 0x40 MLOAD DUP1 SWAP2 SUB SWAP1 KECCAK256 PUSH1 0x2 ADD PUSH1 0x40 MLOAD PUSH2 0x2CFC SWAP2 SWAP1 PUSH2 0x576B JUMP JUMPDEST PUSH1 0x40 MLOAD DUP1 SWAP2 SUB SWAP1 KECCAK256 EQ PUSH2 0x2D51 JUMPI PUSH1 0x40 MLOAD PUSH3 0x461BCD PUSH1 0xE5 SHL DUP2 MSTORE PUSH1 0x20 PUSH1 0x4 DUP3 ADD MSTORE PUSH1 0x1E PUSH1 0x24 DUP3 ADD MSTORE PUSH32 0x5061636B6574206E6F742061742073686F706B65657065722073746167650000 PUSH1 0x44 DUP3 ADD MSTORE PUSH1 0x64 ADD PUSH2 0x5E4 JUMP JUMPDEST PUSH1 0xE DUP4 PUSH1 0x40 MLOAD PUSH2 0x2D61 SWAP2 SWAP1 PUSH2 0x52A7 JUMP JUMPDEST SWAP1 DUP2 MSTORE PUSH1 0x40 MLOAD SWAP1 DUP2 SWAP1 SUB PUSH1 0x20 ADD SWAP1 KECCAK256 SLOAD PUSH1 0xFF AND ISZERO PUSH2 0x2DB7 JUMPI PUSH1 0x40 MLOAD PUSH3 0x461BCD PUSH1 0xE5 SHL DUP2 MSTORE PUSH1 0x20 PUSH1 0x4 DUP3 ADD MSTORE PUSH1 0x13 PUSH1 0x24 DUP3 ADD MSTORE PUSH19 0x141858DAD95D08185B1C9958591E481CDBDB19 PUSH1 0x6A SHL PUSH1 0x44 DUP3 ADD MSTORE PUSH1 0x64 ADD PUSH2 0x5E4 JUMP JUMPDEST PUSH1 0x1 PUSH1 0xE DUP5 PUSH1 0x40 MLOAD PUSH2 0x2DC9 SWAP2 SWAP1 PUSH2 0x52A7 JUMP JUMPDEST SWAP1 DUP2 MSTORE PUSH1 0x40 MLOAD SWAP1 DUP2 SWAP1 SUB PUSH1 0x20 ADD DUP2 KECCAK256 DUP1 SLOAD SWAP3 ISZERO ISZERO PUSH1 0xFF NOT SWAP1 SWAP4 AND SWAP3 SWAP1 SWAP3 OR SWAP1 SWAP2 SSTORE PUSH1 0x1 SWAP1 PUSH2 0x2DF8 SWAP1 DUP6 SWAP1 PUSH2 0x52A7 JUMP JUMPDEST SWAP1 DUP2 MSTORE PUSH1 0x20 ADD PUSH1 0x40 MLOAD DUP1 SWAP2 SUB SWAP1 KECCAK256 PUSH1 0x1 ADD PUSH1 0x40 MLOAD PUSH2 0x2E16 SWAP2 SWAP1 PUSH2 0x576B JUMP JUMPDEST PUSH1 0x40 MLOAD DUP1 SWAP2 SUB SWAP1 KECCAK256 DUP4 PUSH1 0x40 MLOAD PUSH2 0x2E2C SWAP2 SWAP1 PUSH2 0x52A7 JUMP JUMPDEST PUSH1 0x40 MLOAD DUP1 SWAP2 SUB SWAP1 KECCAK256 PUSH32 0x8CC80F545BE67E6356A88CE2005463AAB40A69E44FC5EF5CF847D2D0606F7618 DUP5 PUSH1 0x40 MLOAD PUSH2 0x2E63 SWAP2 SWAP1 PUSH2 0x5777 JUMP JUMPDEST PUSH1 0x40 MLOAD DUP1 SWAP2 SUB SWAP1 LOG3 POP POP POP JUMP JUMPDEST PUSH1 0x0 SWAP2 DUP3 MSTORE PUSH1 0x20 DUP3 DUP2 MSTORE PUSH1 0x40 DUP1 DUP5 KECCAK256 PUSH1 0x1 PUSH1 0x1 PUSH1 0xA0 SHL SUB SWAP4 SWAP1 SWAP4 AND DUP5 MSTORE SWAP2 SWAP1 MSTORE SWAP1 KECCAK256 SLOAD PUSH1 0xFF AND SWAP1 JUMP JUMPDEST PUSH2 0x2EC6 PUSH1 0x40 MLOAD DUP1 PUSH1 0x80 ADD PUSH1 0x40 MSTORE DUP1 PUSH1 0x60 DUP2 MSTORE PUSH1 0x20 ADD PUSH1 0x60 DUP2 MSTORE PUSH1 0x20 ADD PUSH1 0x60 DUP2 MSTORE PUSH1 0x20 ADD PUSH1 0x0 ISZERO ISZERO DUP2 MSTORE POP SWAP1 JUMP JUMPDEST PUSH1 0x1 DUP3 PUSH1 0x40 MLOAD PUSH2 0x2ED6 SWAP2 SWAP1 PUSH2 0x52A7 JUMP JUMPDEST SWAP1 DUP2 MSTORE PUSH1 0x20 ADD PUSH1 0x40 MLOAD DUP1 SWAP2 SUB SWAP1 KECCAK256 PUSH1 0x40 MLOAD DUP1 PUSH1 0x80 ADD PUSH1 0x40 MSTORE SWAP1 DUP2 PUSH1 0x0 DUP3 ADD DUP1 SLOAD PUSH2 0x2EFF SWAP1 PUSH2 0x5323 JUMP JUMPDEST DUP1 PUSH1 0x1F ADD PUSH1 0x20 DUP1 SWAP2 DIV MUL PUSH1 0x20 ADD PUSH1 0x40 MLOAD SWAP1 DUP2 ADD PUSH1 0x40 MSTORE DUP1 SWAP3 SWAP2 SWAP1 DUP2 DUP2 MSTORE PUSH1 0x20 ADD DUP3 DUP1 SLOAD PUSH2 0x2F2B SWAP1 PUSH2 0x5323 JUMP JUMPDEST DUP1 ISZERO PUSH2 0x2F78 JUMPI DUP1 PUSH1 0x1F LT PUSH2 0x2F4D JUMPI PUSH2 0x100 DUP1 DUP4 SLOAD DIV MUL DUP4 MSTORE SWAP2 PUSH1 0x20 ADD SWAP2 PUSH2 0x2F78 JUMP JUMPDEST DUP3 ADD SWAP2 SWAP1 PUSH1 0x0 MSTORE PUSH1 0x20 PUSH1 0x0 KECCAK256 SWAP1 JUMPDEST DUP2 SLOAD DUP2 MSTORE SWAP1 PUSH1 0x1 ADD SWAP1 PUSH1 0x20 ADD DUP1 DUP4 GT PUSH2 0x2F5B JUMPI DUP3 SWAP1 SUB PUSH1 0x1F AND DUP3 ADD SWAP2 JUMPDEST POP POP POP POP POP DUP2 MSTORE PUSH1 0x20 ADD PUSH1 0x1 DUP3 ADD DUP1 SLOAD PUSH2 0x2F91 SWAP1 PUSH2 0x5323 JUMP JUMPDEST DUP1 PUSH1 0x1F ADD PUSH1 0x20 DUP1 SWAP2 DIV MUL PUSH1 0x20 ADD PUSH1 0x40 MLOAD SWAP1 DUP2 ADD PUSH1 0x40 MSTORE DUP1 SWAP3 SWAP2 SWAP1 DUP2 DUP2 MSTORE PUSH1 0x20 ADD DUP3 DUP1 SLOAD PUSH2 0x2FBD SWAP1 PUSH2 0x5323 JUMP JUMPDEST DUP1 ISZERO PUSH2 0x300A JUMPI DUP1 PUSH1 0x1F LT PUSH2 0x2FDF JUMPI PUSH2 0x100 DUP1 DUP4 SLOAD DIV MUL DUP4 MSTORE SWAP2 PUSH1 0x20 ADD SWAP2 PUSH2 0x300A JUMP JUMPDEST DUP3 ADD SWAP2 SWAP1 PUSH1 0x0 MSTORE PUSH1 0x20 PUSH1 0x0 KECCAK256 SWAP1 JUMPDEST DUP2 SLOAD DUP2 MSTORE SWAP1 PUSH1 0x1 ADD SWAP1 PUSH1 0x20 ADD DUP1 DUP4 GT PUSH2 0x2FED JUMPI DUP3 SWAP1 SUB PUSH1 0x1F AND DUP3 ADD SWAP2 JUMPDEST POP POP POP POP POP DUP2 MSTORE PUSH1 0x20 ADD PUSH1 0x2 DUP3 ADD DUP1 SLOAD PUSH2 0x3023 SWAP1 PUSH2 0x5323 JUMP JUMPDEST DUP1 PUSH1 0x1F ADD PUSH1 0x20 DUP1 SWAP2 DIV MUL PUSH1 0x20 ADD PUSH1 0x40 MLOAD SWAP1 DUP2 ADD PUSH1 0x40 MSTORE DUP1 SWAP3 SWAP2 SWAP1 DUP2 DUP2 MSTORE PUSH1 0x20 ADD DUP3 DUP1 SLOAD PUSH2 0x304F SWAP1 PUSH2 0x5323 JUMP JUMPDEST DUP1 ISZERO PUSH2 0x309C JUMPI DUP1 PUSH1 0x1F LT PUSH2 0x3071 JUMPI PUSH2 0x100 DUP1 DUP4 SLOAD DIV MUL DUP4 MSTORE SWAP2 PUSH1 0x20 ADD SWAP2 PUSH2 0x309C JUMP JUMPDEST DUP3 ADD SWAP2 SWAP1 PUSH1 0x0 MSTORE PUSH1 0x20 PUSH1 0x0 KECCAK256 SWAP1 JUMPDEST DUP2 SLOAD DUP2 MSTORE SWAP1 PUSH1 0x1 ADD SWAP1 PUSH1 0x20 ADD DUP1 DUP4 GT PUSH2 0x307F JUMPI DUP3 SWAP1 SUB PUSH1 0x1F AND DUP3 ADD SWAP2 JUMPDEST POP POP POP SWAP2 DUP4 MSTORE POP POP PUSH1 0x3 SWAP2 SWAP1 SWAP2 ADD SLOAD PUSH1 0xFF AND ISZERO ISZERO PUSH1 0x20 SWAP1 SWAP2 ADD MSTORE SWAP3 SWAP2 POP POP JUMP JUMPDEST PUSH32 0xD1AE8BBDABD60D63E418B84F5AD6F9CBA90092C9816D7724D85F0D4E4BEA2C60 PUSH2 0x30E6 DUP2 PUSH2 0x3C81 JUMP JUMPDEST DUP2 PUSH1 0x6 DUP5 PUSH1 0x40 MLOAD PUSH2 0x30F7 SWAP2 SWAP1 PUSH2 0x52A7 JUMP JUMPDEST SWAP1 DUP2 MSTORE PUSH1 0x40 MLOAD SWAP1 DUP2 SWAP1 SUB PUSH1 0x20 ADD SWAP1 KECCAK256 DUP2 MLOAD DUP2 SWAP1 PUSH2 0x3114 SWAP1 DUP3 PUSH2 0x53AB JUMP JUMPDEST POP PUSH1 0x20 DUP3 ADD MLOAD PUSH1 0x1 DUP3 ADD SWAP1 PUSH2 0x3129 SWAP1 DUP3 PUSH2 0x53AB JUMP JUMPDEST POP PUSH1 0x40 DUP3 ADD MLOAD PUSH1 0x2 DUP3 ADD SWAP1 PUSH2 0x313E SWAP1 DUP3 PUSH2 0x53AB JUMP JUMPDEST POP PUSH1 0x60 DUP3 ADD MLOAD PUSH1 0x3 DUP3 ADD SWAP1 PUSH2 0x3153 SWAP1 DUP3 PUSH2 0x53AB JUMP JUMPDEST POP PUSH1 0x80 DUP3 ADD MLOAD PUSH1 0x4 DUP3 ADD SWAP1 PUSH2 0x3168 SWAP1 DUP3 PUSH2 0x53AB JUMP JUMPDEST POP PUSH1 0xA0 DUP3 ADD MLOAD PUSH1 0x5 DUP3 ADD SWAP1 PUSH2 0x317D SWAP1 DUP3 PUSH2 0x53AB JUMP JUMPDEST POP SWAP1 POP POP PUSH1 0x1 DUP4 PUSH1 0x40 MLOAD PUSH2 0x3191 SWAP2 SWAP1 PUSH2 0x52A7 JUMP JUMPDEST SWAP1 DUP2 MSTORE PUSH1 0x40 MLOAD SWAP1 DUP2 SWAP1 SUB PUSH1 0x20 ADD SWAP1 KECCAK256 PUSH1 0x3 ADD SLOAD PUSH1 0xFF AND ISZERO PUSH2 0x1B5E JUMPI PUSH1 0x0 PUSH1 0x1 DUP5 PUSH1 0x40 MLOAD PUSH2 0x31BE SWAP2 SWAP1 PUSH2 0x52A7 JUMP JUMPDEST SWAP1 DUP2 MSTORE PUSH1 0x20 ADD PUSH1 0x40 MLOAD DUP1 SWAP2 SUB SWAP1 KECCAK256 PUSH1 0x2 ADD DUP1 SLOAD PUSH2 0x31DA SWAP1 PUSH2 0x5323 JUMP JUMPDEST DUP1 PUSH1 0x1F ADD PUSH1 0x20 DUP1 SWAP2 DIV MUL PUSH1 0x20 ADD PUSH1 0x40 MLOAD SWAP1 DUP2 ADD PUSH1 0x40 MSTORE DUP1 SWAP3 SWAP2 SWAP1 DUP2 DUP2 MSTORE PUSH1 0x20 ADD DUP3 DUP1 SLOAD PUSH2 0x3206 SWAP1 PUSH2 0x5323 JUMP JUMPDEST DUP1 ISZERO PUSH2 0x3253 JUMPI DUP1 PUSH1 0x1F LT PUSH2 0x3228 JUMPI PUSH2 0x100 DUP1 DUP4 SLOAD DIV MUL DUP4 MSTORE SWAP2 PUSH1 0x20 ADD SWAP2 PUSH2 0x3253 JUMP JUMPDEST DUP3 ADD SWAP2 SWAP1 PUSH1 0x0 MSTORE PUSH1 0x20 PUSH1 0x0 KECCAK256 SWAP1 JUMPDEST DUP2 SLOAD DUP2 MSTORE SWAP1 PUSH1 0x1 ADD SWAP1 PUSH1 0x20 ADD DUP1 DUP4 GT PUSH2 0x3236 JUMPI DUP3 SWAP1 SUB PUSH1 0x1F AND DUP3 ADD SWAP2 JUMPDEST POP POP POP POP POP SWAP1 POP PUSH1 0x40 MLOAD DUP1 PUSH1 0x40 ADD PUSH1 0x40 MSTORE DUP1 PUSH1 0x8 DUP2 MSTORE PUSH1 0x20 ADD PUSH8 0x39BAB8383634B2B9 PUSH1 0xC1 SHL DUP2 MSTORE POP PUSH1 0x1 DUP6 PUSH1 0x40 MLOAD PUSH2 0x328B SWAP2 SWAP1 PUSH2 0x52A7 JUMP JUMPDEST SWAP1 DUP2 MSTORE PUSH1 0x20 ADD PUSH1 0x40 MLOAD DUP1 SWAP2 SUB SWAP1 KECCAK256 PUSH1 0x2 ADD SWAP1 DUP2 PUSH2 0x32A8 SWAP2 SWAP1 PUSH2 0x53AB JUMP JUMPDEST POP DUP4 PUSH1 0x40 MLOAD PUSH2 0x32B7 SWAP2 SWAP1 PUSH2 0x52A7 JUMP JUMPDEST PUSH1 0x40 MLOAD DUP1 SWAP2 SUB SWAP1 KECCAK256 PUSH32 0xE16AD7AE21FA154AE9292DC4F86747AD006DF43BE1178BEDAF3A896B66A59D39 DUP3 PUSH1 0x40 MLOAD PUSH2 0x32EE SWAP2 SWAP1 PUSH2 0x578A JUMP JUMPDEST PUSH1 0x40 MLOAD DUP1 SWAP2 SUB SWAP1 LOG2 PUSH32 0xE536B4209389C3023920E52CDA66827A779E4352DD51552646CD17F76DF41D40 DUP5 DUP3 PUSH1 0x40 MLOAD PUSH2 0x1B54 SWAP3 SWAP2 SWAP1 PUSH2 0x57C4 JUMP JUMPDEST PUSH2 0x3360 PUSH1 0x40 MLOAD DUP1 PUSH1 0xC0 ADD PUSH1 0x40 MSTORE DUP1 PUSH1 0x60 DUP2 MSTORE PUSH1 0x20 ADD PUSH1 0x60 DUP2 MSTORE PUSH1 0x20 ADD PUSH1 0x60 DUP2 MSTORE PUSH1 0x20 ADD PUSH1 0x60 DUP2 MSTORE PUSH1 0x20 ADD PUSH1 0x60 DUP2 MSTORE PUSH1 0x20 ADD PUSH1 0x60 DUP2 MSTORE POP SWAP1 JUMP JUMPDEST PUSH1 0x6 DUP3 PUSH1 0x40 MLOAD PUSH2 0x1C0A SWAP2 SWAP1 PUSH2 0x52A7 JUMP JUMPDEST PUSH1 0x0 DUP1 MLOAD PUSH1 0x20 PUSH2 0x59BB DUP4 CODECOPY DUP2 MLOAD SWAP2 MSTORE PUSH2 0x3388 DUP2 PUSH2 0x3C81 JUMP JUMPDEST PUSH1 0xC DUP4 PUSH1 0x40 MLOAD PUSH2 0x3398 SWAP2 SWAP1 PUSH2 0x52A7 JUMP JUMPDEST SWAP1 DUP2 MSTORE PUSH1 0x40 MLOAD SWAP1 DUP2 SWAP1 SUB PUSH1 0x20 ADD SWAP1 KECCAK256 SLOAD PUSH1 0xFF AND ISZERO PUSH2 0x33C8 JUMPI PUSH1 0x40 MLOAD PUSH3 0x461BCD PUSH1 0xE5 SHL DUP2 MSTORE PUSH1 0x4 ADD PUSH2 0x5E4 SWAP1 PUSH2 0x52C3 JUMP JUMPDEST PUSH1 0xB DUP3 PUSH1 0x20 ADD MLOAD PUSH1 0x40 MLOAD PUSH2 0x33DC SWAP2 SWAP1 PUSH2 0x52A7 JUMP JUMPDEST SWAP1 DUP2 MSTORE PUSH1 0x40 MLOAD SWAP1 DUP2 SWAP1 SUB PUSH1 0x20 ADD SWAP1 KECCAK256 SLOAD PUSH1 0xFF AND PUSH2 0x3436 JUMPI PUSH1 0x40 MLOAD PUSH3 0x461BCD PUSH1 0xE5 SHL DUP2 MSTORE PUSH1 0x20 PUSH1 0x4 DUP3 ADD MSTORE PUSH1 0x18 PUSH1 0x24 DUP3 ADD MSTORE PUSH24 0x2130BA31B41024A2103237B2B9903737BA1032BC34B9BA17 PUSH1 0x41 SHL PUSH1 0x44 DUP3 ADD MSTORE PUSH1 0x64 ADD PUSH2 0x5E4 JUMP JUMPDEST PUSH1 0x1 PUSH1 0xC DUP5 PUSH1 0x40 MLOAD PUSH2 0x3448 SWAP2 SWAP1 PUSH2 0x52A7 JUMP JUMPDEST SWAP1 DUP2 MSTORE PUSH1 0x40 MLOAD PUSH1 0x20 SWAP2 DUP2 SWAP1 SUB DUP3 ADD DUP2 KECCAK256 DUP1 SLOAD PUSH1 0xFF NOT AND SWAP4 ISZERO ISZERO SWAP4 SWAP1 SWAP4 OR SWAP1 SWAP3 SSTORE DUP4 ADD MLOAD PUSH1 0x8 SWAP2 PUSH2 0x3478 SWAP2 SWAP1 PUSH2 0x52A7 JUMP JUMPDEST SWAP1 DUP2 MSTORE PUSH1 0x20 ADD PUSH1 0x40 MLOAD DUP1 SWAP2 SUB SWAP1 KECCAK256 SLOAD PUSH1 0x1 PUSH2 0x3493 SWAP2 SWAP1 PUSH2 0x5310 JUMP JUMPDEST PUSH1 0x8 DUP4 PUSH1 0x20 ADD MLOAD PUSH1 0x40 MLOAD PUSH2 0x34A7 SWAP2 SWAP1 PUSH2 0x52A7 JUMP JUMPDEST SWAP1 DUP2 MSTORE PUSH1 0x20 ADD PUSH1 0x40 MLOAD DUP1 SWAP2 SUB SWAP1 KECCAK256 DUP2 SWAP1 SSTORE POP DUP2 PUSH1 0x1 DUP5 PUSH1 0x40 MLOAD PUSH2 0x34CA SWAP2 SWAP1 PUSH2 0x52A7 JUMP JUMPDEST SWAP1 DUP2 MSTORE PUSH1 0x40 MLOAD SWAP1 DUP2 SWAP1 SUB PUSH1 0x20 ADD SWAP1 KECCAK256 DUP2 MLOAD DUP2 SWAP1 PUSH2 0x34E7 SWAP1 DUP3 PUSH2 0x53AB JUMP JUMPDEST POP PUSH1 0x20 DUP3 ADD MLOAD PUSH1 0x1 DUP3 ADD SWAP1 PUSH2 0x34FC SWAP1 DUP3 PUSH2 0x53AB JUMP JUMPDEST POP PUSH1 0x40 DUP3 ADD MLOAD PUSH1 0x2 DUP3 ADD SWAP1 PUSH2 0x3511 SWAP1 DUP3 PUSH2 0x53AB JUMP JUMPDEST POP PUSH1 0x60 SWAP2 SWAP1 SWAP2 ADD MLOAD PUSH1 0x3 SWAP1 SWAP2 ADD DUP1 SLOAD PUSH1 0xFF NOT AND SWAP2 ISZERO ISZERO SWAP2 SWAP1 SWAP2 OR SWAP1 SSTORE DUP2 MLOAD PUSH1 0x40 MLOAD PUSH2 0x353C SWAP2 SWAP1 PUSH2 0x52A7 JUMP JUMPDEST PUSH1 0x40 MLOAD DUP1 SWAP2 SUB SWAP1 KECCAK256 PUSH1 0x0 DUP1 MLOAD PUSH1 0x20 PUSH2 0x59DB DUP4 CODECOPY DUP2 MLOAD SWAP2 MSTORE DUP4 PUSH1 0x20 ADD MLOAD DUP5 PUSH1 0x40 ADD MLOAD PUSH1 0x40 MLOAD PUSH2 0x356B SWAP3 SWAP2 SWAP1 PUSH2 0x5812 JUMP JUMPDEST PUSH1 0x40 MLOAD DUP1 SWAP2 SUB SWAP1 LOG2 PUSH1 0x0 DUP1 MLOAD PUSH1 0x20 PUSH2 0x599B DUP4 CODECOPY DUP2 MLOAD SWAP2 MSTORE DUP3 PUSH1 0x0 ADD MLOAD DUP4 PUSH1 0x20 ADD MLOAD DUP5 PUSH1 0x40 ADD MLOAD PUSH1 0x40 MLOAD PUSH2 0x35A0 SWAP4 SWAP3 SWAP2 SWAP1 PUSH2 0x5837 JUMP JUMPDEST PUSH1 0x40 MLOAD DUP1 SWAP2 SUB SWAP1 LOG1 DUP2 PUSH1 0x20 ADD MLOAD PUSH1 0x40 MLOAD PUSH2 0x35BA SWAP2 SWAP1 PUSH2 0x52A7 JUMP JUMPDEST PUSH1 0x40 MLOAD DUP1 SWAP2 SUB SWAP1 KECCAK256 PUSH1 0x0 DUP1 MLOAD PUSH1 0x20 PUSH2 0x59FB DUP4 CODECOPY DUP2 MLOAD SWAP2 MSTORE PUSH1 0x8 DUP5 PUSH1 0x20 ADD MLOAD PUSH1 0x40 MLOAD PUSH2 0x9CC SWAP2 SWAP1 PUSH2 0x52A7 JUMP JUMPDEST PUSH1 0x0 DUP1 MLOAD PUSH1 0x20 PUSH2 0x59BB DUP4 CODECOPY DUP2 MLOAD SWAP2 MSTORE PUSH2 0x35FD DUP2 PUSH2 0x3C81 JUMP JUMPDEST PUSH1 0xB DUP5 PUSH1 0x40 MLOAD PUSH2 0x360D SWAP2 SWAP1 PUSH2 0x52A7 JUMP JUMPDEST SWAP1 DUP2 MSTORE PUSH1 0x40 MLOAD SWAP1 DUP2 SWAP1 SUB PUSH1 0x20 ADD SWAP1 KECCAK256 SLOAD PUSH1 0xFF AND PUSH2 0x3664 JUMPI PUSH1 0x40 MLOAD PUSH3 0x461BCD PUSH1 0xE5 SHL DUP2 MSTORE PUSH1 0x20 PUSH1 0x4 DUP3 ADD MSTORE PUSH1 0x15 PUSH1 0x24 DUP3 ADD MSTORE PUSH21 0x2130BA31B4103237B2B9903737BA1032BC34B9BA17 PUSH1 0x59 SHL PUSH1 0x44 DUP3 ADD MSTORE PUSH1 0x64 ADD PUSH2 0x5E4 JUMP JUMPDEST PUSH1 0x0 JUMPDEST DUP3 DUP2 LT ISZERO PUSH2 0x38AF JUMPI PUSH1 0x0 DUP5 DUP5 DUP4 DUP2 DUP2 LT PUSH2 0x3683 JUMPI PUSH2 0x3683 PUSH2 0x587A JUMP JUMPDEST SWAP1 POP PUSH1 0x20 MUL DUP2 ADD SWAP1 PUSH2 0x3695 SWAP2 SWAP1 PUSH2 0x5890 JUMP JUMPDEST DUP1 DUP1 PUSH1 0x1F ADD PUSH1 0x20 DUP1 SWAP2 DIV MUL PUSH1 0x20 ADD PUSH1 0x40 MLOAD SWAP1 DUP2 ADD PUSH1 0x40 MSTORE DUP1 SWAP4 SWAP3 SWAP2 SWAP1 DUP2 DUP2 MSTORE PUSH1 0x20 ADD DUP4 DUP4 DUP1 DUP3 DUP5 CALLDATACOPY PUSH1 0x0 SWAP3 ADD SWAP2 SWAP1 SWAP2 MSTORE POP POP PUSH1 0x40 MLOAD SWAP3 SWAP4 POP PUSH1 0xC SWAP3 PUSH2 0x36DD SWAP3 POP DUP5 SWAP2 POP PUSH2 0x52A7 JUMP JUMPDEST SWAP1 DUP2 MSTORE PUSH1 0x40 MLOAD SWAP1 DUP2 SWAP1 SUB PUSH1 0x20 ADD SWAP1 KECCAK256 SLOAD PUSH1 0xFF AND ISZERO PUSH2 0x370D JUMPI PUSH1 0x40 MLOAD PUSH3 0x461BCD PUSH1 0xE5 SHL DUP2 MSTORE PUSH1 0x4 ADD PUSH2 0x5E4 SWAP1 PUSH2 0x52C3 JUMP JUMPDEST PUSH1 0x1 PUSH1 0xC DUP3 PUSH1 0x40 MLOAD PUSH2 0x371F SWAP2 SWAP1 PUSH2 0x52A7 JUMP JUMPDEST SWAP1 DUP2 MSTORE PUSH1 0x40 MLOAD SWAP1 DUP2 SWAP1 SUB PUSH1 0x20 ADD DUP2 KECCAK256 DUP1 SLOAD SWAP3 ISZERO ISZERO PUSH1 0xFF NOT SWAP1 SWAP4 AND SWAP3 SWAP1 SWAP3 OR SWAP1 SWAP2 SSTORE PUSH1 0x8 SWAP1 PUSH2 0x374E SWAP1 DUP9 SWAP1 PUSH2 0x52A7 JUMP JUMPDEST SWAP1 DUP2 MSTORE PUSH1 0x20 ADD PUSH1 0x40 MLOAD DUP1 SWAP2 SUB SWAP1 KECCAK256 SLOAD PUSH1 0x1 PUSH2 0x3769 SWAP2 SWAP1 PUSH2 0x5310 JUMP JUMPDEST PUSH1 0x8 DUP8 PUSH1 0x40 MLOAD PUSH2 0x3779 SWAP2 SWAP1 PUSH2 0x52A7 JUMP JUMPDEST SWAP1 DUP2 MSTORE PUSH1 0x20 ADD PUSH1 0x40 MLOAD DUP1 SWAP2 SUB SWAP1 KECCAK256 DUP2 SWAP1 SSTORE POP PUSH1 0x40 MLOAD DUP1 PUSH1 0x80 ADD PUSH1 0x40 MSTORE DUP1 DUP3 DUP2 MSTORE PUSH1 0x20 ADD DUP8 DUP2 MSTORE PUSH1 0x20 ADD PUSH1 0x40 MLOAD DUP1 PUSH1 0x40 ADD PUSH1 0x40 MSTORE DUP1 PUSH1 0xA DUP2 MSTORE PUSH1 0x20 ADD PUSH10 0x70726F63657373696E67 PUSH1 0xB0 SHL DUP2 MSTORE POP DUP2 MSTORE PUSH1 0x20 ADD PUSH1 0x1 ISZERO ISZERO DUP2 MSTORE POP PUSH1 0x1 DUP3 PUSH1 0x40 MLOAD PUSH2 0x37E1 SWAP2 SWAP1 PUSH2 0x52A7 JUMP JUMPDEST SWAP1 DUP2 MSTORE PUSH1 0x40 MLOAD SWAP1 DUP2 SWAP1 SUB PUSH1 0x20 ADD SWAP1 KECCAK256 DUP2 MLOAD DUP2 SWAP1 PUSH2 0x37FE SWAP1 DUP3 PUSH2 0x53AB JUMP JUMPDEST POP PUSH1 0x20 DUP3 ADD MLOAD PUSH1 0x1 DUP3 ADD SWAP1 PUSH2 0x3813 SWAP1 DUP3 PUSH2 0x53AB JUMP JUMPDEST POP PUSH1 0x40 DUP3 ADD MLOAD PUSH1 0x2 DUP3 ADD SWAP1 PUSH2 0x3828 SWAP1 DUP3 PUSH2 0x53AB JUMP JUMPDEST POP PUSH1 0x60 SWAP2 SWAP1 SWAP2 ADD MLOAD PUSH1 0x3 SWAP1 SWAP2 ADD DUP1 SLOAD PUSH1 0xFF NOT AND SWAP2 ISZERO ISZERO SWAP2 SWAP1 SWAP2 OR SWAP1 SSTORE PUSH1 0x40 MLOAD PUSH2 0x3852 SWAP1 DUP3 SWAP1 PUSH2 0x52A7 JUMP JUMPDEST PUSH1 0x40 MLOAD DUP1 SWAP2 SUB SWAP1 KECCAK256 PUSH1 0x0 DUP1 MLOAD PUSH1 0x20 PUSH2 0x59DB DUP4 CODECOPY DUP2 MLOAD SWAP2 MSTORE DUP8 PUSH1 0x40 MLOAD PUSH2 0x3877 SWAP2 SWAP1 PUSH2 0x5469 JUMP JUMPDEST PUSH1 0x40 MLOAD DUP1 SWAP2 SUB SWAP1 LOG2 PUSH1 0x0 DUP1 MLOAD PUSH1 0x20 PUSH2 0x599B DUP4 CODECOPY DUP2 MLOAD SWAP2 MSTORE DUP2 DUP8 PUSH1 0x40 MLOAD PUSH2 0x389E SWAP3 SWAP2 SWAP1 PUSH2 0x54A5 JUMP JUMPDEST PUSH1 0x40 MLOAD DUP1 SWAP2 SUB SWAP1 LOG1 POP PUSH1 0x1 ADD PUSH2 0x3667 JUMP JUMPDEST POP DUP2 ISZERO PUSH2 0x1B88 JUMPI DUP4 PUSH1 0x40 MLOAD PUSH2 0x38C4 SWAP2 SWAP1 PUSH2 0x52A7 JUMP JUMPDEST PUSH1 0x40 MLOAD DUP1 SWAP2 SUB SWAP1 KECCAK256 PUSH1 0x0 DUP1 MLOAD PUSH1 0x20 PUSH2 0x59FB DUP4 CODECOPY DUP2 MLOAD SWAP2 MSTORE PUSH1 0x8 DUP7 PUSH1 0x40 MLOAD PUSH2 0x38EB SWAP2 SWAP1 PUSH2 0x52A7 JUMP JUMPDEST SWAP1 DUP2 MSTORE PUSH1 0x40 MLOAD PUSH1 0x20 SWAP2 DUP2 SWAP1 SUB DUP3 ADD DUP2 KECCAK256 SLOAD DUP2 MSTORE ADD PUSH1 0x40 MLOAD DUP1 SWAP2 SUB SWAP1 LOG2 POP POP POP POP JUMP JUMPDEST PUSH1 0x0 DUP3 DUP2 MSTORE PUSH1 0x20 DUP2 SWAP1 MSTORE PUSH1 0x40 SWAP1 KECCAK256 PUSH1 0x1 ADD SLOAD PUSH2 0x3928 DUP2 PUSH2 0x3C81 JUMP JUMPDEST PUSH2 0x1B88 DUP4 DUP4 PUSH2 0x3EC9 JUMP JUMPDEST PUSH1 0x0 PUSH1 0xB DUP3 PUSH1 0x40 MLOAD PUSH2 0x275E SWAP2 SWAP1 PUSH2 0x52A7 JUMP JUMPDEST PUSH1 0x0 PUSH1 0xC DUP3 PUSH1 0x40 MLOAD PUSH2 0x275E SWAP2 SWAP1 PUSH2 0x52A7 JUMP JUMPDEST PUSH32 0x7C6181838A71A779E445600D4C6ECBE16BACF2B3C5BDA69C29FADA66D1B645D1 PUSH2 0x3980 DUP2 PUSH2 0x3C81 JUMP JUMPDEST DUP3 DUP1 MLOAD SWAP1 PUSH1 0x20 ADD KECCAK256 DUP3 PUSH1 0x40 ADD MLOAD DUP1 MLOAD SWAP1 PUSH1 0x20 ADD KECCAK256 EQ PUSH2 0x39B1 JUMPI PUSH1 0x40 MLOAD PUSH3 0x461BCD PUSH1 0xE5 SHL DUP2 MSTORE PUSH1 0x4 ADD PUSH2 0x5E4 SWAP1 PUSH2 0x527C JUMP JUMPDEST DUP2 MLOAD PUSH1 0x40 MLOAD PUSH1 0x0 SWAP2 PUSH2 0x39C7 SWAP2 DUP7 SWAP1 PUSH1 0x20 ADD PUSH2 0x55A3 JUMP JUMPDEST PUSH1 0x40 MLOAD PUSH1 0x20 DUP2 DUP4 SUB SUB DUP2 MSTORE SWAP1 PUSH1 0x40 MSTORE SWAP1 POP PUSH1 0xD DUP2 PUSH1 0x40 MLOAD PUSH2 0x39E8 SWAP2 SWAP1 PUSH2 0x52A7 JUMP JUMPDEST SWAP1 DUP2 MSTORE PUSH1 0x40 MLOAD SWAP1 DUP2 SWAP1 SUB PUSH1 0x20 ADD SWAP1 KECCAK256 SLOAD PUSH1 0xFF AND ISZERO PUSH2 0x3A58 JUMPI PUSH1 0x40 MLOAD PUSH3 0x461BCD PUSH1 0xE5 SHL DUP2 MSTORE PUSH1 0x20 PUSH1 0x4 DUP3 ADD MSTORE PUSH1 0x27 PUSH1 0x24 DUP3 ADD MSTORE PUSH32 0x426174636820494420616C72656164792065786973747320666F722074686973 PUSH1 0x44 DUP3 ADD MSTORE PUSH7 0x103330B936B2B9 PUSH1 0xC9 SHL PUSH1 0x64 DUP3 ADD MSTORE PUSH1 0x84 ADD PUSH2 0x5E4 JUMP JUMPDEST PUSH1 0x1 PUSH1 0xA DUP5 PUSH1 0x0 ADD MLOAD PUSH1 0x40 MLOAD PUSH2 0x3A6E SWAP2 SWAP1 PUSH2 0x52A7 JUMP JUMPDEST SWAP1 DUP2 MSTORE PUSH1 0x40 MLOAD SWAP1 DUP2 SWAP1 SUB PUSH1 0x20 ADD DUP2 KECCAK256 DUP1 SLOAD SWAP3 ISZERO ISZERO PUSH1 0xFF NOT SWAP1 SWAP4 AND SWAP3 SWAP1 SWAP3 OR SWAP1 SWAP2 SSTORE PUSH1 0x1 SWAP1 PUSH1 0xB SWAP1 PUSH2 0x3AA0 SWAP1 DUP8 SWAP1 PUSH2 0x52A7 JUMP JUMPDEST SWAP1 DUP2 MSTORE PUSH1 0x40 MLOAD SWAP1 DUP2 SWAP1 SUB PUSH1 0x20 ADD DUP2 KECCAK256 DUP1 SLOAD SWAP3 ISZERO ISZERO PUSH1 0xFF NOT SWAP1 SWAP4 AND SWAP3 SWAP1 SWAP3 OR SWAP1 SWAP2 SSTORE DUP4 MLOAD PUSH1 0x1 SWAP2 PUSH1 0x9 SWAP2 PUSH2 0x3AD2 SWAP2 PUSH2 0x52A7 JUMP JUMPDEST SWAP1 DUP2 MSTORE PUSH1 0x20 ADD PUSH1 0x40 MLOAD DUP1 SWAP2 SUB SWAP1 KECCAK256 DUP6 PUSH1 0x40 MLOAD PUSH2 0x3AEE SWAP2 SWAP1 PUSH2 0x52A7 JUMP JUMPDEST SWAP1 DUP2 MSTORE PUSH1 0x40 MLOAD SWAP1 DUP2 SWAP1 SUB PUSH1 0x20 ADD DUP2 KECCAK256 DUP1 SLOAD SWAP3 ISZERO ISZERO PUSH1 0xFF NOT SWAP1 SWAP4 AND SWAP3 SWAP1 SWAP3 OR SWAP1 SWAP2 SSTORE PUSH1 0x1 SWAP1 PUSH1 0xD SWAP1 PUSH2 0x3B20 SWAP1 DUP5 SWAP1 PUSH2 0x52A7 JUMP JUMPDEST SWAP1 DUP2 MSTORE PUSH1 0x40 MLOAD SWAP1 DUP2 SWAP1 SUB PUSH1 0x20 ADD DUP2 KECCAK256 DUP1 SLOAD SWAP3 ISZERO ISZERO PUSH1 0xFF NOT SWAP1 SWAP4 AND SWAP3 SWAP1 SWAP3 OR SWAP1 SWAP2 SSTORE DUP4 SWAP1 PUSH1 0x2 SWAP1 PUSH2 0x3B51 SWAP1 DUP8 SWAP1 PUSH2 0x52A7 JUMP JUMPDEST SWAP1 DUP2 MSTORE PUSH1 0x40 MLOAD SWAP1 DUP2 SWAP1 SUB PUSH1 0x20 ADD SWAP1 KECCAK256 DUP2 MLOAD DUP2 SWAP1 PUSH2 0x3B6E SWAP1 DUP3 PUSH2 0x53AB JUMP JUMPDEST POP PUSH1 0x20 DUP3 ADD MLOAD PUSH1 0x1 DUP3 ADD SWAP1 PUSH2 0x3B83 SWAP1 DUP3 PUSH2 0x53AB JUMP JUMPDEST POP PUSH1 0x40 DUP3 ADD MLOAD PUSH1 0x2 DUP3 ADD SWAP1 PUSH2 0x3B98 SWAP1 DUP3 PUSH2 0x53AB JUMP JUMPDEST POP PUSH1 0x60 DUP3 ADD MLOAD PUSH1 0x3 DUP3 ADD SWAP1 PUSH2 0x3BAD SWAP1 DUP3 PUSH2 0x53AB JUMP JUMPDEST POP PUSH1 0x80 DUP3 ADD MLOAD PUSH1 0x4 DUP3 ADD SWAP1 PUSH2 0x3BC2 SWAP1 DUP3 PUSH2 0x53AB JUMP JUMPDEST POP PUSH1 0xA0 DUP3 ADD MLOAD PUSH1 0x5 DUP3 ADD SWAP1 PUSH2 0x3BD7 SWAP1 DUP3 PUSH2 0x53AB JUMP JUMPDEST POP PUSH1 0xC0 DUP3 ADD MLOAD PUSH1 0x6 DUP3 ADD SWAP1 PUSH2 0x3BEC SWAP1 DUP3 PUSH2 0x53AB JUMP JUMPDEST POP PUSH1 0xE0 DUP3 ADD MLOAD DUP2 PUSH1 0x7 ADD SSTORE SWAP1 POP POP DUP4 PUSH1 0x40 MLOAD PUSH2 0x3C08 SWAP2 SWAP1 PUSH2 0x52A7 JUMP JUMPDEST PUSH1 0x40 MLOAD SWAP1 DUP2 SWAP1 SUB DUP2 KECCAK256 DUP5 MLOAD SWAP1 SWAP2 PUSH2 0x3C1F SWAP2 SWAP1 PUSH2 0x52A7 JUMP JUMPDEST PUSH1 0x40 MLOAD SWAP1 DUP2 SWAP1 SUB DUP2 KECCAK256 SWAP1 PUSH32 0xF43AE1E78F288625EEF7DEF48266F3A4AED85E77FC10D2DA3291BFB7E3CA2BE6 SWAP1 PUSH1 0x0 SWAP1 LOG3 DUP3 MLOAD PUSH1 0x40 MLOAD PUSH32 0x7F19B779B9E7F5829782DF699000776F02575D943AA746BDA0D7A3F27237FFFC SWAP2 PUSH2 0x1B54 SWAP2 DUP8 SWAP1 PUSH2 0x5812 JUMP JUMPDEST PUSH2 0x3C8B DUP2 CALLER PUSH2 0x3F34 JUMP JUMPDEST POP JUMP JUMPDEST PUSH1 0x60 DUP2 PUSH1 0x0 SUB PUSH2 0x3CB5 JUMPI POP POP PUSH1 0x40 DUP1 MLOAD DUP1 DUP3 ADD SWAP1 SWAP2 MSTORE PUSH1 0x1 DUP2 MSTORE PUSH1 0x3 PUSH1 0xFC SHL PUSH1 0x20 DUP3 ADD MSTORE SWAP1 JUMP JUMPDEST DUP2 PUSH1 0x0 JUMPDEST DUP2 ISZERO PUSH2 0x3CDF JUMPI DUP1 PUSH2 0x3CC9 DUP2 PUSH2 0x58DD JUMP JUMPDEST SWAP2 POP PUSH2 0x3CD8 SWAP1 POP PUSH1 0xA DUP4 PUSH2 0x590C JUMP JUMPDEST SWAP2 POP PUSH2 0x3CB9 JUMP JUMPDEST PUSH1 0x0 DUP2 PUSH1 0x1 PUSH1 0x1 PUSH1 0x40 SHL SUB DUP2 GT ISZERO PUSH2 0x3CF9 JUMPI PUSH2 0x3CF9 PUSH2 0x3F71 JUMP JUMPDEST PUSH1 0x40 MLOAD SWAP1 DUP1 DUP3 MSTORE DUP1 PUSH1 0x1F ADD PUSH1 0x1F NOT AND PUSH1 0x20 ADD DUP3 ADD PUSH1 0x40 MSTORE DUP1 ISZERO PUSH2 0x3D23 JUMPI PUSH1 0x20 DUP3 ADD DUP2 DUP1 CALLDATASIZE DUP4 CALLDATACOPY ADD SWAP1 POP JUMPDEST POP DUP6 SWAP4 POP SWAP1 POP DUP2 JUMPDEST DUP4 ISZERO PUSH2 0x3DA7 JUMPI PUSH1 0x0 DUP2 GT PUSH2 0x3D40 JUMPI PUSH1 0x0 PUSH2 0x3D4B JUMP JUMPDEST PUSH2 0x3D4B PUSH1 0x1 DUP3 PUSH2 0x5920 JUMP JUMPDEST SWAP1 POP PUSH1 0x0 PUSH2 0x3D5A PUSH1 0xA DUP7 PUSH2 0x5933 JUMP JUMPDEST PUSH2 0x3D65 SWAP1 PUSH1 0x30 PUSH2 0x5310 JUMP JUMPDEST SWAP1 POP DUP1 PUSH1 0xF8 SHL DUP4 DUP4 DUP2 MLOAD DUP2 LT PUSH2 0x3D7D JUMPI PUSH2 0x3D7D PUSH2 0x587A JUMP JUMPDEST PUSH1 0x20 ADD ADD SWAP1 PUSH1 0x1 PUSH1 0x1 PUSH1 0xF8 SHL SUB NOT AND SWAP1 DUP2 PUSH1 0x0 BYTE SWAP1 MSTORE8 POP PUSH2 0x3D9F PUSH1 0xA DUP7 PUSH2 0x590C JUMP JUMPDEST SWAP5 POP POP PUSH2 0x3D2B JUMP JUMPDEST POP SWAP5 SWAP4 POP POP POP POP JUMP JUMPDEST PUSH1 0x60 DUP2 PUSH1 0x0 SUB PUSH2 0x3DD9 JUMPI POP POP PUSH1 0x40 DUP1 MLOAD DUP1 DUP3 ADD SWAP1 SWAP2 MSTORE PUSH1 0x3 DUP2 MSTORE PUSH3 0x30303 PUSH1 0xEC SHL PUSH1 0x20 DUP3 ADD MSTORE SWAP1 JUMP JUMPDEST PUSH1 0x0 PUSH2 0x3DE4 DUP4 PUSH2 0x3C8E JUMP JUMPDEST SWAP1 POP PUSH1 0x3 DUP2 MLOAD LT PUSH2 0x3DF5 JUMPI SWAP3 SWAP2 POP POP JUMP JUMPDEST DUP1 MLOAD PUSH1 0x1 SUB PUSH2 0x3E26 JUMPI DUP1 PUSH1 0x40 MLOAD PUSH1 0x20 ADD PUSH2 0x3E0F SWAP2 SWAP1 PUSH2 0x5947 JUMP JUMPDEST PUSH1 0x40 MLOAD PUSH1 0x20 DUP2 DUP4 SUB SUB DUP2 MSTORE SWAP1 PUSH1 0x40 MSTORE SWAP2 POP POP SWAP2 SWAP1 POP JUMP JUMPDEST DUP1 PUSH1 0x40 MLOAD PUSH1 0x20 ADD PUSH2 0x3E0F SWAP2 SWAP1 PUSH2 0x5971 JUMP JUMPDEST PUSH1 0x0 PUSH2 0x3E43 DUP4 DUP4 PUSH2 0x2E70 JUMP JUMPDEST PUSH2 0x3EC1 JUMPI PUSH1 0x0 DUP4 DUP2 MSTORE PUSH1 0x20 DUP2 DUP2 MSTORE PUSH1 0x40 DUP1 DUP4 KECCAK256 PUSH1 0x1 PUSH1 0x1 PUSH1 0xA0 SHL SUB DUP7 AND DUP5 MSTORE SWAP1 SWAP2 MSTORE SWAP1 KECCAK256 DUP1 SLOAD PUSH1 0xFF NOT AND PUSH1 0x1 OR SWAP1 SSTORE PUSH2 0x3E79 CALLER SWAP1 JUMP JUMPDEST PUSH1 0x1 PUSH1 0x1 PUSH1 0xA0 SHL SUB AND DUP3 PUSH1 0x1 PUSH1 0x1 PUSH1 0xA0 SHL SUB AND DUP5 PUSH32 0x2F8788117E7EFF1D82E926EC794901D17C78024A50270940304540A733656F0D PUSH1 0x40 MLOAD PUSH1 0x40 MLOAD DUP1 SWAP2 SUB SWAP1 LOG4 POP PUSH1 0x1 PUSH2 0xA1E JUMP JUMPDEST POP PUSH1 0x0 PUSH2 0xA1E JUMP JUMPDEST PUSH1 0x0 PUSH2 0x3ED5 DUP4 DUP4 PUSH2 0x2E70 JUMP JUMPDEST ISZERO PUSH2 0x3EC1 JUMPI PUSH1 0x0 DUP4 DUP2 MSTORE PUSH1 0x20 DUP2 DUP2 MSTORE PUSH1 0x40 DUP1 DUP4 KECCAK256 PUSH1 0x1 PUSH1 0x1 PUSH1 0xA0 SHL SUB DUP7 AND DUP1 DUP6 MSTORE SWAP3 MSTORE DUP1 DUP4 KECCAK256 DUP1 SLOAD PUSH1 0xFF NOT AND SWAP1 SSTORE MLOAD CALLER SWAP3 DUP7 SWAP2 PUSH32 0xF6391F5C32D9C69D2A47EA670B442974B53935D1EDC7FD64EB21E047A839171B SWAP2 SWAP1 LOG4 POP PUSH1 0x1 PUSH2 0xA1E JUMP JUMPDEST PUSH2 0x3F3E DUP3 DUP3 PUSH2 0x2E70 JUMP JUMPDEST PUSH2 0x3F6D JUMPI PUSH1 0x40 MLOAD PUSH4 0xE2517D3F PUSH1 0xE0 SHL DUP2 MSTORE PUSH1 0x1 PUSH1 0x1 PUSH1 0xA0 SHL SUB DUP3 AND PUSH1 0x4 DUP3 ADD MSTORE PUSH1 0x24 DUP2 ADD DUP4 SWAP1 MSTORE PUSH1 0x44 ADD PUSH2 0x5E4 JUMP JUMPDEST POP POP JUMP JUMPDEST PUSH4 0x4E487B71 PUSH1 0xE0 SHL PUSH1 0x0 MSTORE PUSH1 0x41 PUSH1 0x4 MSTORE PUSH1 0x24 PUSH1 0x0 REVERT JUMPDEST PUSH1 0x40 MLOAD PUSH2 0x1A0 DUP2 ADD PUSH1 0x1 PUSH1 0x1 PUSH1 0x40 SHL SUB DUP2 GT DUP3 DUP3 LT OR ISZERO PUSH2 0x3FAA JUMPI PUSH2 0x3FAA PUSH2 0x3F71 JUMP JUMPDEST PUSH1 0x40 MSTORE SWAP1 JUMP JUMPDEST PUSH1 0x40 MLOAD PUSH2 0x180 DUP2 ADD PUSH1 0x1 PUSH1 0x1 PUSH1 0x40 SHL SUB DUP2 GT DUP3 DUP3 LT OR ISZERO PUSH2 0x3FAA JUMPI PUSH2 0x3FAA PUSH2 0x3F71 JUMP JUMPDEST PUSH1 0x40 MLOAD PUSH1 0xC0 DUP2 ADD PUSH1 0x1 PUSH1 0x1 PUSH1 0x40 SHL SUB DUP2 GT DUP3 DUP3 LT OR ISZERO PUSH2 0x3FAA JUMPI PUSH2 0x3FAA PUSH2 0x3F71 JUMP JUMPDEST PUSH1 0x40 MLOAD PUSH1 0x80 DUP2 ADD PUSH1 0x1 PUSH1 0x1 PUSH1 0x40 SHL SUB DUP2 GT DUP3 DUP3 LT OR ISZERO PUSH2 0x3FAA JUMPI PUSH2 0x3FAA PUSH2 0x3F71 JUMP JUMPDEST PUSH1 0x40 MLOAD PUSH2 0x100 DUP2 ADD PUSH1 0x1 PUSH1 0x1 PUSH1 0x40 SHL SUB DUP2 GT DUP3 DUP3 LT OR ISZERO PUSH2 0x3FAA JUMPI PUSH2 0x3FAA PUSH2 0x3F71 JUMP JUMPDEST PUSH1 0x0 DUP3 PUSH1 0x1F DUP4 ADD SLT PUSH2 0x404B JUMPI PUSH1 0x0 DUP1 REVERT JUMPDEST DUP2 CALLDATALOAD PUSH1 0x1 PUSH1 0x1 PUSH1 0x40 SHL SUB DUP2 GT ISZERO PUSH2 0x4064 JUMPI PUSH2 0x4064 PUSH2 0x3F71 JUMP JUMPDEST PUSH1 0x40 MLOAD PUSH1 0x1F DUP3 ADD PUSH1 0x1F NOT SWAP1 DUP2 AND PUSH1 0x3F ADD AND DUP2 ADD PUSH1 0x1 PUSH1 0x1 PUSH1 0x40 SHL SUB DUP2 GT DUP3 DUP3 LT OR ISZERO PUSH2 0x4092 JUMPI PUSH2 0x4092 PUSH2 0x3F71 JUMP JUMPDEST PUSH1 0x40 MSTORE DUP2 DUP2 MSTORE DUP4 DUP3 ADD PUSH1 0x20 ADD DUP6 LT ISZERO PUSH2 0x40AA JUMPI PUSH1 0x0 DUP1 REVERT JUMPDEST DUP2 PUSH1 0x20 DUP6 ADD PUSH1 0x20 DUP4 ADD CALLDATACOPY PUSH1 0x0 SWAP2 DUP2 ADD PUSH1 0x20 ADD SWAP2 SWAP1 SWAP2 MSTORE SWAP4 SWAP3 POP POP POP JUMP JUMPDEST PUSH1 0x0 DUP1 PUSH1 0x40 DUP4 DUP6 SUB SLT ISZERO PUSH2 0x40DA JUMPI PUSH1 0x0 DUP1 REVERT JUMPDEST DUP3 CALLDATALOAD PUSH1 0x1 PUSH1 0x1 PUSH1 0x40 SHL SUB DUP2 GT ISZERO PUSH2 0x40F0 JUMPI PUSH1 0x0 DUP1 REVERT JUMPDEST PUSH2 0x40FC DUP6 DUP3 DUP7 ADD PUSH2 0x403A JUMP JUMPDEST SWAP3 POP POP PUSH1 0x20 DUP4 ADD CALLDATALOAD PUSH1 0x1 PUSH1 0x1 PUSH1 0x40 SHL SUB DUP2 GT ISZERO PUSH2 0x4118 JUMPI PUSH1 0x0 DUP1 REVERT JUMPDEST DUP4 ADD PUSH2 0x1A0 DUP2 DUP7 SUB SLT ISZERO PUSH2 0x412B JUMPI PUSH1 0x0 DUP1 REVERT JUMPDEST PUSH2 0x4133 PUSH2 0x3F87 JUMP JUMPDEST DUP2 CALLDATALOAD PUSH1 0x1 PUSH1 0x1 PUSH1 0x40 SHL SUB DUP2 GT ISZERO PUSH2 0x4149 JUMPI PUSH1 0x0 DUP1 REVERT JUMPDEST PUSH2 0x4155 DUP8 DUP3 DUP6 ADD PUSH2 0x403A JUMP JUMPDEST DUP3 MSTORE POP PUSH1 0x20 DUP3 ADD CALLDATALOAD PUSH1 0x1 PUSH1 0x1 PUSH1 0x40 SHL SUB DUP2 GT ISZERO PUSH2 0x4171 JUMPI PUSH1 0x0 DUP1 REVERT JUMPDEST PUSH2 0x417D DUP8 DUP3 DUP6 ADD PUSH2 0x403A JUMP JUMPDEST PUSH1 0x20 DUP4 ADD MSTORE POP PUSH1 0x40 DUP3 ADD CALLDATALOAD PUSH1 0x1 PUSH1 0x1 PUSH1 0x40 SHL SUB DUP2 GT ISZERO PUSH2 0x419C JUMPI PUSH1 0x0 DUP1 REVERT JUMPDEST PUSH2 0x41A8 DUP8 DUP3 DUP6 ADD PUSH2 0x403A JUMP JUMPDEST PUSH1 0x40 DUP4 ADD MSTORE POP PUSH1 0x60 DUP3 DUP2 ADD CALLDATALOAD SWAP1 DUP3 ADD MSTORE PUSH1 0x80 DUP1 DUP4 ADD CALLDATALOAD SWAP1 DUP3 ADD MSTORE PUSH1 0xA0 DUP3 ADD CALLDATALOAD PUSH1 0x1 PUSH1 0x1 PUSH1 0x40 SHL SUB DUP2 GT ISZERO PUSH2 0x41DB JUMPI PUSH1 0x0 DUP1 REVERT JUMPDEST PUSH2 0x41E7 DUP8 DUP3 DUP6 ADD PUSH2 0x403A JUMP JUMPDEST PUSH1 0xA0 DUP4 ADD MSTORE POP PUSH1 0xC0 DUP3 ADD CALLDATALOAD PUSH1 0x1 PUSH1 0x1 PUSH1 0x40 SHL SUB DUP2 GT ISZERO PUSH2 0x4206 JUMPI PUSH1 0x0 DUP1 REVERT JUMPDEST PUSH2 0x4212 DUP8 DUP3 DUP6 ADD PUSH2 0x403A JUMP JUMPDEST PUSH1 0xC0 DUP4 ADD MSTORE POP PUSH1 0xE0 DUP3 ADD CALLDATALOAD PUSH1 0x1 PUSH1 0x1 PUSH1 0x40 SHL SUB DUP2 GT ISZERO PUSH2 0x4231 JUMPI PUSH1 0x0 DUP1 REVERT JUMPDEST PUSH2 0x423D DUP8 DUP3 DUP6 ADD PUSH2 0x403A JUMP JUMPDEST PUSH1 0xE0 DUP4 ADD MSTORE POP PUSH2 0x100 DUP3 ADD CALLDATALOAD PUSH1 0x1 PUSH1 0x1 PUSH1 0x40 SHL SUB DUP2 GT ISZERO PUSH2 0x425D JUMPI PUSH1 0x0 DUP1 REVERT JUMPDEST PUSH2 0x4269 DUP8 DUP3 DUP6 ADD PUSH2 0x403A JUMP JUMPDEST PUSH2 0x100 DUP4 ADD MSTORE POP PUSH2 0x120 DUP3 ADD CALLDATALOAD PUSH1 0x1 PUSH1 0x1 PUSH1 0x40 SHL SUB DUP2 GT ISZERO PUSH2 0x428A JUMPI PUSH1 0x0 DUP1 REVERT JUMPDEST PUSH2 0x4296 DUP8 DUP3 DUP6 ADD PUSH2 0x403A JUMP JUMPDEST PUSH2 0x120 DUP4 ADD MSTORE POP PUSH2 0x140 DUP3 ADD CALLDATALOAD PUSH1 0x1 PUSH1 0x1 PUSH1 0x40 SHL SUB DUP2 GT ISZERO PUSH2 0x42B7 JUMPI PUSH1 0x0 DUP1 REVERT JUMPDEST PUSH2 0x42C3 DUP8 DUP3 DUP6 ADD PUSH2 0x403A JUMP JUMPDEST PUSH2 0x140 DUP4 ADD MSTORE POP PUSH2 0x160 DUP3 ADD CALLDATALOAD PUSH1 0x1 PUSH1 0x1 PUSH1 0x40 SHL SUB DUP2 GT ISZERO PUSH2 0x42E4 JUMPI PUSH1 0x0 DUP1 REVERT JUMPDEST PUSH2 0x42F0 DUP8 DUP3 DUP6 ADD PUSH2 0x403A JUMP JUMPDEST PUSH2 0x160 DUP4 ADD MSTORE POP PUSH2 0x180 DUP3 ADD CALLDATALOAD PUSH1 0x1 PUSH1 0x1 PUSH1 0x40 SHL SUB DUP2 GT ISZERO PUSH2 0x4311 JUMPI PUSH1 0x0 DUP1 REVERT JUMPDEST PUSH2 0x431D DUP8 DUP3 DUP6 ADD PUSH2 0x403A JUMP JUMPDEST PUSH2 0x180 DUP4 ADD MSTORE POP DUP1 SWAP3 POP POP POP SWAP3 POP SWAP3 SWAP1 POP JUMP JUMPDEST PUSH1 0x0 PUSH1 0x20 DUP3 DUP5 SUB SLT ISZERO PUSH2 0x4342 JUMPI PUSH1 0x0 DUP1 REVERT JUMPDEST DUP2 CALLDATALOAD PUSH1 0x1 PUSH1 0x1 PUSH1 0xE0 SHL SUB NOT DUP2 AND DUP2 EQ PUSH2 0x435A JUMPI PUSH1 0x0 DUP1 REVERT JUMPDEST SWAP4 SWAP3 POP POP POP JUMP JUMPDEST PUSH1 0x0 PUSH1 0x20 DUP3 DUP5 SUB SLT ISZERO PUSH2 0x4373 JUMPI PUSH1 0x0 DUP1 REVERT JUMPDEST DUP2 CALLDATALOAD PUSH1 0x1 PUSH1 0x1 PUSH1 0x40 SHL SUB DUP2 GT ISZERO PUSH2 0x4389 JUMPI PUSH1 0x0 DUP1 REVERT JUMPDEST PUSH2 0x4395 DUP5 DUP3 DUP6 ADD PUSH2 0x403A JUMP JUMPDEST SWAP5 SWAP4 POP POP POP POP JUMP JUMPDEST PUSH1 0x0 JUMPDEST DUP4 DUP2 LT ISZERO PUSH2 0x43B8 JUMPI DUP2 DUP2 ADD MLOAD DUP4 DUP3 ADD MSTORE PUSH1 0x20 ADD PUSH2 0x43A0 JUMP JUMPDEST POP POP PUSH1 0x0 SWAP2 ADD MSTORE JUMP JUMPDEST PUSH1 0x0 DUP2 MLOAD DUP1 DUP5 MSTORE PUSH2 0x43D9 DUP2 PUSH1 0x20 DUP7 ADD PUSH1 0x20 DUP7 ADD PUSH2 0x439D JUMP JUMPDEST PUSH1 0x1F ADD PUSH1 0x1F NOT AND SWAP3 SWAP1 SWAP3 ADD PUSH1 0x20 ADD SWAP3 SWAP2 POP POP JUMP JUMPDEST PUSH1 0x20 DUP2 MSTORE PUSH1 0x0 DUP3 MLOAD PUSH1 0x80 PUSH1 0x20 DUP5 ADD MSTORE PUSH2 0x4409 PUSH1 0xA0 DUP5 ADD DUP3 PUSH2 0x43C1 JUMP JUMPDEST SWAP1 POP PUSH1 0x20 DUP5 ADD MLOAD PUSH1 0x1F NOT DUP5 DUP4 SUB ADD PUSH1 0x40 DUP6 ADD MSTORE PUSH2 0x4426 DUP3 DUP3 PUSH2 0x43C1 JUMP JUMPDEST SWAP2 POP POP PUSH1 0x40 DUP5 ADD MLOAD PUSH1 0x1F NOT DUP5 DUP4 SUB ADD PUSH1 0x60 DUP6 ADD MSTORE PUSH2 0x4444 DUP3 DUP3 PUSH2 0x43C1 JUMP JUMPDEST SWAP2 POP POP PUSH1 0x60 DUP5 ADD MLOAD PUSH1 0x1F NOT DUP5 DUP4 SUB ADD PUSH1 0x80 DUP6 ADD MSTORE PUSH2 0x4462 DUP3 DUP3 PUSH2 0x43C1 JUMP JUMPDEST SWAP6 SWAP5 POP POP POP POP POP JUMP JUMPDEST PUSH1 0x0 DUP1 PUSH1 0x0 DUP1 PUSH1 0x80 DUP6 DUP8 SUB SLT ISZERO PUSH2 0x4481 JUMPI PUSH1 0x0 DUP1 REVERT JUMPDEST DUP5 CALLDATALOAD PUSH1 0x1 PUSH1 0x1 PUSH1 0x40 SHL SUB DUP2 GT ISZERO PUSH2 0x4497 JUMPI PUSH1 0x0 DUP1 REVERT JUMPDEST PUSH2 0x44A3 DUP8 DUP3 DUP9 ADD PUSH2 0x403A JUMP JUMPDEST SWAP5 POP POP PUSH1 0x20 DUP6 ADD CALLDATALOAD PUSH1 0x1 PUSH1 0x1 PUSH1 0x40 SHL SUB DUP2 GT ISZERO PUSH2 0x44BF JUMPI PUSH1 0x0 DUP1 REVERT JUMPDEST PUSH2 0x44CB DUP8 DUP3 DUP9 ADD PUSH2 0x403A JUMP JUMPDEST SWAP5 SWAP8 SWAP5 SWAP7 POP POP POP POP PUSH1 0x40 DUP4 ADD CALLDATALOAD SWAP3 PUSH1 0x60 ADD CALLDATALOAD SWAP2 SWAP1 POP JUMP JUMPDEST PUSH1 0x0 DUP1 PUSH1 0x40 DUP4 DUP6 SUB SLT ISZERO PUSH2 0x44F5 JUMPI PUSH1 0x0 DUP1 REVERT JUMPDEST DUP3 CALLDATALOAD PUSH1 0x1 PUSH1 0x1 PUSH1 0x40 SHL SUB DUP2 GT ISZERO PUSH2 0x450B JUMPI PUSH1 0x0 DUP1 REVERT JUMPDEST PUSH2 0x4517 DUP6 DUP3 DUP7 ADD PUSH2 0x403A JUMP JUMPDEST SWAP3 POP POP PUSH1 0x20 DUP4 ADD CALLDATALOAD PUSH1 0x1 PUSH1 0x1 PUSH1 0x40 SHL SUB DUP2 GT ISZERO PUSH2 0x4533 JUMPI PUSH1 0x0 DUP1 REVERT JUMPDEST PUSH2 0x453F DUP6 DUP3 DUP7 ADD PUSH2 0x403A JUMP JUMPDEST SWAP2 POP POP SWAP3 POP SWAP3 SWAP1 POP JUMP JUMPDEST PUSH1 0x20 DUP2 MSTORE PUSH1 0x0 DUP3 MLOAD PUSH2 0x1A0 PUSH1 0x20 DUP5 ADD MSTORE PUSH2 0x4567 PUSH2 0x1C0 DUP5 ADD DUP3 PUSH2 0x43C1 JUMP JUMPDEST SWAP1 POP PUSH1 0x20 DUP5 ADD MLOAD PUSH1 0x1F NOT DUP5 DUP4 SUB ADD PUSH1 0x40 DUP6 ADD MSTORE PUSH2 0x4584 DUP3 DUP3 PUSH2 0x43C1 JUMP JUMPDEST SWAP2 POP POP PUSH1 0x40 DUP5 ADD MLOAD PUSH1 0x1F NOT DUP5 DUP4 SUB ADD PUSH1 0x60 DUP6 ADD MSTORE PUSH2 0x45A2 DUP3 DUP3 PUSH2 0x43C1 JUMP JUMPDEST SWAP2 POP POP PUSH1 0x60 DUP5 ADD MLOAD PUSH1 0x80 DUP5 ADD MSTORE PUSH1 0x80 DUP5 ADD MLOAD PUSH1 0xA0 DUP5 ADD MSTORE PUSH1 0xA0 DUP5 ADD MLOAD PUSH1 0x1F NOT DUP5 DUP4 SUB ADD PUSH1 0xC0 DUP6 ADD MSTORE PUSH2 0x45D4 DUP3 DUP3 PUSH2 0x43C1 JUMP JUMPDEST SWAP2 POP POP PUSH1 0xC0 DUP5 ADD MLOAD PUSH1 0x1F NOT DUP5 DUP4 SUB ADD PUSH1 0xE0 DUP6 ADD MSTORE PUSH2 0x45F2 DUP3 DUP3 PUSH2 0x43C1 JUMP JUMPDEST SWAP2 POP POP PUSH1 0xE0 DUP5 ADD MLOAD PUSH1 0x1F NOT DUP5 DUP4 SUB ADD PUSH2 0x100 DUP6 ADD MSTORE PUSH2 0x4611 DUP3 DUP3 PUSH2 0x43C1 JUMP JUMPDEST SWAP2 POP POP PUSH2 0x100 DUP5 ADD MLOAD PUSH1 0x1F NOT DUP5 DUP4 SUB ADD PUSH2 0x120 DUP6 ADD MSTORE PUSH2 0x4631 DUP3 DUP3 PUSH2 0x43C1 JUMP JUMPDEST SWAP2 POP POP PUSH2 0x120 DUP5 ADD MLOAD PUSH1 0x1F NOT DUP5 DUP4 SUB ADD PUSH2 0x140 DUP6 ADD MSTORE PUSH2 0x4651 DUP3 DUP3 PUSH2 0x43C1 JUMP JUMPDEST SWAP2 POP POP PUSH2 0x140 DUP5 ADD MLOAD PUSH1 0x1F NOT DUP5 DUP4 SUB ADD PUSH2 0x160 DUP6 ADD MSTORE PUSH2 0x4671 DUP3 DUP3 PUSH2 0x43C1 JUMP JUMPDEST SWAP2 POP POP PUSH2 0x160 DUP5 ADD MLOAD PUSH1 0x1F NOT DUP5 DUP4 SUB ADD PUSH2 0x180 DUP6 ADD MSTORE PUSH2 0x4691 DUP3 DUP3 PUSH2 0x43C1 JUMP JUMPDEST SWAP2 POP POP PUSH2 0x180 DUP5 ADD MLOAD PUSH1 0x1F NOT DUP5 DUP4 SUB ADD PUSH2 0x1A0 DUP6 ADD MSTORE PUSH2 0x4462 DUP3 DUP3 PUSH2 0x43C1 JUMP JUMPDEST PUSH1 0x0 DUP1 PUSH1 0x40 DUP4 DUP6 SUB SLT ISZERO PUSH2 0x46C4 JUMPI PUSH1 0x0 DUP1 REVERT JUMPDEST DUP3 CALLDATALOAD PUSH1 0x1 PUSH1 0x1 PUSH1 0x40 SHL SUB DUP2 GT ISZERO PUSH2 0x46DA JUMPI PUSH1 0x0 DUP1 REVERT JUMPDEST PUSH2 0x46E6 DUP6 DUP3 DUP7 ADD PUSH2 0x403A JUMP JUMPDEST SWAP3 POP POP PUSH1 0x20 DUP4 ADD CALLDATALOAD PUSH1 0x1 PUSH1 0x1 PUSH1 0x40 SHL SUB DUP2 GT ISZERO PUSH2 0x4702 JUMPI PUSH1 0x0 DUP1 REVERT JUMPDEST DUP4 ADD PUSH2 0x180 DUP2 DUP7 SUB SLT ISZERO PUSH2 0x4715 JUMPI PUSH1 0x0 DUP1 REVERT JUMPDEST PUSH2 0x471D PUSH2 0x3FB0 JUMP JUMPDEST DUP2 CALLDATALOAD PUSH1 0x1 PUSH1 0x1 PUSH1 0x40 SHL SUB DUP2 GT ISZERO PUSH2 0x4733 JUMPI PUSH1 0x0 DUP1 REVERT JUMPDEST PUSH2 0x473F DUP8 DUP3 DUP6 ADD PUSH2 0x403A JUMP JUMPDEST DUP3 MSTORE POP PUSH1 0x20 DUP3 ADD CALLDATALOAD PUSH1 0x1 PUSH1 0x1 PUSH1 0x40 SHL SUB DUP2 GT ISZERO PUSH2 0x475B JUMPI PUSH1 0x0 DUP1 REVERT JUMPDEST PUSH2 0x4767 DUP8 DUP3 DUP6 ADD PUSH2 0x403A JUMP JUMPDEST PUSH1 0x20 DUP4 ADD MSTORE POP PUSH1 0x40 DUP3 ADD CALLDATALOAD PUSH1 0x1 PUSH1 0x1 PUSH1 0x40 SHL SUB DUP2 GT ISZERO PUSH2 0x4786 JUMPI PUSH1 0x0 DUP1 REVERT JUMPDEST PUSH2 0x4792 DUP8 DUP3 DUP6 ADD PUSH2 0x403A JUMP JUMPDEST PUSH1 0x40 DUP4 ADD MSTORE POP PUSH1 0x60 DUP3 DUP2 ADD CALLDATALOAD SWAP1 DUP3 ADD MSTORE PUSH1 0x80 DUP1 DUP4 ADD CALLDATALOAD SWAP1 DUP3 ADD MSTORE PUSH1 0xA0 DUP3 ADD CALLDATALOAD PUSH1 0x1 PUSH1 0x1 PUSH1 0x40 SHL SUB DUP2 GT ISZERO PUSH2 0x47C5 JUMPI PUSH1 0x0 DUP1 REVERT JUMPDEST PUSH2 0x47D1 DUP8 DUP3 DUP6 ADD PUSH2 0x403A JUMP JUMPDEST PUSH1 0xA0 DUP4 ADD MSTORE POP PUSH1 0xC0 DUP3 ADD CALLDATALOAD PUSH1 0x1 PUSH1 0x1 PUSH1 0x40 SHL SUB DUP2 GT ISZERO PUSH2 0x47F0 JUMPI PUSH1 0x0 DUP1 REVERT JUMPDEST PUSH2 0x47FC DUP8 DUP3 DUP6 ADD PUSH2 0x403A JUMP JUMPDEST PUSH1 0xC0 DUP4 ADD MSTORE POP PUSH1 0xE0 DUP3 ADD CALLDATALOAD PUSH1 0x1 PUSH1 0x1 PUSH1 0x40 SHL SUB DUP2 GT ISZERO PUSH2 0x481B JUMPI PUSH1 0x0 DUP1 REVERT JUMPDEST PUSH2 0x4827 DUP8 DUP3 DUP6 ADD PUSH2 0x403A JUMP JUMPDEST PUSH1 0xE0 DUP4 ADD MSTORE POP PUSH2 0x100 DUP3 ADD CALLDATALOAD PUSH1 0x1 PUSH1 0x1 PUSH1 0x40 SHL SUB DUP2 GT ISZERO PUSH2 0x4847 JUMPI PUSH1 0x0 DUP1 REVERT JUMPDEST PUSH2 0x4853 DUP8 DUP3 DUP6 ADD PUSH2 0x403A JUMP JUMPDEST PUSH2 0x100 DUP4 ADD MSTORE POP PUSH2 0x120 DUP3 ADD CALLDATALOAD PUSH1 0x1 PUSH1 0x1 PUSH1 0x40 SHL SUB DUP2 GT ISZERO PUSH2 0x4874 JUMPI PUSH1 0x0 DUP1 REVERT JUMPDEST PUSH2 0x4880 DUP8 DUP3 DUP6 ADD PUSH2 0x403A JUMP JUMPDEST PUSH2 0x120 DUP4 ADD MSTORE POP PUSH2 0x140 DUP3 ADD CALLDATALOAD PUSH1 0x1 PUSH1 0x1 PUSH1 0x40 SHL SUB DUP2 GT ISZERO PUSH2 0x48A1 JUMPI PUSH1 0x0 DUP1 REVERT JUMPDEST PUSH2 0x48AD DUP8 DUP3 DUP6 ADD PUSH2 0x403A JUMP JUMPDEST PUSH2 0x140 DUP4 ADD MSTORE POP PUSH2 0x160 DUP3 ADD CALLDATALOAD PUSH1 0x1 PUSH1 0x1 PUSH1 0x40 SHL SUB DUP2 GT ISZERO PUSH2 0x48CE JUMPI PUSH1 0x0 DUP1 REVERT JUMPDEST PUSH2 0x48DA DUP8 DUP3 DUP6 ADD PUSH2 0x403A JUMP JUMPDEST PUSH2 0x160 DUP4 ADD MSTORE POP DUP1 SWAP3 POP POP POP SWAP3 POP SWAP3 SWAP1 POP JUMP JUMPDEST PUSH1 0x0 PUSH1 0xC0 DUP3 DUP5 SUB SLT ISZERO PUSH2 0x48FF JUMPI PUSH1 0x0 DUP1 REVERT JUMPDEST PUSH2 0x4907 PUSH2 0x3FD3 JUMP JUMPDEST SWAP1 POP DUP2 CALLDATALOAD PUSH1 0x1 PUSH1 0x1 PUSH1 0x40 SHL SUB DUP2 GT ISZERO PUSH2 0x491F JUMPI PUSH1 0x0 DUP1 REVERT JUMPDEST PUSH2 0x492B DUP5 DUP3 DUP6 ADD PUSH2 0x403A JUMP JUMPDEST DUP3 MSTORE POP PUSH1 0x20 DUP3 ADD CALLDATALOAD PUSH1 0x1 PUSH1 0x1 PUSH1 0x40 SHL SUB DUP2 GT ISZERO PUSH2 0x4947 JUMPI PUSH1 0x0 DUP1 REVERT JUMPDEST PUSH2 0x4953 DUP5 DUP3 DUP6 ADD PUSH2 0x403A JUMP JUMPDEST PUSH1 0x20 DUP4 ADD MSTORE POP PUSH1 0x40 DUP3 ADD CALLDATALOAD PUSH1 0x1 PUSH1 0x1 PUSH1 0x40 SHL SUB DUP2 GT ISZERO PUSH2 0x4972 JUMPI PUSH1 0x0 DUP1 REVERT JUMPDEST PUSH2 0x497E DUP5 DUP3 DUP6 ADD PUSH2 0x403A JUMP JUMPDEST PUSH1 0x40 DUP4 ADD MSTORE POP PUSH1 0x60 DUP3 ADD CALLDATALOAD PUSH1 0x1 PUSH1 0x1 PUSH1 0x40 SHL SUB DUP2 GT ISZERO PUSH2 0x499D JUMPI PUSH1 0x0 DUP1 REVERT JUMPDEST PUSH2 0x49A9 DUP5 DUP3 DUP6 ADD PUSH2 0x403A JUMP JUMPDEST PUSH1 0x60 DUP4 ADD MSTORE POP PUSH1 0x80 DUP3 ADD CALLDATALOAD PUSH1 0x1 PUSH1 0x1 PUSH1 0x40 SHL SUB DUP2 GT ISZERO PUSH2 0x49C8 JUMPI PUSH1 0x0 DUP1 REVERT JUMPDEST PUSH2 0x49D4 DUP5 DUP3 DUP6 ADD PUSH2 0x403A JUMP JUMPDEST PUSH1 0x80 DUP4 ADD MSTORE POP PUSH1 0xA0 DUP3 ADD CALLDATALOAD PUSH1 0x1 PUSH1 0x1 PUSH1 0x40 SHL SUB DUP2 GT ISZERO PUSH2 0x49F3 JUMPI PUSH1 0x0 DUP1 REVERT JUMPDEST PUSH2 0x49FF DUP5 DUP3 DUP6 ADD PUSH2 0x403A JUMP JUMPDEST PUSH1 0xA0 DUP4 ADD MSTORE POP SWAP3 SWAP2 POP POP JUMP JUMPDEST PUSH1 0x0 DUP1 PUSH1 0x40 DUP4 DUP6 SUB SLT ISZERO PUSH2 0x4A1E JUMPI PUSH1 0x0 DUP1 REVERT JUMPDEST DUP3 CALLDATALOAD PUSH1 0x1 PUSH1 0x1 PUSH1 0x40 SHL SUB DUP2 GT ISZERO PUSH2 0x4A34 JUMPI PUSH1 0x0 DUP1 REVERT JUMPDEST PUSH2 0x4A40 DUP6 DUP3 DUP7 ADD PUSH2 0x403A JUMP JUMPDEST SWAP3 POP POP PUSH1 0x20 DUP4 ADD CALLDATALOAD PUSH1 0x1 PUSH1 0x1 PUSH1 0x40 SHL SUB DUP2 GT ISZERO PUSH2 0x4A5C JUMPI PUSH1 0x0 DUP1 REVERT JUMPDEST PUSH2 0x453F DUP6 DUP3 DUP7 ADD PUSH2 0x48ED JUMP JUMPDEST PUSH1 0x0 PUSH1 0x20 DUP3 DUP5 SUB SLT ISZERO PUSH2 0x4A7A JUMPI PUSH1 0x0 DUP1 REVERT JUMPDEST POP CALLDATALOAD SWAP2 SWAP1 POP JUMP JUMPDEST PUSH1 0x0 DUP1 PUSH1 0x40 DUP4 DUP6 SUB SLT ISZERO PUSH2 0x4A94 JUMPI PUSH1 0x0 DUP1 REVERT JUMPDEST DUP3 CALLDATALOAD SWAP2 POP PUSH1 0x20 DUP4 ADD CALLDATALOAD PUSH1 0x1 PUSH1 0x1 PUSH1 0xA0 SHL SUB DUP2 AND DUP2 EQ PUSH2 0x4AB2 JUMPI PUSH1 0x0 DUP1 REVERT JUMPDEST DUP1 SWAP2 POP POP SWAP3 POP SWAP3 SWAP1 POP JUMP JUMPDEST PUSH1 0x0 DUP2 MLOAD PUSH1 0xC0 DUP5 MSTORE PUSH2 0x4AD2 PUSH1 0xC0 DUP6 ADD DUP3 PUSH2 0x43C1 JUMP JUMPDEST SWAP1 POP PUSH1 0x20 DUP4 ADD MLOAD DUP5 DUP3 SUB PUSH1 0x20 DUP7 ADD MSTORE PUSH2 0x4AEB DUP3 DUP3 PUSH2 0x43C1 JUMP JUMPDEST SWAP2 POP POP PUSH1 0x40 DUP4 ADD MLOAD DUP5 DUP3 SUB PUSH1 0x40 DUP7 ADD MSTORE PUSH2 0x4B05 DUP3 DUP3 PUSH2 0x43C1 JUMP JUMPDEST SWAP2 POP POP PUSH1 0x60 DUP4 ADD MLOAD DUP5 DUP3 SUB PUSH1 0x60 DUP7 ADD MSTORE PUSH2 0x4B1F DUP3 DUP3 PUSH2 0x43C1 JUMP JUMPDEST SWAP2 POP POP PUSH1 0x80 DUP4 ADD MLOAD DUP5 DUP3 SUB PUSH1 0x80 DUP7 ADD MSTORE PUSH2 0x4B39 DUP3 DUP3 PUSH2 0x43C1 JUMP JUMPDEST SWAP2 POP POP PUSH1 0xA0 DUP4 ADD MLOAD DUP5 DUP3 SUB PUSH1 0xA0 DUP7 ADD MSTORE PUSH2 0x4462 DUP3 DUP3 PUSH2 0x43C1 JUMP JUMPDEST PUSH1 0x20 DUP2 MSTORE PUSH1 0x0 PUSH2 0x435A PUSH1 0x20 DUP4 ADD DUP5 PUSH2 0x4ABD JUMP JUMPDEST PUSH1 0x20 DUP2 MSTORE PUSH1 0x0 DUP3 MLOAD PUSH2 0x180 PUSH1 0x20 DUP5 ADD MSTORE PUSH2 0x4B84 PUSH2 0x1A0 DUP5 ADD DUP3 PUSH2 0x43C1 JUMP JUMPDEST SWAP1 POP PUSH1 0x20 DUP5 ADD MLOAD PUSH1 0x1F NOT DUP5 DUP4 SUB ADD PUSH1 0x40 DUP6 ADD MSTORE PUSH2 0x4BA1 DUP3 DUP3 PUSH2 0x43C1 JUMP JUMPDEST SWAP2 POP POP PUSH1 0x40 DUP5 ADD MLOAD PUSH1 0x1F NOT DUP5 DUP4 SUB ADD PUSH1 0x60 DUP6 ADD MSTORE PUSH2 0x4BBF DUP3 DUP3 PUSH2 0x43C1 JUMP JUMPDEST SWAP2 POP POP PUSH1 0x60 DUP5 ADD MLOAD PUSH1 0x80 DUP5 ADD MSTORE PUSH1 0x80 DUP5 ADD MLOAD PUSH1 0xA0 DUP5 ADD MSTORE PUSH1 0xA0 DUP5 ADD MLOAD PUSH1 0x1F NOT DUP5 DUP4 SUB ADD PUSH1 0xC0 DUP6 ADD MSTORE PUSH2 0x4BF1 DUP3 DUP3 PUSH2 0x43C1 JUMP JUMPDEST SWAP2 POP POP PUSH1 0xC0 DUP5 ADD MLOAD PUSH1 0x1F NOT DUP5 DUP4 SUB ADD PUSH1 0xE0 DUP6 ADD MSTORE PUSH2 0x4C0F DUP3 DUP3 PUSH2 0x43C1 JUMP JUMPDEST SWAP2 POP POP PUSH1 0xE0 DUP5 ADD MLOAD PUSH1 0x1F NOT DUP5 DUP4 SUB ADD PUSH2 0x100 DUP6 ADD MSTORE PUSH2 0x4C2E DUP3 DUP3 PUSH2 0x43C1 JUMP JUMPDEST SWAP2 POP POP PUSH2 0x100 DUP5 ADD MLOAD PUSH1 0x1F NOT DUP5 DUP4 SUB ADD PUSH2 0x120 DUP6 ADD MSTORE PUSH2 0x4C4E DUP3 DUP3 PUSH2 0x43C1 JUMP JUMPDEST SWAP2 POP POP PUSH2 0x120 DUP5 ADD MLOAD PUSH1 0x1F NOT DUP5 DUP4 SUB ADD PUSH2 0x140 DUP6 ADD MSTORE PUSH2 0x4C6E DUP3 DUP3 PUSH2 0x43C1 JUMP JUMPDEST SWAP2 POP POP PUSH2 0x140 DUP5 ADD MLOAD PUSH1 0x1F NOT DUP5 DUP4 SUB ADD PUSH2 0x160 DUP6 ADD MSTORE PUSH2 0x4C8E DUP3 DUP3 PUSH2 0x43C1 JUMP JUMPDEST SWAP2 POP POP PUSH2 0x160 DUP5 ADD MLOAD PUSH1 0x1F NOT DUP5 DUP4 SUB ADD PUSH2 0x180 DUP6 ADD MSTORE PUSH2 0x4462 DUP3 DUP3 PUSH2 0x43C1 JUMP JUMPDEST PUSH1 0x0 DUP1 PUSH1 0x40 DUP4 DUP6 SUB SLT ISZERO PUSH2 0x4CC1 JUMPI PUSH1 0x0 DUP1 REVERT JUMPDEST DUP3 CALLDATALOAD PUSH1 0x1 PUSH1 0x1 PUSH1 0x40 SHL SUB DUP2 GT ISZERO PUSH2 0x4CD7 JUMPI PUSH1 0x0 DUP1 REVERT JUMPDEST PUSH2 0x4CE3 DUP6 DUP3 DUP7 ADD PUSH2 0x403A JUMP JUMPDEST SWAP3 POP POP PUSH1 0x20 DUP4 ADD CALLDATALOAD PUSH1 0x1 PUSH1 0x1 PUSH1 0x40 SHL SUB DUP2 GT ISZERO PUSH2 0x4CFF JUMPI PUSH1 0x0 DUP1 REVERT JUMPDEST DUP4 ADD PUSH1 0x80 DUP2 DUP7 SUB SLT ISZERO PUSH2 0x4D11 JUMPI PUSH1 0x0 DUP1 REVERT JUMPDEST PUSH2 0x4D19 PUSH2 0x3FF5 JUMP JUMPDEST DUP2 CALLDATALOAD PUSH1 0x1 PUSH1 0x1 PUSH1 0x40 SHL SUB DUP2 GT ISZERO PUSH2 0x4D2F JUMPI PUSH1 0x0 DUP1 REVERT JUMPDEST PUSH2 0x4D3B DUP8 DUP3 DUP6 ADD PUSH2 0x403A JUMP JUMPDEST DUP3 MSTORE POP PUSH1 0x20 DUP3 ADD CALLDATALOAD PUSH1 0x1 PUSH1 0x1 PUSH1 0x40 SHL SUB DUP2 GT ISZERO PUSH2 0x4D57 JUMPI PUSH1 0x0 DUP1 REVERT JUMPDEST PUSH2 0x4D63 DUP8 DUP3 DUP6 ADD PUSH2 0x403A JUMP JUMPDEST PUSH1 0x20 DUP4 ADD MSTORE POP PUSH1 0x40 DUP3 ADD CALLDATALOAD PUSH1 0x1 PUSH1 0x1 PUSH1 0x40 SHL SUB DUP2 GT ISZERO PUSH2 0x4D82 JUMPI PUSH1 0x0 DUP1 REVERT JUMPDEST PUSH2 0x4D8E DUP8 DUP3 DUP6 ADD PUSH2 0x403A JUMP JUMPDEST PUSH1 0x40 DUP4 ADD MSTORE POP PUSH1 0x60 DUP3 ADD CALLDATALOAD PUSH1 0x1 PUSH1 0x1 PUSH1 0x40 SHL SUB DUP2 GT ISZERO PUSH2 0x4DAD JUMPI PUSH1 0x0 DUP1 REVERT JUMPDEST PUSH2 0x4DB9 DUP8 DUP3 DUP6 ADD PUSH2 0x403A JUMP JUMPDEST PUSH1 0x60 DUP4 ADD MSTORE POP DUP1 SWAP3 POP POP POP SWAP3 POP SWAP3 SWAP1 POP JUMP JUMPDEST PUSH1 0x20 DUP2 MSTORE PUSH1 0x0 DUP3 MLOAD PUSH2 0x100 PUSH1 0x20 DUP5 ADD MSTORE PUSH2 0x4DE9 PUSH2 0x120 DUP5 ADD DUP3 PUSH2 0x43C1 JUMP JUMPDEST SWAP1 POP PUSH1 0x20 DUP5 ADD MLOAD PUSH1 0x1F NOT DUP5 DUP4 SUB ADD PUSH1 0x40 DUP6 ADD MSTORE PUSH2 0x4E06 DUP3 DUP3 PUSH2 0x43C1 JUMP JUMPDEST SWAP2 POP POP PUSH1 0x40 DUP5 ADD MLOAD PUSH1 0x1F NOT DUP5 DUP4 SUB ADD PUSH1 0x60 DUP6 ADD MSTORE PUSH2 0x4E24 DUP3 DUP3 PUSH2 0x43C1 JUMP JUMPDEST SWAP2 POP POP PUSH1 0x60 DUP5 ADD MLOAD PUSH1 0x1F NOT DUP5 DUP4 SUB ADD PUSH1 0x80 DUP6 ADD MSTORE PUSH2 0x4E42 DUP3 DUP3 PUSH2 0x43C1 JUMP JUMPDEST SWAP2 POP POP PUSH1 0x80 DUP5 ADD MLOAD PUSH1 0x1F NOT DUP5 DUP4 SUB ADD PUSH1 0xA0 DUP6 ADD MSTORE PUSH2 0x4E60 DUP3 DUP3 PUSH2 0x43C1 JUMP JUMPDEST SWAP2 POP POP PUSH1 0xA0 DUP5 ADD MLOAD PUSH1 0x1F NOT DUP5 DUP4 SUB ADD PUSH1 0xC0 DUP6 ADD MSTORE PUSH2 0x4E7E DUP3 DUP3 PUSH2 0x43C1 JUMP JUMPDEST SWAP2 POP POP PUSH1 0xC0 DUP5 ADD MLOAD PUSH1 0x1F NOT DUP5 DUP4 SUB ADD PUSH1 0xE0 DUP6 ADD MSTORE PUSH2 0x4E9C DUP3 DUP3 PUSH2 0x43C1 JUMP JUMPDEST SWAP2 POP POP PUSH1 0xE0 DUP5 ADD MLOAD PUSH2 0x100 DUP5 ADD MSTORE DUP1 SWAP2 POP POP SWAP3 SWAP2 POP POP JUMP JUMPDEST PUSH1 0x20 DUP2 MSTORE PUSH1 0x0 DUP3 MLOAD PUSH1 0x80 PUSH1 0x20 DUP5 ADD MSTORE PUSH2 0x4ED0 PUSH1 0xA0 DUP5 ADD DUP3 PUSH2 0x43C1 JUMP JUMPDEST SWAP1 POP PUSH1 0x20 DUP5 ADD MLOAD PUSH1 0x1F NOT DUP5 DUP4 SUB ADD PUSH1 0x40 DUP6 ADD MSTORE PUSH2 0x4EED DUP3 DUP3 PUSH2 0x43C1 JUMP JUMPDEST SWAP2 POP POP PUSH1 0x40 DUP5 ADD MLOAD PUSH1 0x1F NOT DUP5 DUP4 SUB ADD PUSH1 0x60 DUP6 ADD MSTORE PUSH2 0x4F0B DUP3 DUP3 PUSH2 0x43C1 JUMP JUMPDEST SWAP2 POP POP PUSH1 0x60 DUP5 ADD MLOAD ISZERO ISZERO PUSH1 0x80 DUP5 ADD MSTORE DUP1 SWAP2 POP POP SWAP3 SWAP2 POP POP JUMP JUMPDEST PUSH1 0x0 DUP1 PUSH1 0x40 DUP4 DUP6 SUB SLT ISZERO PUSH2 0x4F37 JUMPI PUSH1 0x0 DUP1 REVERT JUMPDEST DUP3 CALLDATALOAD PUSH1 0x1 PUSH1 0x1 PUSH1 0x40 SHL SUB DUP2 GT ISZERO PUSH2 0x4F4D JUMPI PUSH1 0x0 DUP1 REVERT JUMPDEST PUSH2 0x4F59 DUP6 DUP3 DUP7 ADD PUSH2 0x403A JUMP JUMPDEST SWAP3 POP POP PUSH1 0x20 DUP4 ADD CALLDATALOAD PUSH1 0x1 PUSH1 0x1 PUSH1 0x40 SHL SUB DUP2 GT ISZERO PUSH2 0x4F75 JUMPI PUSH1 0x0 DUP1 REVERT JUMPDEST DUP4 ADD PUSH1 0x80 DUP2 DUP7 SUB SLT ISZERO PUSH2 0x4F87 JUMPI PUSH1 0x0 DUP1 REVERT JUMPDEST PUSH2 0x4F8F PUSH2 0x3FF5 JUMP JUMPDEST DUP2 CALLDATALOAD PUSH1 0x1 PUSH1 0x1 PUSH1 0x40 SHL SUB DUP2 GT ISZERO PUSH2 0x4FA5 JUMPI PUSH1 0x0 DUP1 REVERT JUMPDEST PUSH2 0x4FB1 DUP8 DUP3 DUP6 ADD PUSH2 0x403A JUMP JUMPDEST DUP3 MSTORE POP PUSH1 0x20 DUP3 ADD CALLDATALOAD PUSH1 0x1 PUSH1 0x1 PUSH1 0x40 SHL SUB DUP2 GT ISZERO PUSH2 0x4FCD JUMPI PUSH1 0x0 DUP1 REVERT JUMPDEST PUSH2 0x4FD9 DUP8 DUP3 DUP6 ADD PUSH2 0x403A JUMP JUMPDEST PUSH1 0x20 DUP4 ADD MSTORE POP PUSH1 0x40 DUP3 ADD CALLDATALOAD PUSH1 0x1 PUSH1 0x1 PUSH1 0x40 SHL SUB DUP2 GT ISZERO PUSH2 0x4FF8 JUMPI PUSH1 0x0 DUP1 REVERT JUMPDEST PUSH2 0x5004 DUP8 DUP3 DUP6 ADD PUSH2 0x403A JUMP JUMPDEST PUSH1 0x40 DUP4 ADD MSTORE POP PUSH1 0x60 DUP3 ADD CALLDATALOAD SWAP2 POP DUP2 ISZERO ISZERO DUP3 EQ PUSH2 0x501F JUMPI PUSH1 0x0 DUP1 REVERT JUMPDEST DUP2 PUSH1 0x60 DUP3 ADD MSTORE DUP1 SWAP3 POP POP POP SWAP3 POP SWAP3 SWAP1 POP JUMP JUMPDEST PUSH1 0x0 DUP1 PUSH1 0x0 PUSH1 0x40 DUP5 DUP7 SUB SLT ISZERO PUSH2 0x5046 JUMPI PUSH1 0x0 DUP1 REVERT JUMPDEST DUP4 CALLDATALOAD PUSH1 0x1 PUSH1 0x1 PUSH1 0x40 SHL SUB DUP2 GT ISZERO PUSH2 0x505C JUMPI PUSH1 0x0 DUP1 REVERT JUMPDEST PUSH2 0x5068 DUP7 DUP3 DUP8 ADD PUSH2 0x403A JUMP JUMPDEST SWAP4 POP POP PUSH1 0x20 DUP5 ADD CALLDATALOAD PUSH1 0x1 PUSH1 0x1 PUSH1 0x40 SHL SUB DUP2 GT ISZERO PUSH2 0x5084 JUMPI PUSH1 0x0 DUP1 REVERT JUMPDEST DUP5 ADD PUSH1 0x1F DUP2 ADD DUP7 SGT PUSH2 0x5095 JUMPI PUSH1 0x0 DUP1 REVERT JUMPDEST DUP1 CALLDATALOAD PUSH1 0x1 PUSH1 0x1 PUSH1 0x40 SHL SUB DUP2 GT ISZERO PUSH2 0x50AB JUMPI PUSH1 0x0 DUP1 REVERT JUMPDEST DUP7 PUSH1 0x20 DUP3 PUSH1 0x5 SHL DUP5 ADD ADD GT ISZERO PUSH2 0x50C0 JUMPI PUSH1 0x0 DUP1 REVERT JUMPDEST SWAP4 SWAP7 PUSH1 0x20 SWAP2 SWAP1 SWAP2 ADD SWAP6 POP SWAP3 SWAP4 POP POP POP JUMP JUMPDEST PUSH1 0x0 DUP1 PUSH1 0x40 DUP4 DUP6 SUB SLT ISZERO PUSH2 0x50E4 JUMPI PUSH1 0x0 DUP1 REVERT JUMPDEST DUP3 CALLDATALOAD PUSH1 0x1 PUSH1 0x1 PUSH1 0x40 SHL SUB DUP2 GT ISZERO PUSH2 0x50FA JUMPI PUSH1 0x0 DUP1 REVERT JUMPDEST PUSH2 0x5106 DUP6 DUP3 DUP7 ADD PUSH2 0x403A JUMP JUMPDEST SWAP3 POP POP PUSH1 0x20 DUP4 ADD CALLDATALOAD PUSH1 0x1 PUSH1 0x1 PUSH1 0x40 SHL SUB DUP2 GT ISZERO PUSH2 0x5122 JUMPI PUSH1 0x0 DUP1 REVERT JUMPDEST DUP4 ADD PUSH2 0x100 DUP2 DUP7 SUB SLT ISZERO PUSH2 0x5135 JUMPI PUSH1 0x0 DUP1 REVERT JUMPDEST PUSH2 0x513D PUSH2 0x4017 JUMP JUMPDEST DUP2 CALLDATALOAD PUSH1 0x1 PUSH1 0x1 PUSH1 0x40 SHL SUB DUP2 GT ISZERO PUSH2 0x5153 JUMPI PUSH1 0x0 DUP1 REVERT JUMPDEST PUSH2 0x515F DUP8 DUP3 DUP6 ADD PUSH2 0x403A JUMP JUMPDEST DUP3 MSTORE POP PUSH1 0x20 DUP3 ADD CALLDATALOAD PUSH1 0x1 PUSH1 0x1 PUSH1 0x40 SHL SUB DUP2 GT ISZERO PUSH2 0x517B JUMPI PUSH1 0x0 DUP1 REVERT JUMPDEST PUSH2 0x5187 DUP8 DUP3 DUP6 ADD PUSH2 0x403A JUMP JUMPDEST PUSH1 0x20 DUP4 ADD MSTORE POP PUSH1 0x40 DUP3 ADD CALLDATALOAD PUSH1 0x1 PUSH1 0x1 PUSH1 0x40 SHL SUB DUP2 GT ISZERO PUSH2 0x51A6 JUMPI PUSH1 0x0 DUP1 REVERT JUMPDEST PUSH2 0x51B2 DUP8 DUP3 DUP6 ADD PUSH2 0x403A JUMP JUMPDEST PUSH1 0x40 DUP4 ADD MSTORE POP PUSH1 0x60 DUP3 ADD CALLDATALOAD PUSH1 0x1 PUSH1 0x1 PUSH1 0x40 SHL SUB DUP2 GT ISZERO PUSH2 0x51D1 JUMPI PUSH1 0x0 DUP1 REVERT JUMPDEST PUSH2 0x51DD DUP8 DUP3 DUP6 ADD PUSH2 0x403A JUMP JUMPDEST PUSH1 0x60 DUP4 ADD MSTORE POP PUSH1 0x80 DUP3 ADD CALLDATALOAD PUSH1 0x1 PUSH1 0x1 PUSH1 0x40 SHL SUB DUP2 GT ISZERO PUSH2 0x51FC JUMPI PUSH1 0x0 DUP1 REVERT JUMPDEST PUSH2 0x5208 DUP8 DUP3 DUP6 ADD PUSH2 0x403A JUMP JUMPDEST PUSH1 0x80 DUP4 ADD MSTORE POP PUSH1 0xA0 DUP3 ADD CALLDATALOAD PUSH1 0x1 PUSH1 0x1 PUSH1 0x40 SHL SUB DUP2 GT ISZERO PUSH2 0x5227 JUMPI PUSH1 0x0 DUP1 REVERT JUMPDEST PUSH2 0x5233 DUP8 DUP3 DUP6 ADD PUSH2 0x403A JUMP JUMPDEST PUSH1 0xA0 DUP4 ADD MSTORE POP PUSH1 0xC0 DUP3 ADD CALLDATALOAD PUSH1 0x1 PUSH1 0x1 PUSH1 0x40 SHL SUB DUP2 GT ISZERO PUSH2 0x5252 JUMPI PUSH1 0x0 DUP1 REVERT JUMPDEST PUSH2 0x525E DUP8 DUP3 DUP6 ADD PUSH2 0x403A JUMP JUMPDEST PUSH1 0xC0 DUP4 ADD MSTORE POP PUSH1 0xE0 SWAP2 DUP3 ADD CALLDATALOAD SWAP2 DUP2 ADD SWAP2 SWAP1 SWAP2 MSTORE SWAP2 SWAP5 SWAP2 SWAP4 POP SWAP1 SWAP2 POP POP JUMP JUMPDEST PUSH1 0x20 DUP1 DUP3 MSTORE PUSH1 0x11 SWAP1 DUP3 ADD MSTORE PUSH17 0x84C2E8C6D040928840DAD2E6DAC2E8C6D PUSH1 0x7B SHL PUSH1 0x40 DUP3 ADD MSTORE PUSH1 0x60 ADD SWAP1 JUMP JUMPDEST PUSH1 0x0 DUP3 MLOAD PUSH2 0x52B9 DUP2 DUP5 PUSH1 0x20 DUP8 ADD PUSH2 0x439D JUMP JUMPDEST SWAP2 SWAP1 SWAP2 ADD SWAP3 SWAP2 POP POP JUMP JUMPDEST PUSH1 0x20 DUP1 DUP3 MSTORE PUSH1 0x18 SWAP1 DUP3 ADD MSTORE PUSH32 0x5061636B657420494420616C7265616479206578697374730000000000000000 PUSH1 0x40 DUP3 ADD MSTORE PUSH1 0x60 ADD SWAP1 JUMP JUMPDEST PUSH4 0x4E487B71 PUSH1 0xE0 SHL PUSH1 0x0 MSTORE PUSH1 0x11 PUSH1 0x4 MSTORE PUSH1 0x24 PUSH1 0x0 REVERT JUMPDEST DUP1 DUP3 ADD DUP1 DUP3 GT ISZERO PUSH2 0xA1E JUMPI PUSH2 0xA1E PUSH2 0x52FA JUMP JUMPDEST PUSH1 0x1 DUP2 DUP2 SHR SWAP1 DUP3 AND DUP1 PUSH2 0x5337 JUMPI PUSH1 0x7F DUP3 AND SWAP2 POP JUMPDEST PUSH1 0x20 DUP3 LT DUP2 SUB PUSH2 0x5357 JUMPI PUSH4 0x4E487B71 PUSH1 0xE0 SHL PUSH1 0x0 MSTORE PUSH1 0x22 PUSH1 0x4 MSTORE PUSH1 0x24 PUSH1 0x0 REVERT JUMPDEST POP SWAP2 SWAP1 POP JUMP JUMPDEST PUSH1 0x1F DUP3 GT ISZERO PUSH2 0x1B5E JUMPI DUP1 PUSH1 0x0 MSTORE PUSH1 0x20 PUSH1 0x0 KECCAK256 PUSH1 0x1F DUP5 ADD PUSH1 0x5 SHR DUP2 ADD PUSH1 0x20 DUP6 LT ISZERO PUSH2 0x5384 JUMPI POP DUP1 JUMPDEST PUSH1 0x1F DUP5 ADD PUSH1 0x5 SHR DUP3 ADD SWAP2 POP JUMPDEST DUP2 DUP2 LT ISZERO PUSH2 0x53A4 JUMPI PUSH1 0x0 DUP2 SSTORE PUSH1 0x1 ADD PUSH2 0x5390 JUMP JUMPDEST POP POP POP POP POP JUMP JUMPDEST DUP2 MLOAD PUSH1 0x1 PUSH1 0x1 PUSH1 0x40 SHL SUB DUP2 GT ISZERO PUSH2 0x53C4 JUMPI PUSH2 0x53C4 PUSH2 0x3F71 JUMP JUMPDEST PUSH2 0x53D8 DUP2 PUSH2 0x53D2 DUP5 SLOAD PUSH2 0x5323 JUMP JUMPDEST DUP5 PUSH2 0x535D JUMP JUMPDEST PUSH1 0x20 PUSH1 0x1F DUP3 GT PUSH1 0x1 DUP2 EQ PUSH2 0x540C JUMPI PUSH1 0x0 DUP4 ISZERO PUSH2 0x53F4 JUMPI POP DUP5 DUP3 ADD MLOAD JUMPDEST PUSH1 0x0 NOT PUSH1 0x3 DUP6 SWAP1 SHL SHR NOT AND PUSH1 0x1 DUP5 SWAP1 SHL OR DUP5 SSTORE PUSH2 0x53A4 JUMP JUMPDEST PUSH1 0x0 DUP5 DUP2 MSTORE PUSH1 0x20 DUP2 KECCAK256 PUSH1 0x1F NOT DUP6 AND SWAP2 JUMPDEST DUP3 DUP2 LT ISZERO PUSH2 0x543C JUMPI DUP8 DUP6 ADD MLOAD DUP3 SSTORE PUSH1 0x20 SWAP5 DUP6 ADD SWAP5 PUSH1 0x1 SWAP1 SWAP3 ADD SWAP2 ADD PUSH2 0x541C JUMP JUMPDEST POP DUP5 DUP3 LT ISZERO PUSH2 0x545A JUMPI DUP7 DUP5 ADD MLOAD PUSH1 0x0 NOT PUSH1 0x3 DUP8 SWAP1 SHL PUSH1 0xF8 AND SHR NOT AND DUP2 SSTORE JUMPDEST POP POP POP POP PUSH1 0x1 SWAP1 DUP2 SHL ADD SWAP1 SSTORE POP JUMP JUMPDEST PUSH1 0x40 DUP2 MSTORE PUSH1 0x0 PUSH2 0x547C PUSH1 0x40 DUP4 ADD DUP5 PUSH2 0x43C1 JUMP JUMPDEST DUP3 DUP2 SUB PUSH1 0x20 DUP5 ADD MSTORE PUSH2 0x4395 DUP2 PUSH1 0xA DUP2 MSTORE PUSH10 0x70726F63657373696E67 PUSH1 0xB0 SHL PUSH1 0x20 DUP3 ADD MSTORE PUSH1 0x40 ADD SWAP1 JUMP JUMPDEST PUSH1 0x60 DUP2 MSTORE PUSH1 0x0 PUSH2 0x54B8 PUSH1 0x60 DUP4 ADD DUP6 PUSH2 0x43C1 JUMP JUMPDEST DUP3 DUP2 SUB PUSH1 0x20 DUP5 ADD MSTORE PUSH2 0x54CA DUP2 DUP6 PUSH2 0x43C1 JUMP JUMPDEST SWAP1 POP DUP3 DUP2 SUB PUSH1 0x40 DUP5 ADD MSTORE PUSH2 0x4462 DUP2 PUSH1 0xA DUP2 MSTORE PUSH10 0x70726F63657373696E67 PUSH1 0xB0 SHL PUSH1 0x20 DUP3 ADD MSTORE PUSH1 0x40 ADD SWAP1 JUMP JUMPDEST PUSH1 0x0 DUP7 MLOAD PUSH2 0x5507 DUP2 DUP5 PUSH1 0x20 DUP12 ADD PUSH2 0x439D JUMP JUMPDEST PUSH1 0x2D PUSH1 0xF8 SHL SWAP1 DUP4 ADD SWAP1 DUP2 MSTORE DUP7 MLOAD PUSH2 0x5525 DUP2 PUSH1 0x1 DUP5 ADD PUSH1 0x20 DUP12 ADD PUSH2 0x439D JUMP JUMPDEST PUSH1 0x2D PUSH1 0xF8 SHL PUSH1 0x1 SWAP3 SWAP1 SWAP2 ADD SWAP2 DUP3 ADD MSTORE DUP6 MLOAD PUSH2 0x5547 DUP2 PUSH1 0x2 DUP5 ADD PUSH1 0x20 DUP11 ADD PUSH2 0x439D JUMP JUMPDEST PUSH1 0x1 DUP2 DUP4 ADD ADD SWAP2 POP POP PUSH2 0x672D PUSH1 0xF0 SHL PUSH1 0x1 DUP3 ADD MSTORE DUP5 MLOAD PUSH2 0x556E DUP2 PUSH1 0x3 DUP5 ADD PUSH1 0x20 DUP10 ADD PUSH2 0x439D JUMP JUMPDEST PUSH1 0x1 DUP2 DUP4 ADD ADD SWAP2 POP POP PUSH1 0x2D PUSH1 0xF8 SHL PUSH1 0x2 DUP3 ADD MSTORE DUP4 MLOAD PUSH2 0x5594 DUP2 PUSH1 0x3 DUP5 ADD PUSH1 0x20 DUP9 ADD PUSH2 0x439D JUMP JUMPDEST ADD PUSH1 0x3 ADD SWAP8 SWAP7 POP POP POP POP POP POP POP JUMP JUMPDEST PUSH1 0x0 DUP4 MLOAD PUSH2 0x55B5 DUP2 DUP5 PUSH1 0x20 DUP9 ADD PUSH2 0x439D JUMP JUMPDEST PUSH1 0x5F PUSH1 0xF8 SHL SWAP1 DUP4 ADD SWAP1 DUP2 MSTORE DUP4 MLOAD PUSH2 0x55D3 DUP2 PUSH1 0x1 DUP5 ADD PUSH1 0x20 DUP9 ADD PUSH2 0x439D JUMP JUMPDEST ADD PUSH1 0x1 ADD SWAP5 SWAP4 POP POP POP POP JUMP JUMPDEST PUSH1 0x40 DUP2 MSTORE PUSH1 0x0 PUSH2 0x55F2 PUSH1 0x40 DUP4 ADD DUP5 PUSH2 0x43C1 JUMP JUMPDEST DUP3 DUP2 SUB PUSH1 0x20 DUP5 ADD MSTORE PUSH2 0x4395 DUP2 PUSH1 0xB DUP2 MSTORE PUSH11 0x3234B9BA3934B13ABA37B9 PUSH1 0xA9 SHL PUSH1 0x20 DUP3 ADD MSTORE PUSH1 0x40 ADD SWAP1 JUMP JUMPDEST PUSH1 0x60 DUP2 MSTORE PUSH1 0x0 PUSH2 0x562F PUSH1 0x60 DUP4 ADD DUP6 PUSH2 0x43C1 JUMP JUMPDEST DUP3 DUP2 SUB PUSH1 0x20 DUP5 ADD MSTORE PUSH2 0x5641 DUP2 DUP6 PUSH2 0x43C1 JUMP JUMPDEST SWAP1 POP DUP3 DUP2 SUB PUSH1 0x40 DUP5 ADD MSTORE PUSH2 0x4462 DUP2 PUSH1 0xB DUP2 MSTORE PUSH11 0x3234B9BA3934B13ABA37B9 PUSH1 0xA9 SHL PUSH1 0x20 DUP3 ADD MSTORE PUSH1 0x40 ADD SWAP1 JUMP JUMPDEST PUSH1 0x40 DUP2 MSTORE PUSH1 0x0 PUSH2 0x5680 PUSH1 0x40 DUP4 ADD DUP5 PUSH2 0x43C1 JUMP JUMPDEST DUP3 DUP2 SUB PUSH1 0x20 DUP5 ADD MSTORE PUSH2 0x4395 DUP2 PUSH1 0xA DUP2 MSTORE PUSH10 0x39B437B835B2B2B832B9 PUSH1 0xB1 SHL PUSH1 0x20 DUP3 ADD MSTORE PUSH1 0x40 ADD SWAP1 JUMP JUMPDEST PUSH1 0x60 DUP2 MSTORE PUSH1 0x0 PUSH2 0x56BC PUSH1 0x60 DUP4 ADD DUP6 PUSH2 0x43C1 JUMP JUMPDEST DUP3 DUP2 SUB PUSH1 0x20 DUP5 ADD MSTORE PUSH2 0x56CE DUP2 DUP6 PUSH2 0x43C1 JUMP JUMPDEST SWAP1 POP DUP3 DUP2 SUB PUSH1 0x40 DUP5 ADD MSTORE PUSH2 0x4462 DUP2 PUSH1 0xA DUP2 MSTORE PUSH10 0x39B437B835B2B2B832B9 PUSH1 0xB1 SHL PUSH1 0x20 DUP3 ADD MSTORE PUSH1 0x40 ADD SWAP1 JUMP JUMPDEST PUSH1 0x0 DUP2 SLOAD PUSH2 0x5706 DUP2 PUSH2 0x5323 JUMP JUMPDEST PUSH1 0x1 DUP3 AND DUP1 ISZERO PUSH2 0x571D JUMPI PUSH1 0x1 DUP2 EQ PUSH2 0x5732 JUMPI PUSH2 0x5762 JUMP JUMPDEST PUSH1 0xFF NOT DUP4 AND DUP7 MSTORE DUP2 ISZERO ISZERO DUP3 MUL DUP7 ADD SWAP4 POP PUSH2 0x5762 JUMP JUMPDEST DUP5 PUSH1 0x0 MSTORE PUSH1 0x20 PUSH1 0x0 KECCAK256 PUSH1 0x0 JUMPDEST DUP4 DUP2 LT ISZERO PUSH2 0x575A JUMPI DUP2 SLOAD DUP9 DUP3 ADD MSTORE PUSH1 0x1 SWAP1 SWAP2 ADD SWAP1 PUSH1 0x20 ADD PUSH2 0x573E JUMP JUMPDEST POP POP DUP2 DUP7 ADD SWAP4 POP JUMPDEST POP POP POP SWAP3 SWAP2 POP POP JUMP JUMPDEST PUSH1 0x0 PUSH2 0x435A DUP3 DUP5 PUSH2 0x56F9 JUMP JUMPDEST PUSH1 0x20 DUP2 MSTORE PUSH1 0x0 PUSH2 0x435A PUSH1 0x20 DUP4 ADD DUP5 PUSH2 0x43C1 JUMP JUMPDEST PUSH1 0x40 DUP2 MSTORE PUSH1 0x0 PUSH2 0x579D PUSH1 0x40 DUP4 ADD DUP5 PUSH2 0x43C1 JUMP JUMPDEST DUP3 DUP2 SUB PUSH1 0x20 DUP5 ADD MSTORE PUSH2 0x4395 DUP2 PUSH1 0x8 DUP2 MSTORE PUSH8 0x39BAB8383634B2B9 PUSH1 0xC1 SHL PUSH1 0x20 DUP3 ADD MSTORE PUSH1 0x40 ADD SWAP1 JUMP JUMPDEST PUSH1 0x60 DUP2 MSTORE PUSH1 0x0 PUSH2 0x57D7 PUSH1 0x60 DUP4 ADD DUP6 PUSH2 0x43C1 JUMP JUMPDEST DUP3 DUP2 SUB PUSH1 0x20 DUP5 ADD MSTORE PUSH2 0x57E9 DUP2 DUP6 PUSH2 0x43C1 JUMP JUMPDEST SWAP1 POP DUP3 DUP2 SUB PUSH1 0x40 DUP5 ADD MSTORE PUSH2 0x4462 DUP2 PUSH1 0x8 DUP2 MSTORE PUSH8 0x39BAB8383634B2B9 PUSH1 0xC1 SHL PUSH1 0x20 DUP3 ADD MSTORE PUSH1 0x40 ADD SWAP1 JUMP JUMPDEST PUSH1 0x40 DUP2 MSTORE PUSH1 0x0 PUSH2 0x5825 PUSH1 0x40 DUP4 ADD DUP6 PUSH2 0x43C1 JUMP JUMPDEST DUP3 DUP2 SUB PUSH1 0x20 DUP5 ADD MSTORE PUSH2 0x4462 DUP2 DUP6 PUSH2 0x43C1 JUMP JUMPDEST PUSH1 0x60 DUP2 MSTORE PUSH1 0x0 PUSH2 0x584A PUSH1 0x60 DUP4 ADD DUP7 PUSH2 0x43C1 JUMP JUMPDEST DUP3 DUP2 SUB PUSH1 0x20 DUP5 ADD MSTORE PUSH2 0x585C DUP2 DUP7 PUSH2 0x43C1 JUMP JUMPDEST SWAP1 POP DUP3 DUP2 SUB PUSH1 0x40 DUP5 ADD MSTORE PUSH2 0x5870 DUP2 DUP6 PUSH2 0x43C1 JUMP JUMPDEST SWAP7 SWAP6 POP POP POP POP POP POP JUMP JUMPDEST PUSH4 0x4E487B71 PUSH1 0xE0 SHL PUSH1 0x0 MSTORE PUSH1 0x32 PUSH1 0x4 MSTORE PUSH1 0x24 PUSH1 0x0 REVERT JUMPDEST PUSH1 0x0 DUP1 DUP4 CALLDATALOAD PUSH1 0x1E NOT DUP5 CALLDATASIZE SUB ADD DUP2 SLT PUSH2 0x58A7 JUMPI PUSH1 0x0 DUP1 REVERT JUMPDEST DUP4 ADD DUP1 CALLDATALOAD SWAP2 POP PUSH1 0x1 PUSH1 0x1 PUSH1 0x40 SHL SUB DUP3 GT ISZERO PUSH2 0x58C1 JUMPI PUSH1 0x0 DUP1 REVERT JUMPDEST PUSH1 0x20 ADD SWAP2 POP CALLDATASIZE DUP2 SWAP1 SUB DUP3 SGT ISZERO PUSH2 0x58D6 JUMPI PUSH1 0x0 DUP1 REVERT JUMPDEST SWAP3 POP SWAP3 SWAP1 POP JUMP JUMPDEST PUSH1 0x0 PUSH1 0x1 DUP3 ADD PUSH2 0x58EF JUMPI PUSH2 0x58EF PUSH2 0x52FA JUMP JUMPDEST POP PUSH1 0x1 ADD SWAP1 JUMP JUMPDEST PUSH4 0x4E487B71 PUSH1 0xE0 SHL PUSH1 0x0 MSTORE PUSH1 0x12 PUSH1 0x4 MSTORE PUSH1 0x24 PUSH1 0x0 REVERT JUMPDEST PUSH1 0x0 DUP3 PUSH2 0x591B JUMPI PUSH2 0x591B PUSH2 0x58F6 JUMP JUMPDEST POP DIV SWAP1 JUMP JUMPDEST DUP2 DUP2 SUB DUP2 DUP2 GT ISZERO PUSH2 0xA1E JUMPI PUSH2 0xA1E PUSH2 0x52FA JUMP JUMPDEST PUSH1 0x0 DUP3 PUSH2 0x5942 JUMPI PUSH2 0x5942 PUSH2 0x58F6 JUMP JUMPDEST POP MOD SWAP1 JUMP JUMPDEST PUSH2 0x303 PUSH1 0xF4 SHL DUP2 MSTORE PUSH1 0x0 DUP3 MLOAD PUSH2 0x5964 DUP2 PUSH1 0x2 DUP6 ADD PUSH1 0x20 DUP8 ADD PUSH2 0x439D JUMP JUMPDEST SWAP2 SWAP1 SWAP2 ADD PUSH1 0x2 ADD SWAP3 SWAP2 POP POP JUMP JUMPDEST PUSH1 0x3 PUSH1 0xFC SHL DUP2 MSTORE PUSH1 0x0 DUP3 MLOAD PUSH2 0x598D DUP2 PUSH1 0x1 DUP6 ADD PUSH1 0x20 DUP8 ADD PUSH2 0x439D JUMP JUMPDEST SWAP2 SWAP1 SWAP2 ADD PUSH1 0x1 ADD SWAP3 SWAP2 POP POP JUMP INVALID 0x2B SLOAD PUSH27 0xC2FB942A73231DA07C77D1D1078CE0D1D89E58351E859C4190B6E7 MSIZE PUSH18 0xE61DECFF6E4A5C6B5A3D3CBD28F882E59517 CALLDATALOAD PUSH4 0xB49353CE PUSH0 BALANCE 0xDB LOG2 0xDE PUSH32 0x5EE21519163C0A8E059C8E23E0AB06F425FDC81BC5628279BFBAC9F2440AEC7 SIGNEXTEND 0xCC PUSH6 0x12AF60840C5F SWAP16 0xFC DUP12 STOP 0xF8 POP 0xB1 0xB5 DUP16 0xE0 CALL GASPRICE RETURNDATACOPY PUSH23 0xE33CE842EFE6264A16E82DA2646970667358221220AEC3 0xE1 0xA9 0x1E 0xDA 0xA9 EXTCODEHASH 0xAB 0xB7 0xBB POP SELFBALANCE CALLDATASIZE STATICCALL 0x1F SSTORE MULMOD 0xF7 0xA9 0xB6 DUP3 0xD2 0xB9 ADDRESS PUSH23 0x23E70479B87364736F6C634300081C0033000000000000 "},"methodIdentifiers":{"DEFAULT_ADMIN_ROLE()":"a217fddf","DISTRIBUTOR_ROLE()":"f0bd87cc","FARMER_ROLE()":"f3943970","PROCESSOR_ROLE()":"8222bdb2","SHOPKEEPER_ROLE()":"f99d54da","SUPPLIER_ROLE()":"a29508fc","addDistributor(string,(string,string,string,string,string,string))":"10370baa","addHarvest(string,(string,string,string,string,string,string,string,uint256))":"f01eb29a","addPacket(string,(string,string,string,bool))":"b57eddf8","addPacketsInBatch(string,string[])":"d1104e69","addProcessing(string,(string,string,string,uint256,uint256,string,string,string,string,string,string,string,string))":"00bc3e0d","addShopkeeper(string,(string,string,string,string))":"5888cc9a","addSupplier(string,(string,string,string,string,string,string))":"98a9abad","batchExists(string)":"e7903988","batchPacketCount(string)":"2074177a","checkFarmerBatchExists(string,string)":"0a64f5a6","createPackets(string,string,uint256,uint256)":"097fc7a3","getBatchPacketCount(string)":"5c4798e2","getBatchProcessing(string)":"573c9bfa","getDistributor(string)":"4743c2cb","getHarvest(string)":"72c9379b","getHarvestForBatch(string)":"b54c2a28","getPacket(string)":"931c8a90","getProcessing(string)":"0ec4a56b","getRoleAdmin(bytes32)":"248a9ca3","getShopkeeper(string)":"0565dec1","getSupplier(string)":"98ad0642","grantRole(bytes32,address)":"2f2ff15d","hasRole(bytes32,address)":"91d14854","isPacketSold(string)":"6caa0470","markPacketSold(string,string)":"8482d962","packetIdExists(string)":"ea701ea0","renounceRole(bytes32,address)":"36568abe","revokeRole(bytes32,address)":"d547741f","setBatchProcessing(string,(string,string,string,uint256,uint256,string,string,string,string,string,string,string))":"0efe0de7","supportsInterface(bytes4)":"01ffc9a7"}}}}}